{
  "contractName": "AbxToken",
  "abi": [
    {
      "constant": true,
      "inputs": [],
      "name": "name",
      "outputs": [
        {
          "name": "",
          "type": "string"
        }
      ],
      "payable": false,
      "stateMutability": "view",
      "type": "function"
    },
    {
      "constant": true,
      "inputs": [],
      "name": "approver",
      "outputs": [
        {
          "name": "",
          "type": "address"
        }
      ],
      "payable": false,
      "stateMutability": "view",
      "type": "function"
    },
    {
      "constant": true,
      "inputs": [],
      "name": "totalSupply",
      "outputs": [
        {
          "name": "",
          "type": "uint256"
        }
      ],
      "payable": false,
      "stateMutability": "view",
      "type": "function"
    },
    {
      "constant": true,
      "inputs": [],
      "name": "isTransferable",
      "outputs": [
        {
          "name": "",
          "type": "bool"
        }
      ],
      "payable": false,
      "stateMutability": "view",
      "type": "function"
    },
    {
      "constant": true,
      "inputs": [],
      "name": "isApprover",
      "outputs": [
        {
          "name": "",
          "type": "bool"
        }
      ],
      "payable": false,
      "stateMutability": "view",
      "type": "function"
    },
    {
      "constant": false,
      "inputs": [],
      "name": "approvePriceChange",
      "outputs": [],
      "payable": false,
      "stateMutability": "nonpayable",
      "type": "function"
    },
    {
      "constant": true,
      "inputs": [],
      "name": "isToggleTransferablePending",
      "outputs": [
        {
          "name": "",
          "type": "bool"
        }
      ],
      "payable": false,
      "stateMutability": "view",
      "type": "function"
    },
    {
      "constant": false,
      "inputs": [
        {
          "name": "quantity",
          "type": "uint256"
        }
      ],
      "name": "buyToken",
      "outputs": [
        {
          "name": "",
          "type": "bool"
        }
      ],
      "payable": true,
      "stateMutability": "payable",
      "type": "function"
    },
    {
      "constant": true,
      "inputs": [],
      "name": "getTransfers",
      "outputs": [
        {
          "name": "",
          "type": "address[]"
        }
      ],
      "payable": false,
      "stateMutability": "view",
      "type": "function"
    },
    {
      "constant": false,
      "inputs": [
        {
          "name": "_to",
          "type": "address"
        },
        {
          "name": "_quantity",
          "type": "uint32"
        }
      ],
      "name": "adminTransfer",
      "outputs": [],
      "payable": false,
      "stateMutability": "nonpayable",
      "type": "function"
    },
    {
      "constant": true,
      "inputs": [],
      "name": "INITIAL_SUPPLY",
      "outputs": [
        {
          "name": "",
          "type": "uint256"
        }
      ],
      "payable": false,
      "stateMutability": "view",
      "type": "function"
    },
    {
      "constant": true,
      "inputs": [],
      "name": "getTransferableState",
      "outputs": [
        {
          "name": "",
          "type": "bool"
        }
      ],
      "payable": false,
      "stateMutability": "view",
      "type": "function"
    },
    {
      "constant": true,
      "inputs": [],
      "name": "decimals",
      "outputs": [
        {
          "name": "",
          "type": "uint8"
        }
      ],
      "payable": false,
      "stateMutability": "view",
      "type": "function"
    },
    {
      "constant": false,
      "inputs": [
        {
          "name": "newApprover",
          "type": "address"
        }
      ],
      "name": "setApprover",
      "outputs": [],
      "payable": false,
      "stateMutability": "nonpayable",
      "type": "function"
    },
    {
      "constant": false,
      "inputs": [],
      "name": "approveTransferableToggle",
      "outputs": [],
      "payable": false,
      "stateMutability": "nonpayable",
      "type": "function"
    },
    {
      "constant": false,
      "inputs": [
        {
          "name": "approvedTransfer",
          "type": "address"
        }
      ],
      "name": "approveTransfer",
      "outputs": [
        {
          "name": "",
          "type": "bool"
        }
      ],
      "payable": false,
      "stateMutability": "nonpayable",
      "type": "function"
    },
    {
      "constant": true,
      "inputs": [],
      "name": "getPendingPriceChange",
      "outputs": [
        {
          "name": "",
          "type": "uint256"
        }
      ],
      "payable": false,
      "stateMutability": "view",
      "type": "function"
    },
    {
      "constant": false,
      "inputs": [],
      "name": "cancelBurn",
      "outputs": [],
      "payable": false,
      "stateMutability": "nonpayable",
      "type": "function"
    },
    {
      "constant": true,
      "inputs": [
        {
          "name": "_owner",
          "type": "address"
        }
      ],
      "name": "balanceOf",
      "outputs": [
        {
          "name": "balance",
          "type": "uint256"
        }
      ],
      "payable": false,
      "stateMutability": "view",
      "type": "function"
    },
    {
      "constant": false,
      "inputs": [
        {
          "name": "priceChangeInWei",
          "type": "uint256"
        }
      ],
      "name": "requestPriceChange",
      "outputs": [],
      "payable": false,
      "stateMutability": "nonpayable",
      "type": "function"
    },
    {
      "constant": true,
      "inputs": [],
      "name": "owner",
      "outputs": [
        {
          "name": "",
          "type": "address"
        }
      ],
      "payable": false,
      "stateMutability": "view",
      "type": "function"
    },
    {
      "constant": true,
      "inputs": [],
      "name": "isOwner",
      "outputs": [
        {
          "name": "",
          "type": "bool"
        }
      ],
      "payable": false,
      "stateMutability": "view",
      "type": "function"
    },
    {
      "constant": true,
      "inputs": [
        {
          "name": "",
          "type": "uint256"
        }
      ],
      "name": "transfers",
      "outputs": [
        {
          "name": "",
          "type": "address"
        }
      ],
      "payable": false,
      "stateMutability": "view",
      "type": "function"
    },
    {
      "constant": true,
      "inputs": [],
      "name": "symbol",
      "outputs": [
        {
          "name": "",
          "type": "string"
        }
      ],
      "payable": false,
      "stateMutability": "view",
      "type": "function"
    },
    {
      "constant": true,
      "inputs": [],
      "name": "getPrice",
      "outputs": [
        {
          "name": "",
          "type": "uint256"
        }
      ],
      "payable": false,
      "stateMutability": "view",
      "type": "function"
    },
    {
      "constant": false,
      "inputs": [
        {
          "name": "toState",
          "type": "bool"
        }
      ],
      "name": "setTransferable",
      "outputs": [],
      "payable": false,
      "stateMutability": "nonpayable",
      "type": "function"
    },
    {
      "constant": false,
      "inputs": [],
      "name": "approveBurn",
      "outputs": [],
      "payable": false,
      "stateMutability": "nonpayable",
      "type": "function"
    },
    {
      "constant": true,
      "inputs": [],
      "name": "isBurnPending",
      "outputs": [
        {
          "name": "",
          "type": "bool"
        }
      ],
      "payable": false,
      "stateMutability": "view",
      "type": "function"
    },
    {
      "constant": false,
      "inputs": [
        {
          "name": "_to",
          "type": "address"
        },
        {
          "name": "_value",
          "type": "uint256"
        }
      ],
      "name": "transfer",
      "outputs": [
        {
          "name": "",
          "type": "bool"
        }
      ],
      "payable": false,
      "stateMutability": "nonpayable",
      "type": "function"
    },
    {
      "constant": true,
      "inputs": [],
      "name": "getTotalSupply",
      "outputs": [
        {
          "name": "",
          "type": "uint256"
        }
      ],
      "payable": false,
      "stateMutability": "view",
      "type": "function"
    },
    {
      "constant": true,
      "inputs": [],
      "name": "pricePerTokenInWei",
      "outputs": [
        {
          "name": "",
          "type": "uint256"
        }
      ],
      "payable": false,
      "stateMutability": "view",
      "type": "function"
    },
    {
      "constant": false,
      "inputs": [],
      "name": "startBurn",
      "outputs": [],
      "payable": false,
      "stateMutability": "nonpayable",
      "type": "function"
    },
    {
      "constant": false,
      "inputs": [
        {
          "name": "newOwner",
          "type": "address"
        }
      ],
      "name": "transferOwnership",
      "outputs": [],
      "payable": false,
      "stateMutability": "nonpayable",
      "type": "function"
    },
    {
      "inputs": [],
      "payable": false,
      "stateMutability": "nonpayable",
      "type": "constructor"
    },
    {
      "anonymous": false,
      "inputs": [
        {
          "indexed": true,
          "name": "previousOwner",
          "type": "address"
        },
        {
          "indexed": true,
          "name": "newOwner",
          "type": "address"
        }
      ],
      "name": "OwnershipTransferred",
      "type": "event"
    },
    {
      "anonymous": false,
      "inputs": [
        {
          "indexed": true,
          "name": "from",
          "type": "address"
        },
        {
          "indexed": true,
          "name": "to",
          "type": "address"
        },
        {
          "indexed": false,
          "name": "value",
          "type": "uint256"
        }
      ],
      "name": "Transfer",
      "type": "event"
    }
  ],
  "bytecode": "0x60606040526040805190810160405280600881526020017f414258546f6b656e000000000000000000000000000000000000000000000000815250600390805190602001906200005192919062000209565b506040805190810160405280600481526020017f4142585400000000000000000000000000000000000000000000000000000000815250600490805190602001906200009f92919062000209565b506000600560006101000a81548160ff021916908360ff1602179055506000600560016101000a81548173ffffffffffffffffffffffffffffffffffffffff021916908373ffffffffffffffffffffffffffffffffffffffff16021790555067016345785d8a0000600755620f42406008556000600960006101000a81548160ff0219169083151502179055506000600960016101000a81548160ff0219169083151502179055506000600960026101000a81548160ff0219169083151502179055506000600a5534156200017357600080fd5b33600260006101000a81548173ffffffffffffffffffffffffffffffffffffffff021916908373ffffffffffffffffffffffffffffffffffffffff160217905550600854600081905550600854600160003373ffffffffffffffffffffffffffffffffffffffff1673ffffffffffffffffffffffffffffffffffffffff16815260200190815260200160002081905550620002b8565b828054600181600116156101000203166002900490600052602060002090601f016020900481019282601f106200024c57805160ff19168380011785556200027d565b828001600101855582156200027d579182015b828111156200027c5782518255916020019190600101906200025f565b5b5090506200028c919062000290565b5090565b620002b591905b80821115620002b157600081600090555060010162000297565b5090565b90565b61289080620002c86000396000f300606060405260043610620001c3576000357c0100000000000000000000000000000000000000000000000000000000900463ffffffff16806306fdde0314620001c8578063141a8dd8146200025c57806318160ddd14620002b45780632121dc7514620002e0578063238b47ec14620003105780632ad0695e14620003405780632b30b6fa14620003585780632d296bf114620003885780632f65142c14620003ba5780632f8eed9814620004295780632ff2e9dc146200047457806330fe0faa14620004a0578063313ce56714620004d05780633156560e146200050257806340c3b18e146200053e5780634355b9d2146200055657806364e8cbe314620005aa57806369a441ce14620005d657806370a0823114620005ee5780638b037015146200063e5780638da5cb5b14620006645780638f32d59b14620006bc5780639377d71114620006ec57806395d89b41146200075257806398d5fdca14620007e65780639cd237071462000812578063a100447d146200083a578063a8853a841462000852578063a9059cbb1462000882578063c4e41b2214620008df578063df520efc146200090b578063e960662b1462000937578063f2fde38b146200094f575b600080fd5b3415620001d457600080fd5b620001de6200098b565b6040518080602001828103825283818151815260200191508051906020019080838360005b838110156200022057808201518184015260208101905062000203565b50505050905090810190601f1680156200024e5780820380516001836020036101000a031916815260200191505b509250505060405180910390f35b34156200026857600080fd5b6200027262000a2d565b604051808273ffffffffffffffffffffffffffffffffffffffff1673ffffffffffffffffffffffffffffffffffffffff16815260200191505060405180910390f35b3415620002c057600080fd5b620002ca62000a53565b6040518082815260200191505060405180910390f35b3415620002ec57600080fd5b620002f662000a59565b604051808215151515815260200191505060405180910390f35b34156200031c57600080fd5b6200032662000a6c565b604051808215151515815260200191505060405180910390f35b34156200034c57600080fd5b6200035662000ac4565b005b34156200036457600080fd5b6200036e62000b47565b604051808215151515815260200191505060405180910390f35b620003a0600480803590602001909190505062000b5e565b604051808215151515815260200191505060405180910390f35b3415620003c657600080fd5b620003d062000cb9565b6040518080602001828103825283818151815260200191508051906020019060200280838360005b8381101562000415578082015181840152602081019050620003f8565b505050509050019250505060405180910390f35b34156200043557600080fd5b62000472600480803573ffffffffffffffffffffffffffffffffffffffff1690602001909190803563ffffffff1690602001909190505062000d51565b005b34156200048057600080fd5b6200048a62000e88565b6040518082815260200191505060405180910390f35b3415620004ac57600080fd5b620004b662000e8e565b604051808215151515815260200191505060405180910390f35b3415620004dc57600080fd5b620004e662000ea5565b604051808260ff1660ff16815260200191505060405180910390f35b34156200050e57600080fd5b6200053c600480803573ffffffffffffffffffffffffffffffffffffffff1690602001909190505062000eb8565b005b34156200054a57600080fd5b6200055462000fb7565b005b34156200056257600080fd5b62000590600480803573ffffffffffffffffffffffffffffffffffffffff169060200190919050506200107e565b604051808215151515815260200191505060405180910390f35b3415620005b657600080fd5b620005c0620012b2565b6040518082815260200191505060405180910390f35b3415620005e257600080fd5b620005ec620012bc565b005b3415620005fa57600080fd5b62000628600480803573ffffffffffffffffffffffffffffffffffffffff169060200190919050506200138f565b6040518082815260200191505060405180910390f35b34156200064a57600080fd5b620006626004808035906020019091905050620013d8565b005b34156200067057600080fd5b6200067a6200143f565b604051808273ffffffffffffffffffffffffffffffffffffffff1673ffffffffffffffffffffffffffffffffffffffff16815260200191505060405180910390f35b3415620006c857600080fd5b620006d262001465565b604051808215151515815260200191505060405180910390f35b3415620006f857600080fd5b620007106004808035906020019091905050620014bd565b604051808273ffffffffffffffffffffffffffffffffffffffff1673ffffffffffffffffffffffffffffffffffffffff16815260200191505060405180910390f35b34156200075e57600080fd5b62000768620014fd565b6040518080602001828103825283818151815260200191508051906020019080838360005b83811015620007aa5780820151818401526020810190506200078d565b50505050905090810190601f168015620007d85780820380516001836020036101000a031916815260200191505b509250505060405180910390f35b3415620007f257600080fd5b620007fc6200159f565b6040518082815260200191505060405180910390f35b34156200081e57600080fd5b6200083860048080351515906020019091905050620015a9565b005b34156200084657600080fd5b6200085062001647565b005b34156200085e57600080fd5b6200086862001745565b604051808215151515815260200191505060405180910390f35b34156200088e57600080fd5b620008c5600480803573ffffffffffffffffffffffffffffffffffffffff169060200190919080359060200190919050506200175c565b604051808215151515815260200191505060405180910390f35b3415620008eb57600080fd5b620008f5620017f4565b6040518082815260200191505060405180910390f35b34156200091757600080fd5b62000921620017fd565b6040518082815260200191505060405180910390f35b34156200094357600080fd5b6200094d62001803565b005b34156200095b57600080fd5b62000989600480803573ffffffffffffffffffffffffffffffffffffffff169060200190919050506200187d565b005b60038054600181600116156101000203166002900480601f01602080910402602001604051908101604052809291908181526020018280546001816001161561010002031660029004801562000a255780601f10620009f95761010080835404028352916020019162000a25565b820191906000526020600020905b81548152906001019060200180831162000a0757829003601f168201915b505050505081565b600560019054906101000a900473ffffffffffffffffffffffffffffffffffffffff1681565b60005481565b600960009054906101000a900460ff1681565b60003373ffffffffffffffffffffffffffffffffffffffff16600560019054906101000a900473ffffffffffffffffffffffffffffffffffffffff1673ffffffffffffffffffffffffffffffffffffffff1614905090565b600560019054906101000a900473ffffffffffffffffffffffffffffffffffffffff1673ffffffffffffffffffffffffffffffffffffffff163373ffffffffffffffffffffffffffffffffffffffff1614151562000b2157600080fd5b6000600a541415151562000b3457600080fd5b600a546007819055506000600a81905550565b6000600960029054906101000a900460ff16905090565b6000600260009054906101000a900473ffffffffffffffffffffffffffffffffffffffff1673ffffffffffffffffffffffffffffffffffffffff163373ffffffffffffffffffffffffffffffffffffffff161415151562000bbe57600080fd5b600560019054906101000a900473ffffffffffffffffffffffffffffffffffffffff1673ffffffffffffffffffffffffffffffffffffffff163373ffffffffffffffffffffffffffffffffffffffff161415151562000c1c57600080fd5b600260009054906101000a900473ffffffffffffffffffffffffffffffffffffffff1673ffffffffffffffffffffffffffffffffffffffff166108fc60075484029081150290604051600060405180830381858888f19350505050151562000c8357600080fd5b62000cb233600260009054906101000a900473ffffffffffffffffffffffffffffffffffffffff1684620019d7565b9050919050565b62000cc362001d9c565b600680548060200260200160405190810160405280929190818152602001828054801562000d4757602002820191906000526020600020905b8160009054906101000a900473ffffffffffffffffffffffffffffffffffffffff1673ffffffffffffffffffffffffffffffffffffffff168152602001906001019080831162000cfc575b5050505050905090565b6000600260009054906101000a900473ffffffffffffffffffffffffffffffffffffffff1673ffffffffffffffffffffffffffffffffffffffff163373ffffffffffffffffffffffffffffffffffffffff1614151562000db057600080fd5b818362000dbc62001db0565b808363ffffffff1663ffffffff1681526020018273ffffffffffffffffffffffffffffffffffffffff1673ffffffffffffffffffffffffffffffffffffffff16815260200192505050604051809103906000f080151562000e1c57600080fd5b90506006805480600101828162000e34919062001dc1565b9160005260206000209001600083909190916101000a81548173ffffffffffffffffffffffffffffffffffffffff021916908373ffffffffffffffffffffffffffffffffffffffff16021790555050505050565b60085481565b6000600960009054906101000a900460ff16905090565b600560009054906101000a900460ff1681565b600260009054906101000a900473ffffffffffffffffffffffffffffffffffffffff1673ffffffffffffffffffffffffffffffffffffffff163373ffffffffffffffffffffffffffffffffffffffff1614151562000f1557600080fd5b600073ffffffffffffffffffffffffffffffffffffffff16600560019054906101000a900473ffffffffffffffffffffffffffffffffffffffff1673ffffffffffffffffffffffffffffffffffffffff1614151562000f7357600080fd5b80600560016101000a81548173ffffffffffffffffffffffffffffffffffffffff021916908373ffffffffffffffffffffffffffffffffffffffff16021790555050565b600560019054906101000a900473ffffffffffffffffffffffffffffffffffffffff1673ffffffffffffffffffffffffffffffffffffffff163373ffffffffffffffffffffffffffffffffffffffff161415156200101457600080fd5b60011515600960029054906101000a900460ff1615151415156200103757600080fd5b600960009054906101000a900460ff1615600960006101000a81548160ff0219169083151502179055506000600960026101000a81548160ff021916908315150217905550565b600080600080600560019054906101000a900473ffffffffffffffffffffffffffffffffffffffff1673ffffffffffffffffffffffffffffffffffffffff163373ffffffffffffffffffffffffffffffffffffffff16141515620010e157600080fd5b8492508273ffffffffffffffffffffffffffffffffffffffff16630115949c6000604051602001526040518163ffffffff167c0100000000000000000000000000000000000000000000000000000000028152600401602060405180830381600087803b15156200115157600080fd5b6102c65a03f115156200116357600080fd5b5050506040518051905091508273ffffffffffffffffffffffffffffffffffffffff16636f338a226000604051602001526040518163ffffffff167c0100000000000000000000000000000000000000000000000000000000028152600401602060405180830381600087803b1515620011dc57600080fd5b6102c65a03f11515620011ee57600080fd5b5050506040518051905090508273ffffffffffffffffffffffffffffffffffffffff16632a8d26e86040518163ffffffff167c0100000000000000000000000000000000000000000000000000000000028152600401600060405180830381600087803b15156200125e57600080fd5b6102c65a03f115156200127057600080fd5b505050620012a881600260009054906101000a900473ffffffffffffffffffffffffffffffffffffffff168463ffffffff16620019d7565b9350505050919050565b6000600a54905090565b600260009054906101000a900473ffffffffffffffffffffffffffffffffffffffff1673ffffffffffffffffffffffffffffffffffffffff163373ffffffffffffffffffffffffffffffffffffffff161480620013665750600560019054906101000a900473ffffffffffffffffffffffffffffffffffffffff1673ffffffffffffffffffffffffffffffffffffffff163373ffffffffffffffffffffffffffffffffffffffff16145b15156200137257600080fd5b6000600960016101000a81548160ff021916908315150217905550565b6000600160008373ffffffffffffffffffffffffffffffffffffffff1673ffffffffffffffffffffffffffffffffffffffff168152602001908152602001600020549050919050565b600260009054906101000a900473ffffffffffffffffffffffffffffffffffffffff1673ffffffffffffffffffffffffffffffffffffffff163373ffffffffffffffffffffffffffffffffffffffff161415156200143557600080fd5b80600a8190555050565b600260009054906101000a900473ffffffffffffffffffffffffffffffffffffffff1681565b60003373ffffffffffffffffffffffffffffffffffffffff16600260009054906101000a900473ffffffffffffffffffffffffffffffffffffffff1673ffffffffffffffffffffffffffffffffffffffff1614905090565b600681815481101515620014cd57fe5b90600052602060002090016000915054906101000a900473ffffffffffffffffffffffffffffffffffffffff1681565b60048054600181600116156101000203166002900480601f016020809104026020016040519081016040528092919081815260200182805460018160011615610100020316600290048015620015975780601f106200156b5761010080835404028352916020019162001597565b820191906000526020600020905b8154815290600101906020018083116200157957829003601f168201915b505050505081565b6000600754905090565b600260009054906101000a900473ffffffffffffffffffffffffffffffffffffffff1673ffffffffffffffffffffffffffffffffffffffff163373ffffffffffffffffffffffffffffffffffffffff161415156200160657600080fd5b801515600960009054906101000a900460ff161515141515156200162957600080fd5b6001600960026101000a81548160ff02191690831515021790555050565b600560019054906101000a900473ffffffffffffffffffffffffffffffffffffffff1673ffffffffffffffffffffffffffffffffffffffff163373ffffffffffffffffffffffffffffffffffffffff16141515620016a457600080fd5b600060016000600260009054906101000a900473ffffffffffffffffffffffffffffffffffffffff1673ffffffffffffffffffffffffffffffffffffffff1673ffffffffffffffffffffffffffffffffffffffff16815260200190815260200160002054141515156200171657600080fd5b60011515600960019054906101000a900460ff1615151415156200173957600080fd5b6200174362001c02565b565b6000600960019054906101000a900460ff16905090565b600060011515600960009054906101000a900460ff1615151415156200178157600080fd5b600260009054906101000a900473ffffffffffffffffffffffffffffffffffffffff1673ffffffffffffffffffffffffffffffffffffffff163373ffffffffffffffffffffffffffffffffffffffff1614151515620017df57600080fd5b620017ec833384620019d7565b905092915050565b60008054905090565b60075481565b600260009054906101000a900473ffffffffffffffffffffffffffffffffffffffff1673ffffffffffffffffffffffffffffffffffffffff163373ffffffffffffffffffffffffffffffffffffffff161415156200186057600080fd5b6001600960016101000a81548160ff021916908315150217905550565b600260009054906101000a900473ffffffffffffffffffffffffffffffffffffffff1673ffffffffffffffffffffffffffffffffffffffff163373ffffffffffffffffffffffffffffffffffffffff16141515620018da57600080fd5b600073ffffffffffffffffffffffffffffffffffffffff168173ffffffffffffffffffffffffffffffffffffffff16141515156200191757600080fd5b8073ffffffffffffffffffffffffffffffffffffffff16600260009054906101000a900473ffffffffffffffffffffffffffffffffffffffff1673ffffffffffffffffffffffffffffffffffffffff167f8be0079c531659141344cd1fd0a4f28419497f9722a3daafe3b4186f6b6457e060405160405180910390a380600260006101000a81548173ffffffffffffffffffffffffffffffffffffffff021916908373ffffffffffffffffffffffffffffffffffffffff16021790555050565b60008073ffffffffffffffffffffffffffffffffffffffff168473ffffffffffffffffffffffffffffffffffffffff161415151562001a1557600080fd5b600160008473ffffffffffffffffffffffffffffffffffffffff1673ffffffffffffffffffffffffffffffffffffffff16815260200190815260200160002054821115151562001a6457600080fd5b62001ab882600160008673ffffffffffffffffffffffffffffffffffffffff1673ffffffffffffffffffffffffffffffffffffffff1681526020019081526020016000205462001d6390919063ffffffff16565b600160008573ffffffffffffffffffffffffffffffffffffffff1673ffffffffffffffffffffffffffffffffffffffff1681526020019081526020016000208190555062001b4f82600160008773ffffffffffffffffffffffffffffffffffffffff1673ffffffffffffffffffffffffffffffffffffffff1681526020019081526020016000205462001d7d90919063ffffffff16565b600160008673ffffffffffffffffffffffffffffffffffffffff1673ffffffffffffffffffffffffffffffffffffffff168152602001908152602001600020819055508373ffffffffffffffffffffffffffffffffffffffff168373ffffffffffffffffffffffffffffffffffffffff167fddf252ad1be2c89b69c2b068fc378daa952ba7f163c4a11628f55a4df523b3ef846040518082815260200191505060405180910390a3600190509392505050565b600060016000600260009054906101000a900473ffffffffffffffffffffffffffffffffffffffff1673ffffffffffffffffffffffffffffffffffffffff1673ffffffffffffffffffffffffffffffffffffffff16815260200190815260200160002054905062001cde8160016000600260009054906101000a900473ffffffffffffffffffffffffffffffffffffffff1673ffffffffffffffffffffffffffffffffffffffff1673ffffffffffffffffffffffffffffffffffffffff1681526020019081526020016000205462001d6390919063ffffffff16565b60016000600260009054906101000a900473ffffffffffffffffffffffffffffffffffffffff1673ffffffffffffffffffffffffffffffffffffffff1673ffffffffffffffffffffffffffffffffffffffff1681526020019081526020016000208190555062001d5a8160005462001d6390919063ffffffff16565b60008190555050565b600082821115151562001d7257fe5b818303905092915050565b600080828401905083811015151562001d9257fe5b8091505092915050565b602060405190810160405280600081525090565b604051610a4c8062001e1983390190565b81548183558181151162001deb5781836000526020600020918201910162001dea919062001df0565b5b505050565b62001e1591905b8082111562001e1157600081600090555060010162001df7565b5090565b90560060606040526040805190810160405280601081526020017f4d756c74695369675472616e73666572000000000000000000000000000000008152506001908051906020019061004f929190610190565b506040805190810160405280600381526020017f4d535400000000000000000000000000000000000000000000000000000000008152506002908051906020019061009b929190610190565b506000600360006101000a81548160ff02191690831515021790555034156100c257600080fd5b604051604080610a4c83398101604052808051906020019091908051906020019091905050336000806101000a81548173ffffffffffffffffffffffffffffffffffffffff021916908373ffffffffffffffffffffffffffffffffffffffff16021790555081600360016101000a81548163ffffffff021916908363ffffffff16021790555080600360056101000a81548173ffffffffffffffffffffffffffffffffffffffff021916908373ffffffffffffffffffffffffffffffffffffffff1602179055505050610235565b828054600181600116156101000203166002900490600052602060002090601f016020900481019282601f106101d157805160ff19168380011785556101ff565b828001600101855582156101ff579182015b828111156101fe5782518255916020019190600101906101e3565b5b50905061020c9190610210565b5090565b61023291905b8082111561022e576000816000905550600101610216565b5090565b90565b610808806102446000396000f3006060604052600436106100af576000357c0100000000000000000000000000000000000000000000000000000000900463ffffffff1680630115949c146100b457806306fdde03146100e957806317fc45e2146101775780632a8d26e8146101ac5780635210eb56146101c1578063522e1177146102165780636f338a22146102435780638da5cb5b1461029857806395d89b41146102ed5780639c30ad7e1461037b578063f2fde38b146103a8575b600080fd5b34156100bf57600080fd5b6100c76103e1565b604051808263ffffffff1663ffffffff16815260200191505060405180910390f35b34156100f457600080fd5b6100fc6103fb565b6040518080602001828103825283818151815260200191508051906020019080838360005b8381101561013c578082015181840152602081019050610121565b50505050905090810190601f1680156101695780820380516001836020036101000a031916815260200191505b509250505060405180910390f35b341561018257600080fd5b61018a610499565b604051808263ffffffff1663ffffffff16815260200191505060405180910390f35b34156101b757600080fd5b6101bf6104af565b005b34156101cc57600080fd5b6101d4610549565b604051808273ffffffffffffffffffffffffffffffffffffffff1673ffffffffffffffffffffffffffffffffffffffff16815260200191505060405180910390f35b341561022157600080fd5b61022961056f565b604051808215151515815260200191505060405180910390f35b341561024e57600080fd5b610256610582565b604051808273ffffffffffffffffffffffffffffffffffffffff1673ffffffffffffffffffffffffffffffffffffffff16815260200191505060405180910390f35b34156102a357600080fd5b6102ab6105ac565b604051808273ffffffffffffffffffffffffffffffffffffffff1673ffffffffffffffffffffffffffffffffffffffff16815260200191505060405180910390f35b34156102f857600080fd5b6103006105d1565b6040518080602001828103825283818151815260200191508051906020019080838360005b83811015610340578082015181840152602081019050610325565b50505050905090810190601f16801561036d5780820380516001836020036101000a031916815260200191505b509250505060405180910390f35b341561038657600080fd5b61038e61066f565b604051808215151515815260200191505060405180910390f35b34156103b357600080fd5b6103df600480803573ffffffffffffffffffffffffffffffffffffffff16906020019091905050610687565b005b6000600360019054906101000a900463ffffffff16905090565b60018054600181600116156101000203166002900480601f0160208091040260200160405190810160405280929190818152602001828054600181600116156101000203166002900480156104915780601f1061046657610100808354040283529160200191610491565b820191906000526020600020905b81548152906001019060200180831161047457829003601f168201915b505050505081565b600360019054906101000a900463ffffffff1681565b6000809054906101000a900473ffffffffffffffffffffffffffffffffffffffff1673ffffffffffffffffffffffffffffffffffffffff163373ffffffffffffffffffffffffffffffffffffffff1614151561050a57600080fd5b60001515600360009054906101000a900460ff16151514151561052c57600080fd5b6001600360006101000a81548160ff021916908315150217905550565b600360059054906101000a900473ffffffffffffffffffffffffffffffffffffffff1681565b600360009054906101000a900460ff1681565b6000600360059054906101000a900473ffffffffffffffffffffffffffffffffffffffff16905090565b6000809054906101000a900473ffffffffffffffffffffffffffffffffffffffff1681565b60028054600181600116156101000203166002900480601f0160208091040260200160405190810160405280929190818152602001828054600181600116156101000203166002900480156106675780601f1061063c57610100808354040283529160200191610667565b820191906000526020600020905b81548152906001019060200180831161064a57829003601f168201915b505050505081565b6000600360009054906101000a900460ff1615905090565b6000809054906101000a900473ffffffffffffffffffffffffffffffffffffffff1673ffffffffffffffffffffffffffffffffffffffff163373ffffffffffffffffffffffffffffffffffffffff161415156106e257600080fd5b600073ffffffffffffffffffffffffffffffffffffffff168173ffffffffffffffffffffffffffffffffffffffff161415151561071e57600080fd5b8073ffffffffffffffffffffffffffffffffffffffff166000809054906101000a900473ffffffffffffffffffffffffffffffffffffffff1673ffffffffffffffffffffffffffffffffffffffff167f8be0079c531659141344cd1fd0a4f28419497f9722a3daafe3b4186f6b6457e060405160405180910390a3806000806101000a81548173ffffffffffffffffffffffffffffffffffffffff021916908373ffffffffffffffffffffffffffffffffffffffff160217905550505600a165627a7a72305820871e1721cf0d3bdd9d3119edf185fab3707566bf7f7a252a8ddb09acbc6d79520029a165627a7a72305820b6c4343e454d1d3e8a6523d190edb5ca7901a3971f0b2b8eb6c0336a65916cc90029",
  "source": "pragma solidity ^0.4.17;\n\nimport \"zeppelin-solidity/contracts/token/StandardToken.sol\";\nimport \"zeppelin-solidity/contracts/ownership/Ownable.sol\";\nimport \"./MultiSigTransfer.sol\";\n\ncontract AbxToken is BasicToken, Ownable {\n  string public name = \"ABXToken\";\n  string public symbol = \"ABXT\";\n  uint8 public decimals = 0;\n  address public approver = address(0);\n  address[] public transfers;\n\n\t/* This is 0.1 ETH */\n  uint256 public pricePerTokenInWei = 100000000000000000;\n\n  uint public INITIAL_SUPPLY = 1000000;\n  bool public isTransferable = false;\n\n  bool burnIsPending = false;\n  bool toggleTransferablePending = false;\n\n  function AbxToken() public {\n    totalSupply = INITIAL_SUPPLY;\n    balances[msg.sender] = INITIAL_SUPPLY;\n  }\n\n  /* Multi-Signature on Transferable state */\n  function getTransferableState() public view returns (bool) {\n    return isTransferable;\n  }\n\n  function isToggleTransferablePending() public view returns (bool) {\n    return toggleTransferablePending;\n  }\n\n  function setTransferable(bool toState) public onlyOwner {\n    require(isTransferable != toState);\n    toggleTransferablePending = true;\n  }\n\n  function approveTransferableToggle() public {\n    require(msg.sender == approver);\n    require(toggleTransferablePending == true);\n    isTransferable = !isTransferable;\n    toggleTransferablePending = false;\n  }\n\n  /* Multi-Signature on Price Changes */\n  uint256 pendingPriceChange = 0;\n\n  function getPendingPriceChange() public view returns (uint256) {\n    return pendingPriceChange;\n  }\n\n  function requestPriceChange(uint priceChangeInWei) public onlyOwner {\n    pendingPriceChange = priceChangeInWei;\n  }\n\n  function approvePriceChange() public {\n    require(msg.sender == approver);\n    require(pendingPriceChange != 0);\n    pricePerTokenInWei = pendingPriceChange;\n    pendingPriceChange = 0;\n  }\n\n  /**\n  * @dev transfer token for a specified address\n  * @param _to The address to transfer to.\n  * @param _value The amount to be transferred.\n  */\n  function _transfer(address _to, address _from, uint256 _value) private returns (bool) {\n    require(_to != address(0));\n    require(_value <= balances[_from]);\n\n    // SafeMath.sub will throw if there is not enough balance.\n    balances[_from] = balances[_from].sub(_value);\n    balances[_to] = balances[_to].add(_value);\n    Transfer(_from, _to, _value);\n    return true;\n  }\n\n  function transfer(address _to, uint256 _value) public returns (bool) {\n    require(isTransferable == true);\n    require(msg.sender != owner);\n    return _transfer(_to, msg.sender, _value);\n  }\n\n  function adminTransfer(address _to, uint32 _quantity) public onlyOwner {\n    MultiSigTransfer newTransfer = new MultiSigTransfer(_quantity, _to);\n    transfers.push(newTransfer);\n    // return address(newTransfer);\n  }\n\n  function approveTransfer(address approvedTransfer) public returns (bool) {\n    require(msg.sender == approver);\n    MultiSigTransfer transferToApprove = MultiSigTransfer(approvedTransfer);\n    uint32 transferQuantity = transferToApprove.getQuantity();\n    address deliveryAddress = transferToApprove.getTargetAddress();\n    transferToApprove.approveTransfer();\n    return _transfer(deliveryAddress, owner, transferQuantity);\n  }\n\n  /* This is a payable copy of the above function that, when the correct eth is provided, moves tokens from\n  the owner, to the buyer */\n  function buyToken(uint256 quantity) public payable returns (bool) {\n    require(msg.sender != owner);\n    require(msg.sender != approver);\n\n    /* Transfer the set wei to abx, then we give the user their token */\n    owner.transfer(quantity * pricePerTokenInWei);\n\n    return _transfer(msg.sender, owner, quantity);\n  }\n\n  /* Multi sig for burning unsold tokens */\n  function burnUnsoldTokens() internal {\n    uint256 unsoldTokens = balances[owner];\n    balances[owner] = balances[owner].sub(unsoldTokens);\n    totalSupply = totalSupply.sub(unsoldTokens);\n  }\n\n  function startBurn() public onlyOwner {\n    burnIsPending = true;\n  }\n\n  function cancelBurn() public {\n    require(msg.sender == owner || msg.sender == approver);\n    burnIsPending = false;\n  }\n\n  function isBurnPending() public view returns (bool) {\n    return burnIsPending;\n  }\n\n  function approveBurn() public {\n    require(msg.sender == approver);\n    require(balances[owner] != 0);\n    require(burnIsPending == true);\n    burnUnsoldTokens();\n  }\n\n  /* balanceOf is already implemented. So we just need a getTotalSupply() so we can show users the percentage they own */\n\tfunction getTotalSupply() public view returns (uint256) {\n\t\treturn totalSupply;\n\t}\n\n\tfunction getPrice() public view returns (uint256) {\n\t\treturn pricePerTokenInWei;\n\t}\n\n  /* We will use this check to determine if the person viewing the page is the owner of the smart contract */\n\tfunction isOwner() public view returns (bool) {\n\t\treturn owner == msg.sender;\n\t}\n\n  function setApprover(address newApprover) public onlyOwner {\n    require(approver == address(0));\n    approver = newApprover;\n  } \n\n  function isApprover() public view returns (bool) {\n    return approver == msg.sender;\n  }\n\n  function getTransfers() public view returns (address[]) {\n    return transfers;\n  }\n}\n",
  "sourcePath": "/home/sam/Projects/kinesis-promo/contracts/AbxToken.sol",
  "compiler": {
    "name": "solc",
    "version": "0.4.18+commit.9cf6e910.Emscripten.clang"
  },
  "schemaVersion": "1.0.1",
  "updatedAt": "2018-01-30T04:10:44.568Z"
}