{
  "contractName": "AbxToken",
  "abi": [
    {
      "constant": true,
      "inputs": [],
      "name": "name",
      "outputs": [
        {
          "name": "",
          "type": "string"
        }
      ],
      "payable": false,
      "stateMutability": "view",
      "type": "function"
    },
    {
      "constant": true,
      "inputs": [],
      "name": "approver",
      "outputs": [
        {
          "name": "",
          "type": "address"
        }
      ],
      "payable": false,
      "stateMutability": "view",
      "type": "function"
    },
    {
      "constant": true,
      "inputs": [],
      "name": "totalSupply",
      "outputs": [
        {
          "name": "",
          "type": "uint256"
        }
      ],
      "payable": false,
      "stateMutability": "view",
      "type": "function"
    },
    {
      "constant": true,
      "inputs": [],
      "name": "isTransferable",
      "outputs": [
        {
          "name": "",
          "type": "bool"
        }
      ],
      "payable": false,
      "stateMutability": "view",
      "type": "function"
    },
    {
      "constant": true,
      "inputs": [],
      "name": "isApprover",
      "outputs": [
        {
          "name": "",
          "type": "bool"
        }
      ],
      "payable": false,
      "stateMutability": "view",
      "type": "function"
    },
    {
      "constant": false,
      "inputs": [
        {
          "name": "quantity",
          "type": "uint256"
        }
      ],
      "name": "buyToken",
      "outputs": [
        {
          "name": "",
          "type": "bool"
        }
      ],
      "payable": true,
      "stateMutability": "payable",
      "type": "function"
    },
    {
      "constant": true,
      "inputs": [],
      "name": "getTransfers",
      "outputs": [
        {
          "name": "",
          "type": "address[]"
        }
      ],
      "payable": false,
      "stateMutability": "view",
      "type": "function"
    },
    {
      "constant": false,
      "inputs": [
        {
          "name": "_to",
          "type": "address"
        },
        {
          "name": "_quantity",
          "type": "uint32"
        }
      ],
      "name": "adminTransfer",
      "outputs": [],
      "payable": false,
      "stateMutability": "nonpayable",
      "type": "function"
    },
    {
      "constant": true,
      "inputs": [],
      "name": "INITIAL_SUPPLY",
      "outputs": [
        {
          "name": "",
          "type": "uint256"
        }
      ],
      "payable": false,
      "stateMutability": "view",
      "type": "function"
    },
    {
      "constant": true,
      "inputs": [],
      "name": "decimals",
      "outputs": [
        {
          "name": "",
          "type": "uint8"
        }
      ],
      "payable": false,
      "stateMutability": "view",
      "type": "function"
    },
    {
      "constant": false,
      "inputs": [
        {
          "name": "newApprover",
          "type": "address"
        }
      ],
      "name": "setApprover",
      "outputs": [],
      "payable": false,
      "stateMutability": "nonpayable",
      "type": "function"
    },
    {
      "constant": false,
      "inputs": [],
      "name": "disableTransfers",
      "outputs": [],
      "payable": false,
      "stateMutability": "nonpayable",
      "type": "function"
    },
    {
      "constant": false,
      "inputs": [
        {
          "name": "approvedTransfer",
          "type": "address"
        }
      ],
      "name": "approveTransfer",
      "outputs": [
        {
          "name": "",
          "type": "bool"
        }
      ],
      "payable": false,
      "stateMutability": "nonpayable",
      "type": "function"
    },
    {
      "constant": false,
      "inputs": [],
      "name": "makeTransferable",
      "outputs": [],
      "payable": false,
      "stateMutability": "nonpayable",
      "type": "function"
    },
    {
      "constant": true,
      "inputs": [
        {
          "name": "_owner",
          "type": "address"
        }
      ],
      "name": "balanceOf",
      "outputs": [
        {
          "name": "balance",
          "type": "uint256"
        }
      ],
      "payable": false,
      "stateMutability": "view",
      "type": "function"
    },
    {
      "constant": false,
      "inputs": [
        {
          "name": "tokenPrice",
          "type": "uint256"
        }
      ],
      "name": "setPriceInWei",
      "outputs": [],
      "payable": false,
      "stateMutability": "nonpayable",
      "type": "function"
    },
    {
      "constant": true,
      "inputs": [],
      "name": "owner",
      "outputs": [
        {
          "name": "",
          "type": "address"
        }
      ],
      "payable": false,
      "stateMutability": "view",
      "type": "function"
    },
    {
      "constant": true,
      "inputs": [],
      "name": "isOwner",
      "outputs": [
        {
          "name": "",
          "type": "bool"
        }
      ],
      "payable": false,
      "stateMutability": "view",
      "type": "function"
    },
    {
      "constant": true,
      "inputs": [
        {
          "name": "",
          "type": "uint256"
        }
      ],
      "name": "transfers",
      "outputs": [
        {
          "name": "",
          "type": "address"
        }
      ],
      "payable": false,
      "stateMutability": "view",
      "type": "function"
    },
    {
      "constant": true,
      "inputs": [],
      "name": "symbol",
      "outputs": [
        {
          "name": "",
          "type": "string"
        }
      ],
      "payable": false,
      "stateMutability": "view",
      "type": "function"
    },
    {
      "constant": true,
      "inputs": [],
      "name": "getPrice",
      "outputs": [
        {
          "name": "",
          "type": "uint256"
        }
      ],
      "payable": false,
      "stateMutability": "view",
      "type": "function"
    },
    {
      "constant": false,
      "inputs": [
        {
          "name": "_to",
          "type": "address"
        },
        {
          "name": "_value",
          "type": "uint256"
        }
      ],
      "name": "transfer",
      "outputs": [
        {
          "name": "",
          "type": "bool"
        }
      ],
      "payable": false,
      "stateMutability": "nonpayable",
      "type": "function"
    },
    {
      "constant": true,
      "inputs": [],
      "name": "getTotalSupply",
      "outputs": [
        {
          "name": "",
          "type": "uint256"
        }
      ],
      "payable": false,
      "stateMutability": "view",
      "type": "function"
    },
    {
      "constant": true,
      "inputs": [],
      "name": "pricePerTokenInWei",
      "outputs": [
        {
          "name": "",
          "type": "uint256"
        }
      ],
      "payable": false,
      "stateMutability": "view",
      "type": "function"
    },
    {
      "constant": false,
      "inputs": [
        {
          "name": "newOwner",
          "type": "address"
        }
      ],
      "name": "transferOwnership",
      "outputs": [],
      "payable": false,
      "stateMutability": "nonpayable",
      "type": "function"
    },
    {
      "inputs": [],
      "payable": false,
      "stateMutability": "nonpayable",
      "type": "constructor"
    },
    {
      "anonymous": false,
      "inputs": [
        {
          "indexed": true,
          "name": "previousOwner",
          "type": "address"
        },
        {
          "indexed": true,
          "name": "newOwner",
          "type": "address"
        }
      ],
      "name": "OwnershipTransferred",
      "type": "event"
    },
    {
      "anonymous": false,
      "inputs": [
        {
          "indexed": true,
          "name": "from",
          "type": "address"
        },
        {
          "indexed": true,
          "name": "to",
          "type": "address"
        },
        {
          "indexed": false,
          "name": "value",
          "type": "uint256"
        }
      ],
      "name": "Transfer",
      "type": "event"
    }
  ],
  "bytecode": "0x60606040526040805190810160405280600881526020017f414258546f6b656e0000000000000000000000000000000000000000000000008152506003908051906020019062000051929190620001ce565b506040805190810160405280600481526020017f4142585400000000000000000000000000000000000000000000000000000000815250600490805190602001906200009f929190620001ce565b506000600560006101000a81548160ff021916908360ff1602179055506000600560016101000a81548173ffffffffffffffffffffffffffffffffffffffff021916908373ffffffffffffffffffffffffffffffffffffffff16021790555067016345785d8a0000600755620f42406008556000600960006101000a81548160ff02191690831515021790555034156200013857600080fd5b33600260006101000a81548173ffffffffffffffffffffffffffffffffffffffff021916908373ffffffffffffffffffffffffffffffffffffffff160217905550600854600081905550600854600160003373ffffffffffffffffffffffffffffffffffffffff1673ffffffffffffffffffffffffffffffffffffffff168152602001908152602001600020819055506200027d565b828054600181600116156101000203166002900490600052602060002090601f016020900481019282601f106200021157805160ff191683800117855562000242565b8280016001018555821562000242579182015b828111156200024157825182559160200191906001019062000224565b5b50905062000251919062000255565b5090565b6200027a91905b80821115620002765760008160009055506001016200025c565b5090565b90565b612215806200028d6000396000f30060606040526004361062000163576000357c0100000000000000000000000000000000000000000000000000000000900463ffffffff16806306fdde031462000168578063141a8dd814620001fc57806318160ddd14620002545780632121dc751462000280578063238b47ec14620002b05780632d296bf114620002e05780632f65142c14620003125780632f8eed9814620003815780632ff2e9dc14620003cc578063313ce56714620003f85780633156560e146200042a5780633a67a0f614620004665780634355b9d2146200047e578063696fd68c14620004d257806370a0823114620004ea5780638774e5d0146200053a5780638da5cb5b14620005605780638f32d59b14620005b85780639377d71114620005e857806395d89b41146200064e57806398d5fdca14620006e2578063a9059cbb146200070e578063c4e41b22146200076b578063df520efc1462000797578063f2fde38b14620007c3575b600080fd5b34156200017457600080fd5b6200017e620007ff565b6040518080602001828103825283818151815260200191508051906020019080838360005b83811015620001c0578082015181840152602081019050620001a3565b50505050905090810190601f168015620001ee5780820380516001836020036101000a031916815260200191505b509250505060405180910390f35b34156200020857600080fd5b62000212620008a1565b604051808273ffffffffffffffffffffffffffffffffffffffff1673ffffffffffffffffffffffffffffffffffffffff16815260200191505060405180910390f35b34156200026057600080fd5b6200026a620008c7565b6040518082815260200191505060405180910390f35b34156200028c57600080fd5b62000296620008cd565b604051808215151515815260200191505060405180910390f35b3415620002bc57600080fd5b620002c6620008e0565b604051808215151515815260200191505060405180910390f35b620002f8600480803590602001909190505062000938565b604051808215151515815260200191505060405180910390f35b34156200031e57600080fd5b6200032862000a93565b6040518080602001828103825283818151815260200191508051906020019060200280838360005b838110156200036d57808201518184015260208101905062000350565b505050509050019250505060405180910390f35b34156200038d57600080fd5b620003ca600480803573ffffffffffffffffffffffffffffffffffffffff1690602001909190803563ffffffff1690602001909190505062000b2b565b005b3415620003d857600080fd5b620003e262000c62565b6040518082815260200191505060405180910390f35b34156200040457600080fd5b6200040e62000c68565b604051808260ff1660ff16815260200191505060405180910390f35b34156200043657600080fd5b62000464600480803573ffffffffffffffffffffffffffffffffffffffff1690602001909190505062000c7b565b005b34156200047257600080fd5b6200047c62000d7a565b005b34156200048a57600080fd5b620004b8600480803573ffffffffffffffffffffffffffffffffffffffff1690602001909190505062000df4565b604051808215151515815260200191505060405180910390f35b3415620004de57600080fd5b620004e862001028565b005b3415620004f657600080fd5b62000524600480803573ffffffffffffffffffffffffffffffffffffffff16906020019091905050620010a2565b6040518082815260200191505060405180910390f35b34156200054657600080fd5b6200055e6004808035906020019091905050620010eb565b005b34156200056c57600080fd5b6200057662001152565b604051808273ffffffffffffffffffffffffffffffffffffffff1673ffffffffffffffffffffffffffffffffffffffff16815260200191505060405180910390f35b3415620005c457600080fd5b620005ce62001178565b604051808215151515815260200191505060405180910390f35b3415620005f457600080fd5b6200060c6004808035906020019091905050620011d0565b604051808273ffffffffffffffffffffffffffffffffffffffff1673ffffffffffffffffffffffffffffffffffffffff16815260200191505060405180910390f35b34156200065a57600080fd5b6200066462001210565b6040518080602001828103825283818151815260200191508051906020019080838360005b83811015620006a657808201518184015260208101905062000689565b50505050905090810190601f168015620006d45780820380516001836020036101000a031916815260200191505b509250505060405180910390f35b3415620006ee57600080fd5b620006f8620012b2565b6040518082815260200191505060405180910390f35b34156200071a57600080fd5b62000751600480803573ffffffffffffffffffffffffffffffffffffffff16906020019091908035906020019091905050620012bc565b604051808215151515815260200191505060405180910390f35b34156200077757600080fd5b6200078162001354565b6040518082815260200191505060405180910390f35b3415620007a357600080fd5b620007ad6200135d565b6040518082815260200191505060405180910390f35b3415620007cf57600080fd5b620007fd600480803573ffffffffffffffffffffffffffffffffffffffff1690602001909190505062001363565b005b60038054600181600116156101000203166002900480601f016020809104026020016040519081016040528092919081815260200182805460018160011615610100020316600290048015620008995780601f106200086d5761010080835404028352916020019162000899565b820191906000526020600020905b8154815290600101906020018083116200087b57829003601f168201915b505050505081565b600560019054906101000a900473ffffffffffffffffffffffffffffffffffffffff1681565b60005481565b600960009054906101000a900460ff1681565b60003373ffffffffffffffffffffffffffffffffffffffff16600560019054906101000a900473ffffffffffffffffffffffffffffffffffffffff1673ffffffffffffffffffffffffffffffffffffffff1614905090565b6000600260009054906101000a900473ffffffffffffffffffffffffffffffffffffffff1673ffffffffffffffffffffffffffffffffffffffff163373ffffffffffffffffffffffffffffffffffffffff16141515156200099857600080fd5b600560019054906101000a900473ffffffffffffffffffffffffffffffffffffffff1673ffffffffffffffffffffffffffffffffffffffff163373ffffffffffffffffffffffffffffffffffffffff1614151515620009f657600080fd5b600260009054906101000a900473ffffffffffffffffffffffffffffffffffffffff1673ffffffffffffffffffffffffffffffffffffffff166108fc60075484029081150290604051600060405180830381858888f19350505050151562000a5d57600080fd5b62000a8c33600260009054906101000a900473ffffffffffffffffffffffffffffffffffffffff1684620014bd565b9050919050565b62000a9d62001721565b600680548060200260200160405190810160405280929190818152602001828054801562000b2157602002820191906000526020600020905b8160009054906101000a900473ffffffffffffffffffffffffffffffffffffffff1673ffffffffffffffffffffffffffffffffffffffff168152602001906001019080831162000ad6575b5050505050905090565b6000600260009054906101000a900473ffffffffffffffffffffffffffffffffffffffff1673ffffffffffffffffffffffffffffffffffffffff163373ffffffffffffffffffffffffffffffffffffffff1614151562000b8a57600080fd5b818362000b9662001735565b808363ffffffff1663ffffffff1681526020018273ffffffffffffffffffffffffffffffffffffffff1673ffffffffffffffffffffffffffffffffffffffff16815260200192505050604051809103906000f080151562000bf657600080fd5b90506006805480600101828162000c0e919062001746565b9160005260206000209001600083909190916101000a81548173ffffffffffffffffffffffffffffffffffffffff021916908373ffffffffffffffffffffffffffffffffffffffff16021790555050505050565b60085481565b600560009054906101000a900460ff1681565b600260009054906101000a900473ffffffffffffffffffffffffffffffffffffffff1673ffffffffffffffffffffffffffffffffffffffff163373ffffffffffffffffffffffffffffffffffffffff1614151562000cd857600080fd5b600073ffffffffffffffffffffffffffffffffffffffff16600560019054906101000a900473ffffffffffffffffffffffffffffffffffffffff1673ffffffffffffffffffffffffffffffffffffffff1614151562000d3657600080fd5b80600560016101000a81548173ffffffffffffffffffffffffffffffffffffffff021916908373ffffffffffffffffffffffffffffffffffffffff16021790555050565b600260009054906101000a900473ffffffffffffffffffffffffffffffffffffffff1673ffffffffffffffffffffffffffffffffffffffff163373ffffffffffffffffffffffffffffffffffffffff1614151562000dd757600080fd5b6000600960006101000a81548160ff021916908315150217905550565b600080600080600560019054906101000a900473ffffffffffffffffffffffffffffffffffffffff1673ffffffffffffffffffffffffffffffffffffffff163373ffffffffffffffffffffffffffffffffffffffff1614151562000e5757600080fd5b8492508273ffffffffffffffffffffffffffffffffffffffff16630115949c6000604051602001526040518163ffffffff167c0100000000000000000000000000000000000000000000000000000000028152600401602060405180830381600087803b151562000ec757600080fd5b6102c65a03f1151562000ed957600080fd5b5050506040518051905091508273ffffffffffffffffffffffffffffffffffffffff16636f338a226000604051602001526040518163ffffffff167c0100000000000000000000000000000000000000000000000000000000028152600401602060405180830381600087803b151562000f5257600080fd5b6102c65a03f1151562000f6457600080fd5b5050506040518051905090508273ffffffffffffffffffffffffffffffffffffffff16632a8d26e86040518163ffffffff167c0100000000000000000000000000000000000000000000000000000000028152600401600060405180830381600087803b151562000fd457600080fd5b6102c65a03f1151562000fe657600080fd5b5050506200101e81600260009054906101000a900473ffffffffffffffffffffffffffffffffffffffff168463ffffffff16620014bd565b9350505050919050565b600260009054906101000a900473ffffffffffffffffffffffffffffffffffffffff1673ffffffffffffffffffffffffffffffffffffffff163373ffffffffffffffffffffffffffffffffffffffff161415156200108557600080fd5b6001600960006101000a81548160ff021916908315150217905550565b6000600160008373ffffffffffffffffffffffffffffffffffffffff1673ffffffffffffffffffffffffffffffffffffffff168152602001908152602001600020549050919050565b600260009054906101000a900473ffffffffffffffffffffffffffffffffffffffff1673ffffffffffffffffffffffffffffffffffffffff163373ffffffffffffffffffffffffffffffffffffffff161415156200114857600080fd5b8060078190555050565b600260009054906101000a900473ffffffffffffffffffffffffffffffffffffffff1681565b60003373ffffffffffffffffffffffffffffffffffffffff16600260009054906101000a900473ffffffffffffffffffffffffffffffffffffffff1673ffffffffffffffffffffffffffffffffffffffff1614905090565b600681815481101515620011e057fe5b90600052602060002090016000915054906101000a900473ffffffffffffffffffffffffffffffffffffffff1681565b60048054600181600116156101000203166002900480601f016020809104026020016040519081016040528092919081815260200182805460018160011615610100020316600290048015620012aa5780601f106200127e57610100808354040283529160200191620012aa565b820191906000526020600020905b8154815290600101906020018083116200128c57829003601f168201915b505050505081565b6000600754905090565b600060011515600960009054906101000a900460ff161515141515620012e157600080fd5b600260009054906101000a900473ffffffffffffffffffffffffffffffffffffffff1673ffffffffffffffffffffffffffffffffffffffff163373ffffffffffffffffffffffffffffffffffffffff16141515156200133f57600080fd5b6200134c833384620014bd565b905092915050565b60008054905090565b60075481565b600260009054906101000a900473ffffffffffffffffffffffffffffffffffffffff1673ffffffffffffffffffffffffffffffffffffffff163373ffffffffffffffffffffffffffffffffffffffff16141515620013c057600080fd5b600073ffffffffffffffffffffffffffffffffffffffff168173ffffffffffffffffffffffffffffffffffffffff1614151515620013fd57600080fd5b8073ffffffffffffffffffffffffffffffffffffffff16600260009054906101000a900473ffffffffffffffffffffffffffffffffffffffff1673ffffffffffffffffffffffffffffffffffffffff167f8be0079c531659141344cd1fd0a4f28419497f9722a3daafe3b4186f6b6457e060405160405180910390a380600260006101000a81548173ffffffffffffffffffffffffffffffffffffffff021916908373ffffffffffffffffffffffffffffffffffffffff16021790555050565b60008073ffffffffffffffffffffffffffffffffffffffff168473ffffffffffffffffffffffffffffffffffffffff1614151515620014fb57600080fd5b600160008473ffffffffffffffffffffffffffffffffffffffff1673ffffffffffffffffffffffffffffffffffffffff1681526020019081526020016000205482111515156200154a57600080fd5b6200159e82600160008673ffffffffffffffffffffffffffffffffffffffff1673ffffffffffffffffffffffffffffffffffffffff16815260200190815260200160002054620016e890919063ffffffff16565b600160008573ffffffffffffffffffffffffffffffffffffffff1673ffffffffffffffffffffffffffffffffffffffff168152602001908152602001600020819055506200163582600160008773ffffffffffffffffffffffffffffffffffffffff1673ffffffffffffffffffffffffffffffffffffffff168152602001908152602001600020546200170290919063ffffffff16565b600160008673ffffffffffffffffffffffffffffffffffffffff1673ffffffffffffffffffffffffffffffffffffffff168152602001908152602001600020819055508373ffffffffffffffffffffffffffffffffffffffff168373ffffffffffffffffffffffffffffffffffffffff167fddf252ad1be2c89b69c2b068fc378daa952ba7f163c4a11628f55a4df523b3ef846040518082815260200191505060405180910390a3600190509392505050565b6000828211151515620016f757fe5b818303905092915050565b60008082840190508381101515156200171757fe5b8091505092915050565b602060405190810160405280600081525090565b604051610a4c806200179e83390190565b81548183558181151162001770578183600052602060002091820191016200176f919062001775565b5b505050565b6200179a91905b80821115620017965760008160009055506001016200177c565b5090565b90560060606040526040805190810160405280601081526020017f4d756c74695369675472616e73666572000000000000000000000000000000008152506001908051906020019061004f929190610190565b506040805190810160405280600381526020017f4d535400000000000000000000000000000000000000000000000000000000008152506002908051906020019061009b929190610190565b506000600360006101000a81548160ff02191690831515021790555034156100c257600080fd5b604051604080610a4c83398101604052808051906020019091908051906020019091905050336000806101000a81548173ffffffffffffffffffffffffffffffffffffffff021916908373ffffffffffffffffffffffffffffffffffffffff16021790555081600360016101000a81548163ffffffff021916908363ffffffff16021790555080600360056101000a81548173ffffffffffffffffffffffffffffffffffffffff021916908373ffffffffffffffffffffffffffffffffffffffff1602179055505050610235565b828054600181600116156101000203166002900490600052602060002090601f016020900481019282601f106101d157805160ff19168380011785556101ff565b828001600101855582156101ff579182015b828111156101fe5782518255916020019190600101906101e3565b5b50905061020c9190610210565b5090565b61023291905b8082111561022e576000816000905550600101610216565b5090565b90565b610808806102446000396000f3006060604052600436106100af576000357c0100000000000000000000000000000000000000000000000000000000900463ffffffff1680630115949c146100b457806306fdde03146100e957806317fc45e2146101775780632a8d26e8146101ac5780635210eb56146101c1578063522e1177146102165780636f338a22146102435780638da5cb5b1461029857806395d89b41146102ed5780639c30ad7e1461037b578063f2fde38b146103a8575b600080fd5b34156100bf57600080fd5b6100c76103e1565b604051808263ffffffff1663ffffffff16815260200191505060405180910390f35b34156100f457600080fd5b6100fc6103fb565b6040518080602001828103825283818151815260200191508051906020019080838360005b8381101561013c578082015181840152602081019050610121565b50505050905090810190601f1680156101695780820380516001836020036101000a031916815260200191505b509250505060405180910390f35b341561018257600080fd5b61018a610499565b604051808263ffffffff1663ffffffff16815260200191505060405180910390f35b34156101b757600080fd5b6101bf6104af565b005b34156101cc57600080fd5b6101d4610549565b604051808273ffffffffffffffffffffffffffffffffffffffff1673ffffffffffffffffffffffffffffffffffffffff16815260200191505060405180910390f35b341561022157600080fd5b61022961056f565b604051808215151515815260200191505060405180910390f35b341561024e57600080fd5b610256610582565b604051808273ffffffffffffffffffffffffffffffffffffffff1673ffffffffffffffffffffffffffffffffffffffff16815260200191505060405180910390f35b34156102a357600080fd5b6102ab6105ac565b604051808273ffffffffffffffffffffffffffffffffffffffff1673ffffffffffffffffffffffffffffffffffffffff16815260200191505060405180910390f35b34156102f857600080fd5b6103006105d1565b6040518080602001828103825283818151815260200191508051906020019080838360005b83811015610340578082015181840152602081019050610325565b50505050905090810190601f16801561036d5780820380516001836020036101000a031916815260200191505b509250505060405180910390f35b341561038657600080fd5b61038e61066f565b604051808215151515815260200191505060405180910390f35b34156103b357600080fd5b6103df600480803573ffffffffffffffffffffffffffffffffffffffff16906020019091905050610687565b005b6000600360019054906101000a900463ffffffff16905090565b60018054600181600116156101000203166002900480601f0160208091040260200160405190810160405280929190818152602001828054600181600116156101000203166002900480156104915780601f1061046657610100808354040283529160200191610491565b820191906000526020600020905b81548152906001019060200180831161047457829003601f168201915b505050505081565b600360019054906101000a900463ffffffff1681565b6000809054906101000a900473ffffffffffffffffffffffffffffffffffffffff1673ffffffffffffffffffffffffffffffffffffffff163373ffffffffffffffffffffffffffffffffffffffff1614151561050a57600080fd5b60001515600360009054906101000a900460ff16151514151561052c57600080fd5b6001600360006101000a81548160ff021916908315150217905550565b600360059054906101000a900473ffffffffffffffffffffffffffffffffffffffff1681565b600360009054906101000a900460ff1681565b6000600360059054906101000a900473ffffffffffffffffffffffffffffffffffffffff16905090565b6000809054906101000a900473ffffffffffffffffffffffffffffffffffffffff1681565b60028054600181600116156101000203166002900480601f0160208091040260200160405190810160405280929190818152602001828054600181600116156101000203166002900480156106675780601f1061063c57610100808354040283529160200191610667565b820191906000526020600020905b81548152906001019060200180831161064a57829003601f168201915b505050505081565b6000600360009054906101000a900460ff1615905090565b6000809054906101000a900473ffffffffffffffffffffffffffffffffffffffff1673ffffffffffffffffffffffffffffffffffffffff163373ffffffffffffffffffffffffffffffffffffffff161415156106e257600080fd5b600073ffffffffffffffffffffffffffffffffffffffff168173ffffffffffffffffffffffffffffffffffffffff161415151561071e57600080fd5b8073ffffffffffffffffffffffffffffffffffffffff166000809054906101000a900473ffffffffffffffffffffffffffffffffffffffff1673ffffffffffffffffffffffffffffffffffffffff167f8be0079c531659141344cd1fd0a4f28419497f9722a3daafe3b4186f6b6457e060405160405180910390a3806000806101000a81548173ffffffffffffffffffffffffffffffffffffffff021916908373ffffffffffffffffffffffffffffffffffffffff160217905550505600a165627a7a72305820871e1721cf0d3bdd9d3119edf185fab3707566bf7f7a252a8ddb09acbc6d79520029a165627a7a72305820b63b2344371b5043f030661a1f01810dad00eefd4a5162bbaffd5f8ebfad83f40029",
  "source": "pragma solidity ^0.4.17;\n\nimport \"zeppelin-solidity/contracts/token/StandardToken.sol\";\nimport \"zeppelin-solidity/contracts/ownership/Ownable.sol\";\nimport \"./MultiSigTransfer.sol\";\n\ncontract AbxToken is BasicToken, Ownable {\n  string public name = \"ABXToken\";\n  string public symbol = \"ABXT\";\n  uint8 public decimals = 0;\n  address public approver = 0x0000000000000000000000000000000000000000;\n  address[] public transfers;\n\n\t/* This is 0.1 ETH */\n  uint256 public pricePerTokenInWei = 100000000000000000;\n\n  uint public INITIAL_SUPPLY = 1000000;\n  bool public isTransferable = false;\n\n  function AbxToken() public {\n    totalSupply = INITIAL_SUPPLY;\n    balances[msg.sender] = INITIAL_SUPPLY;\n  }\n\n\t/* Allow a the owner of the smart contract to enable transfers by regular holders */\n\tfunction makeTransferable() public onlyOwner {\n\t\tisTransferable = true;\n  }\n\n\t/* Allows the owner to disable transfers of the token */\n\tfunction disableTransfers() public onlyOwner {\n\t\tisTransferable = false;\n  }\n\n\t/* Set price in wei */\n\tfunction setPriceInWei(uint256 tokenPrice) public onlyOwner {\n\t\tpricePerTokenInWei = tokenPrice;\n  }\n\n  /**\n  * @dev transfer token for a specified address\n  * @param _to The address to transfer to.\n  * @param _value The amount to be transferred.\n  */\n  function _transfer(address _to, address _from, uint256 _value) private returns (bool) {\n    require(_to != address(0));\n    require(_value <= balances[_from]);\n\n    // SafeMath.sub will throw if there is not enough balance.\n    balances[_from] = balances[_from].sub(_value);\n    balances[_to] = balances[_to].add(_value);\n    Transfer(_from, _to, _value);\n    return true;\n  }\n\n  function transfer(address _to, uint256 _value) public returns (bool) {\n    require(isTransferable == true);\n    require(msg.sender != owner);\n    return _transfer(_to, msg.sender, _value);\n  }\n\n  function adminTransfer(address _to, uint32 _quantity) public onlyOwner {\n    MultiSigTransfer newTransfer = new MultiSigTransfer(_quantity, _to);\n    transfers.push(newTransfer);\n    // return address(newTransfer);\n  }\n\n  function approveTransfer(address approvedTransfer) public returns (bool) {\n    require(msg.sender == approver);\n    MultiSigTransfer transferToApprove = MultiSigTransfer(approvedTransfer);\n    uint32 transferQuantity = transferToApprove.getQuantity();\n    address deliveryAddress = transferToApprove.getTargetAddress();\n    transferToApprove.approveTransfer();\n    return _transfer(deliveryAddress, owner, transferQuantity);\n  }\n\n  /* This is a payable copy of the above function that, when the correct eth is provided, moves tokens from\n  the owner, to the buyer */\n  function buyToken(uint256 quantity) public payable returns (bool) {\n    require(msg.sender != owner);\n    require(msg.sender != approver);\n\n    /* Transfer the set wei to abx, then we give the user their token */\n    owner.transfer(quantity * pricePerTokenInWei);\n\n    return _transfer(msg.sender, owner, quantity);\n  }\n\n  /* balanceOf is already implemented. So we just need a getTotalSupply() so we can show users the percentage they own */\n\tfunction getTotalSupply() public view returns (uint256) {\n\t\treturn totalSupply;\n\t}\n\n\tfunction getPrice() public view returns (uint256) {\n\t\treturn pricePerTokenInWei;\n\t}\n\n  /* We will use this check to determine if the person viewing the page is the owner of the smart contract */\n\tfunction isOwner() public view returns (bool) {\n\t\treturn owner == msg.sender;\n\t}\n\n  function setApprover(address newApprover) public onlyOwner {\n    require(approver == address(0));\n    approver = newApprover;\n  } \n\n  function isApprover() public view returns (bool) {\n    return approver == msg.sender;\n  }\n\n  function getTransfers() public view returns (address[]) {\n    return transfers;\n  }\n}\n",
  "sourcePath": "/home/sam/Projects/kinesis-promo/contracts/AbxToken.sol",
  "compiler": {
    "name": "solc",
    "version": "0.4.18+commit.9cf6e910.Emscripten.clang"
  },
  "schemaVersion": "1.0.1",
  "updatedAt": "2018-01-29T07:07:56.713Z"
}