{
  "contractName": "KinesisVelocityToken",
  "abi": [
    {
      "constant": true,
      "inputs": [],
      "name": "name",
      "outputs": [
        {
          "name": "",
          "type": "string"
        }
      ],
      "payable": false,
      "stateMutability": "view",
      "type": "function"
    },
    {
      "constant": true,
      "inputs": [
        {
          "name": "addr",
          "type": "address"
        },
        {
          "name": "roleName",
          "type": "string"
        }
      ],
      "name": "checkRole",
      "outputs": [],
      "payable": false,
      "stateMutability": "view",
      "type": "function"
    },
    {
      "constant": true,
      "inputs": [],
      "name": "totalSupply",
      "outputs": [
        {
          "name": "",
          "type": "uint256"
        }
      ],
      "payable": false,
      "stateMutability": "view",
      "type": "function"
    },
    {
      "constant": true,
      "inputs": [],
      "name": "isTransferable",
      "outputs": [
        {
          "name": "",
          "type": "bool"
        }
      ],
      "payable": false,
      "stateMutability": "view",
      "type": "function"
    },
    {
      "constant": true,
      "inputs": [
        {
          "name": "addr",
          "type": "address"
        },
        {
          "name": "roleName",
          "type": "string"
        }
      ],
      "name": "hasRole",
      "outputs": [
        {
          "name": "",
          "type": "bool"
        }
      ],
      "payable": false,
      "stateMutability": "view",
      "type": "function"
    },
    {
      "constant": true,
      "inputs": [],
      "name": "INITIAL_SUPPLY",
      "outputs": [
        {
          "name": "",
          "type": "uint256"
        }
      ],
      "payable": false,
      "stateMutability": "view",
      "type": "function"
    },
    {
      "constant": true,
      "inputs": [],
      "name": "decimals",
      "outputs": [
        {
          "name": "",
          "type": "uint8"
        }
      ],
      "payable": false,
      "stateMutability": "view",
      "type": "function"
    },
    {
      "constant": true,
      "inputs": [
        {
          "name": "_owner",
          "type": "address"
        }
      ],
      "name": "balanceOf",
      "outputs": [
        {
          "name": "",
          "type": "uint256"
        }
      ],
      "payable": false,
      "stateMutability": "view",
      "type": "function"
    },
    {
      "constant": true,
      "inputs": [],
      "name": "ADMIN_ROLE",
      "outputs": [
        {
          "name": "",
          "type": "string"
        }
      ],
      "payable": false,
      "stateMutability": "view",
      "type": "function"
    },
    {
      "constant": true,
      "inputs": [],
      "name": "owner",
      "outputs": [
        {
          "name": "",
          "type": "address"
        }
      ],
      "payable": false,
      "stateMutability": "view",
      "type": "function"
    },
    {
      "constant": true,
      "inputs": [
        {
          "name": "",
          "type": "uint256"
        }
      ],
      "name": "transfers",
      "outputs": [
        {
          "name": "",
          "type": "address"
        }
      ],
      "payable": false,
      "stateMutability": "view",
      "type": "function"
    },
    {
      "constant": true,
      "inputs": [],
      "name": "symbol",
      "outputs": [
        {
          "name": "",
          "type": "string"
        }
      ],
      "payable": false,
      "stateMutability": "view",
      "type": "function"
    },
    {
      "constant": true,
      "inputs": [],
      "name": "pricePerTokenInWei",
      "outputs": [
        {
          "name": "",
          "type": "uint256"
        }
      ],
      "payable": false,
      "stateMutability": "view",
      "type": "function"
    },
    {
      "constant": false,
      "inputs": [
        {
          "name": "newOwner",
          "type": "address"
        }
      ],
      "name": "transferOwnership",
      "outputs": [],
      "payable": false,
      "stateMutability": "nonpayable",
      "type": "function"
    },
    {
      "inputs": [],
      "payable": false,
      "stateMutability": "nonpayable",
      "type": "constructor"
    },
    {
      "anonymous": false,
      "inputs": [
        {
          "indexed": false,
          "name": "addr",
          "type": "address"
        },
        {
          "indexed": false,
          "name": "roleName",
          "type": "string"
        }
      ],
      "name": "RoleAdded",
      "type": "event"
    },
    {
      "anonymous": false,
      "inputs": [
        {
          "indexed": false,
          "name": "addr",
          "type": "address"
        },
        {
          "indexed": false,
          "name": "roleName",
          "type": "string"
        }
      ],
      "name": "RoleRemoved",
      "type": "event"
    },
    {
      "anonymous": false,
      "inputs": [
        {
          "indexed": true,
          "name": "previousOwner",
          "type": "address"
        },
        {
          "indexed": true,
          "name": "newOwner",
          "type": "address"
        }
      ],
      "name": "OwnershipTransferred",
      "type": "event"
    },
    {
      "anonymous": false,
      "inputs": [
        {
          "indexed": true,
          "name": "from",
          "type": "address"
        },
        {
          "indexed": true,
          "name": "to",
          "type": "address"
        },
        {
          "indexed": false,
          "name": "value",
          "type": "uint256"
        }
      ],
      "name": "Transfer",
      "type": "event"
    },
    {
      "constant": true,
      "inputs": [],
      "name": "isOwner",
      "outputs": [
        {
          "name": "",
          "type": "bool"
        }
      ],
      "payable": false,
      "stateMutability": "view",
      "type": "function"
    },
    {
      "constant": true,
      "inputs": [],
      "name": "isAdmin",
      "outputs": [
        {
          "name": "",
          "type": "bool"
        }
      ],
      "payable": false,
      "stateMutability": "view",
      "type": "function"
    },
    {
      "constant": false,
      "inputs": [
        {
          "name": "newAdmin",
          "type": "address"
        }
      ],
      "name": "setAdmin",
      "outputs": [],
      "payable": false,
      "stateMutability": "nonpayable",
      "type": "function"
    },
    {
      "constant": false,
      "inputs": [
        {
          "name": "oldAdmin",
          "type": "address"
        }
      ],
      "name": "removeAdmin",
      "outputs": [],
      "payable": false,
      "stateMutability": "nonpayable",
      "type": "function"
    },
    {
      "constant": true,
      "inputs": [],
      "name": "getTransferableState",
      "outputs": [
        {
          "name": "",
          "type": "bool"
        }
      ],
      "payable": false,
      "stateMutability": "view",
      "type": "function"
    },
    {
      "constant": true,
      "inputs": [],
      "name": "isToggleTransferablePending",
      "outputs": [
        {
          "name": "",
          "type": "bool"
        }
      ],
      "payable": false,
      "stateMutability": "view",
      "type": "function"
    },
    {
      "constant": false,
      "inputs": [
        {
          "name": "toState",
          "type": "bool"
        }
      ],
      "name": "setTransferable",
      "outputs": [],
      "payable": false,
      "stateMutability": "nonpayable",
      "type": "function"
    },
    {
      "constant": false,
      "inputs": [],
      "name": "approveTransferableToggle",
      "outputs": [],
      "payable": false,
      "stateMutability": "nonpayable",
      "type": "function"
    },
    {
      "constant": true,
      "inputs": [],
      "name": "getPendingPriceChange",
      "outputs": [
        {
          "name": "",
          "type": "uint256"
        }
      ],
      "payable": false,
      "stateMutability": "view",
      "type": "function"
    },
    {
      "constant": false,
      "inputs": [
        {
          "name": "priceChangeInWei",
          "type": "uint256"
        }
      ],
      "name": "requestPriceChange",
      "outputs": [],
      "payable": false,
      "stateMutability": "nonpayable",
      "type": "function"
    },
    {
      "constant": false,
      "inputs": [],
      "name": "approvePriceChange",
      "outputs": [],
      "payable": false,
      "stateMutability": "nonpayable",
      "type": "function"
    },
    {
      "constant": false,
      "inputs": [
        {
          "name": "_to",
          "type": "address"
        },
        {
          "name": "_value",
          "type": "uint256"
        }
      ],
      "name": "transfer",
      "outputs": [
        {
          "name": "",
          "type": "bool"
        }
      ],
      "payable": false,
      "stateMutability": "nonpayable",
      "type": "function"
    },
    {
      "constant": false,
      "inputs": [
        {
          "name": "to",
          "type": "address"
        },
        {
          "name": "quantity",
          "type": "uint32"
        }
      ],
      "name": "trustTransfer",
      "outputs": [],
      "payable": false,
      "stateMutability": "nonpayable",
      "type": "function"
    },
    {
      "constant": false,
      "inputs": [
        {
          "name": "to",
          "type": "address"
        },
        {
          "name": "quantity",
          "type": "uint32"
        }
      ],
      "name": "adminTransfer",
      "outputs": [],
      "payable": false,
      "stateMutability": "nonpayable",
      "type": "function"
    },
    {
      "constant": false,
      "inputs": [
        {
          "name": "approvedTransfer",
          "type": "address"
        }
      ],
      "name": "approveTransfer",
      "outputs": [
        {
          "name": "",
          "type": "bool"
        }
      ],
      "payable": false,
      "stateMutability": "nonpayable",
      "type": "function"
    },
    {
      "constant": false,
      "inputs": [
        {
          "name": "approvedTransfer",
          "type": "address"
        }
      ],
      "name": "denyTransfer",
      "outputs": [
        {
          "name": "",
          "type": "bool"
        }
      ],
      "payable": false,
      "stateMutability": "nonpayable",
      "type": "function"
    },
    {
      "constant": false,
      "inputs": [
        {
          "name": "quantity",
          "type": "uint256"
        }
      ],
      "name": "buyToken",
      "outputs": [
        {
          "name": "",
          "type": "bool"
        }
      ],
      "payable": true,
      "stateMutability": "payable",
      "type": "function"
    },
    {
      "constant": true,
      "inputs": [],
      "name": "getTotalSupply",
      "outputs": [
        {
          "name": "",
          "type": "uint256"
        }
      ],
      "payable": false,
      "stateMutability": "view",
      "type": "function"
    },
    {
      "constant": true,
      "inputs": [],
      "name": "getPrice",
      "outputs": [
        {
          "name": "",
          "type": "uint256"
        }
      ],
      "payable": false,
      "stateMutability": "view",
      "type": "function"
    },
    {
      "constant": true,
      "inputs": [],
      "name": "getTransfers",
      "outputs": [
        {
          "name": "",
          "type": "address[]"
        }
      ],
      "payable": false,
      "stateMutability": "view",
      "type": "function"
    }
  ],
  "bytecode": "0x60806040526040805190810160405280601481526020017f4b696e6573697356656c6f63697479546f6b656e00000000000000000000000081525060049080519060200190620000519291906200048c565b506040805190810160405280600381526020017f4b56540000000000000000000000000000000000000000000000000000000000815250600590805190602001906200009f9291906200048c565b506000600660006101000a81548160ff021916908360ff16021790555067016345785d8a0000600855620493e06009556000600a556000600b60006101000a81548160ff0219169083151502179055506000600b60016101000a81548160ff0219169083151502179055506000600b60026101000a81548173ffffffffffffffffffffffffffffffffffffffff021916908373ffffffffffffffffffffffffffffffffffffffff1602179055506000600c60006101000a81548173ffffffffffffffffffffffffffffffffffffffff021916908373ffffffffffffffffffffffffffffffffffffffff1602179055506000600d556000600e60006101000a81548173ffffffffffffffffffffffffffffffffffffffff021916908373ffffffffffffffffffffffffffffffffffffffff160217905550348015620001e257600080fd5b5033600260006101000a81548173ffffffffffffffffffffffffffffffffffffffff021916908373ffffffffffffffffffffffffffffffffffffffff160217905550600954600a819055506009546000803373ffffffffffffffffffffffffffffffffffffffff1673ffffffffffffffffffffffffffffffffffffffff16815260200190815260200160002081905550620002c2336040805190810160405280600581526020017f61646d696e000000000000000000000000000000000000000000000000000000815250620002c8640100000000026401000000009004565b6200053b565b62000357826003836040518082805190602001908083835b602083101515620003075780518252602082019150602081019050602083039250620002e0565b6001836020036101000a03801982511681845116808217855250505050505090500191505090815260200160405180910390206200042e64010000000002620025b6179091906401000000009004565b7fbfec83d64eaa953f2708271a023ab9ee82057f8f3578d548c1a4ba0b5b7004898282604051808373ffffffffffffffffffffffffffffffffffffffff1673ffffffffffffffffffffffffffffffffffffffff16815260200180602001828103825283818151815260200191508051906020019080838360005b83811015620003ee578082015181840152602081019050620003d1565b50505050905090810190601f1680156200041c5780820380516001836020036101000a031916815260200191505b50935050505060405180910390a15050565b60018260000160008373ffffffffffffffffffffffffffffffffffffffff1673ffffffffffffffffffffffffffffffffffffffff16815260200190815260200160002060006101000a81548160ff0219169083151502179055505050565b828054600181600116156101000203166002900490600052602060002090601f016020900481019282601f10620004cf57805160ff191683800117855562000500565b8280016001018555821562000500579182015b82811115620004ff578251825591602001919060010190620004e2565b5b5090506200050f919062000513565b5090565b6200053891905b80821115620005345760008160009055506001016200051a565b5090565b90565b6134a8806200054b6000396000f300608060405260043610620001cf576000357c0100000000000000000000000000000000000000000000000000000000900463ffffffff16806306fdde0314620001d45780630988ca8c146200026a5780631785f53c14620002f657806318160ddd146200033c5780632121dc75146200036a578063217fe6c6146200039c5780632894d6a814620004405780632ad0695e14620004965780632b30b6fa14620004b05780632d296bf114620004e25780632f65142c146200051c5780632f8eed98146200058d5780632ff2e9dc14620005e357806330fe0faa1462000611578063313ce567146200064357806340c3b18e14620006775780634355b9d2146200069157806364e8cbe314620006ef578063704b6c02146200071d57806370a08231146200076357806375b238fc14620007bd5780638b03701514620008535780638da5cb5b14620008835780638f32d59b14620008dd5780639377d711146200090f57806395d89b41146200097f57806398d5fdca1462000a155780639cd237071462000a43578063a9059cbb1462000a75578063b6db75a01462000add578063c4e41b221462000b0f578063df520efc1462000b3d578063f2fde38b1462000b6b578063f5c4201f1462000bb1575b600080fd5b348015620001e157600080fd5b50620001ec62000c0f565b6040518080602001828103825283818151815260200191508051906020019080838360005b838110156200022e57808201518184015260208101905062000211565b50505050905090810190601f1680156200025c5780820380516001836020036101000a031916815260200191505b509250505060405180910390f35b3480156200027757600080fd5b50620002f4600480360381019080803573ffffffffffffffffffffffffffffffffffffffff169060200190929190803590602001908201803590602001908080601f016020809104026020016040519081016040528093929190818152602001838380828437820191505050505050919291929050505062000cb1565b005b3480156200030357600080fd5b506200033a600480360381019080803573ffffffffffffffffffffffffffffffffffffffff16906020019092919050505062000d36565b005b3480156200034957600080fd5b506200035462000dd7565b6040518082815260200191505060405180910390f35b3480156200037757600080fd5b506200038262000ddd565b604051808215151515815260200191505060405180910390f35b348015620003a957600080fd5b5062000426600480360381019080803573ffffffffffffffffffffffffffffffffffffffff169060200190929190803590602001908201803590602001908080601f016020809104026020016040519081016040528093929190818152602001838380828437820191505050505050919291929050505062000df0565b604051808215151515815260200191505060405180910390f35b3480156200044d57600080fd5b5062000494600480360381019080803573ffffffffffffffffffffffffffffffffffffffff169060200190929190803563ffffffff16906020019092919050505062000e7b565b005b348015620004a357600080fd5b50620004ae62000ef2565b005b348015620004bd57600080fd5b50620004c862000ffb565b604051808215151515815260200191505060405180910390f35b620005026004803603810190808035906020019092919050505062001012565b604051808215151515815260200191505060405180910390f35b3480156200052957600080fd5b506200053462001106565b6040518080602001828103825283818151815260200191508051906020019060200280838360005b83811015620005795780820151818401526020810190506200055c565b505050509050019250505060405180910390f35b3480156200059a57600080fd5b50620005e1600480360381019080803573ffffffffffffffffffffffffffffffffffffffff169060200190929190803563ffffffff16906020019092919050505062001196565b005b348015620005f057600080fd5b50620005fb6200120d565b6040518082815260200191505060405180910390f35b3480156200061e57600080fd5b506200062962001213565b604051808215151515815260200191505060405180910390f35b3480156200065057600080fd5b506200065b6200122a565b604051808260ff1660ff16815260200191505060405180910390f35b3480156200068457600080fd5b506200068f6200123d565b005b3480156200069e57600080fd5b50620006d5600480360381019080803573ffffffffffffffffffffffffffffffffffffffff1690602001909291905050506200138a565b604051808215151515815260200191505060405180910390f35b348015620006fc57600080fd5b506200070762001742565b6040518082815260200191505060405180910390f35b3480156200072a57600080fd5b5062000761600480360381019080803573ffffffffffffffffffffffffffffffffffffffff1690602001909291905050506200174c565b005b3480156200077057600080fd5b50620007a7600480360381019080803573ffffffffffffffffffffffffffffffffffffffff169060200190929190505050620017ed565b6040518082815260200191505060405180910390f35b348015620007ca57600080fd5b50620007d562001835565b6040518080602001828103825283818151815260200191508051906020019080838360005b8381101562000817578082015181840152602081019050620007fa565b50505050905090810190601f168015620008455780820380516001836020036101000a031916815260200191505b509250505060405180910390f35b3480156200086057600080fd5b5062000881600480360381019080803590602001909291905050506200186e565b005b3480156200089057600080fd5b506200089b620018fc565b604051808273ffffffffffffffffffffffffffffffffffffffff1673ffffffffffffffffffffffffffffffffffffffff16815260200191505060405180910390f35b348015620008ea57600080fd5b50620008f562001922565b604051808215151515815260200191505060405180910390f35b3480156200091c57600080fd5b506200093d600480360381019080803590602001909291905050506200197a565b604051808273ffffffffffffffffffffffffffffffffffffffff1673ffffffffffffffffffffffffffffffffffffffff16815260200191505060405180910390f35b3480156200098c57600080fd5b5062000997620019b9565b6040518080602001828103825283818151815260200191508051906020019080838360005b83811015620009d9578082015181840152602081019050620009bc565b50505050905090810190601f16801562000a075780820380516001836020036101000a031916815260200191505b509250505060405180910390f35b34801562000a2257600080fd5b5062000a2d62001a5b565b6040518082815260200191505060405180910390f35b34801562000a5057600080fd5b5062000a7360048036038101908080351515906020019092919050505062001a65565b005b34801562000a8257600080fd5b5062000ac3600480360381019080803573ffffffffffffffffffffffffffffffffffffffff1690602001909291908035906020019092919050505062001b2a565b604051808215151515815260200191505060405180910390f35b34801562000aea57600080fd5b5062000af562001c0b565b604051808215151515815260200191505060405180910390f35b34801562000b1c57600080fd5b5062000b2762001c53565b6040518082815260200191505060405180910390f35b34801562000b4a57600080fd5b5062000b5562001c5d565b6040518082815260200191505060405180910390f35b34801562000b7857600080fd5b5062000baf600480360381019080803573ffffffffffffffffffffffffffffffffffffffff16906020019092919050505062001c63565b005b34801562000bbe57600080fd5b5062000bf5600480360381019080803573ffffffffffffffffffffffffffffffffffffffff16906020019092919050505062001dbd565b604051808215151515815260200191505060405180910390f35b60048054600181600116156101000203166002900480601f01602080910402602001604051908101604052809291908181526020018280546001816001161561010002031660029004801562000ca95780601f1062000c7d5761010080835404028352916020019162000ca9565b820191906000526020600020905b81548152906001019060200180831162000c8b57829003601f168201915b505050505081565b62000d32826003836040518082805190602001908083835b60208310151562000cf0578051825260208201915060208101905060208303925062000cc9565b6001836020036101000a038019825116818451168082178552505050505050905001915050908152602001604051809103902062001e8a90919063ffffffff16565b5050565b600260009054906101000a900473ffffffffffffffffffffffffffffffffffffffff1673ffffffffffffffffffffffffffffffffffffffff163373ffffffffffffffffffffffffffffffffffffffff1614151562000d9357600080fd5b62000dd4816040805190810160405280600581526020017f61646d696e00000000000000000000000000000000000000000000000000000081525062001ea6565b50565b600a5481565b600b60009054906101000a900460ff1681565b600062000e73836003846040518082805190602001908083835b60208310151562000e31578051825260208201915060208101905060208303925062000e0a565b6001836020036101000a038019825116818451168082178552505050505050905001915050908152602001604051809103902062001ffe90919063ffffffff16565b905092915050565b6040805190810160405280600581526020017f61646d696e00000000000000000000000000000000000000000000000000000081525062000ebd338262000cb1565b62000eed600c60009054906101000a900473ffffffffffffffffffffffffffffffffffffffff1684338562002057565b505050565b6040805190810160405280600581526020017f61646d696e00000000000000000000000000000000000000000000000000000081525062000f34338262000cb1565b600e60009054906101000a900473ffffffffffffffffffffffffffffffffffffffff1673ffffffffffffffffffffffffffffffffffffffff163373ffffffffffffffffffffffffffffffffffffffff161415151562000f9257600080fd5b6000600d541415151562000fa557600080fd5b600d546008819055506000600d819055506000600e60006101000a81548173ffffffffffffffffffffffffffffffffffffffff021916908373ffffffffffffffffffffffffffffffffffffffff16021790555050565b6000600b60019054906101000a900460ff16905090565b600062001055336040805190810160405280600581526020017f61646d696e00000000000000000000000000000000000000000000000000000081525062000df0565b1515156200106257600080fd5b600260009054906101000a900473ffffffffffffffffffffffffffffffffffffffff1673ffffffffffffffffffffffffffffffffffffffff166108fc60085484029081150290604051600060405180830381858888f19350505050158015620010cf573d6000803e3d6000fd5b50620010ff33600260009054906101000a900473ffffffffffffffffffffffffffffffffffffffff1684620021a3565b9050919050565b606060078054806020026020016040519081016040528092919081815260200182805480156200118c57602002820191906000526020600020905b8160009054906101000a900473ffffffffffffffffffffffffffffffffffffffff1673ffffffffffffffffffffffffffffffffffffffff168152602001906001019080831162001141575b5050505050905090565b6040805190810160405280600581526020017f61646d696e000000000000000000000000000000000000000000000000000000815250620011d8338262000cb1565b62001208600260009054906101000a900473ffffffffffffffffffffffffffffffffffffffff1684338562002057565b505050565b60095481565b6000600b60009054906101000a900460ff16905090565b600660009054906101000a900460ff1681565b6040805190810160405280600581526020017f61646d696e0000000000000000000000000000000000000000000000000000008152506200127f338262000cb1565b60011515600b60019054906101000a900460ff161515141515620012a257600080fd5b3373ffffffffffffffffffffffffffffffffffffffff16600b60029054906101000a900473ffffffffffffffffffffffffffffffffffffffff1673ffffffffffffffffffffffffffffffffffffffff16141515156200130057600080fd5b600b60009054906101000a900460ff1615600b60006101000a81548160ff0219169083151502179055506000600b60016101000a81548160ff0219169083151502179055506000600b60026101000a81548173ffffffffffffffffffffffffffffffffffffffff021916908373ffffffffffffffffffffffffffffffffffffffff16021790555050565b6000806000806000806040805190810160405280600581526020017f61646d696e000000000000000000000000000000000000000000000000000000815250620013d5338262000cb1565b8795508573ffffffffffffffffffffffffffffffffffffffff16630115949c6040518163ffffffff167c0100000000000000000000000000000000000000000000000000000000028152600401602060405180830381600087803b1580156200143d57600080fd5b505af115801562001452573d6000803e3d6000fd5b505050506040513d60208110156200146957600080fd5b810190808051906020019092919050505094508573ffffffffffffffffffffffffffffffffffffffff16636f338a226040518163ffffffff167c0100000000000000000000000000000000000000000000000000000000028152600401602060405180830381600087803b158015620014e157600080fd5b505af1158015620014f6573d6000803e3d6000fd5b505050506040513d60208110156200150d57600080fd5b810190808051906020019092919050505093508573ffffffffffffffffffffffffffffffffffffffff16638c180f7a6040518163ffffffff167c0100000000000000000000000000000000000000000000000000000000028152600401602060405180830381600087803b1580156200158557600080fd5b505af11580156200159a573d6000803e3d6000fd5b505050506040513d6020811015620015b157600080fd5b810190808051906020019092919050505092508573ffffffffffffffffffffffffffffffffffffffff1663cae309836040518163ffffffff167c0100000000000000000000000000000000000000000000000000000000028152600401602060405180830381600087803b1580156200162957600080fd5b505af11580156200163e573d6000803e3d6000fd5b505050506040513d60208110156200165557600080fd5b810190808051906020019092919050505091508173ffffffffffffffffffffffffffffffffffffffff163373ffffffffffffffffffffffffffffffffffffffff1614151515620016a457600080fd5b8573ffffffffffffffffffffffffffffffffffffffff16632a8d26e86040518163ffffffff167c0100000000000000000000000000000000000000000000000000000000028152600401600060405180830381600087803b1580156200170957600080fd5b505af11580156200171e573d6000803e3d6000fd5b505050506200173584848763ffffffff16620021a3565b9650505050505050919050565b6000600d54905090565b600260009054906101000a900473ffffffffffffffffffffffffffffffffffffffff1673ffffffffffffffffffffffffffffffffffffffff163373ffffffffffffffffffffffffffffffffffffffff16141515620017a957600080fd5b620017ea816040805190810160405280600581526020017f61646d696e000000000000000000000000000000000000000000000000000000815250620023c9565b50565b60008060008373ffffffffffffffffffffffffffffffffffffffff1673ffffffffffffffffffffffffffffffffffffffff168152602001908152602001600020549050919050565b6040805190810160405280600581526020017f61646d696e00000000000000000000000000000000000000000000000000000081525081565b6040805190810160405280600581526020017f61646d696e000000000000000000000000000000000000000000000000000000815250620018b0338262000cb1565b81600d8190555033600e60006101000a81548173ffffffffffffffffffffffffffffffffffffffff021916908373ffffffffffffffffffffffffffffffffffffffff1602179055505050565b600260009054906101000a900473ffffffffffffffffffffffffffffffffffffffff1681565b60003373ffffffffffffffffffffffffffffffffffffffff16600260009054906101000a900473ffffffffffffffffffffffffffffffffffffffff1673ffffffffffffffffffffffffffffffffffffffff1614905090565b6007818154811015156200198a57fe5b906000526020600020016000915054906101000a900473ffffffffffffffffffffffffffffffffffffffff1681565b60058054600181600116156101000203166002900480601f01602080910402602001604051908101604052809291908181526020018280546001816001161561010002031660029004801562001a535780601f1062001a275761010080835404028352916020019162001a53565b820191906000526020600020905b81548152906001019060200180831162001a3557829003601f168201915b505050505081565b6000600854905090565b6040805190810160405280600581526020017f61646d696e00000000000000000000000000000000000000000000000000000081525062001aa7338262000cb1565b811515600b60009054906101000a900460ff1615151415151562001aca57600080fd5b6001600b60016101000a81548160ff02191690831515021790555033600b60026101000a81548173ffffffffffffffffffffffffffffffffffffffff021916908373ffffffffffffffffffffffffffffffffffffffff1602179055505050565b6000600260009054906101000a900473ffffffffffffffffffffffffffffffffffffffff1673ffffffffffffffffffffffffffffffffffffffff168373ffffffffffffffffffffffffffffffffffffffff1614151562001ba85760011515600b60009054906101000a900460ff16151514151562001ba757600080fd5b5b62001be9336040805190810160405280600581526020017f61646d696e00000000000000000000000000000000000000000000000000000081525062000df0565b15151562001bf657600080fd5b62001c03833384620021a3565b905092915050565b600062001c4e336040805190810160405280600581526020017f61646d696e00000000000000000000000000000000000000000000000000000081525062000df0565b905090565b6000600a54905090565b60085481565b600260009054906101000a900473ffffffffffffffffffffffffffffffffffffffff1673ffffffffffffffffffffffffffffffffffffffff163373ffffffffffffffffffffffffffffffffffffffff1614151562001cc057600080fd5b600073ffffffffffffffffffffffffffffffffffffffff168173ffffffffffffffffffffffffffffffffffffffff161415151562001cfd57600080fd5b8073ffffffffffffffffffffffffffffffffffffffff16600260009054906101000a900473ffffffffffffffffffffffffffffffffffffffff1673ffffffffffffffffffffffffffffffffffffffff167f8be0079c531659141344cd1fd0a4f28419497f9722a3daafe3b4186f6b6457e060405160405180910390a380600260006101000a81548173ffffffffffffffffffffffffffffffffffffffff021916908373ffffffffffffffffffffffffffffffffffffffff16021790555050565b6000806040805190810160405280600581526020017f61646d696e00000000000000000000000000000000000000000000000000000081525062001e02338262000cb1565b8391508173ffffffffffffffffffffffffffffffffffffffff16639b012dec6040518163ffffffff167c0100000000000000000000000000000000000000000000000000000000028152600401600060405180830381600087803b15801562001e6a57600080fd5b505af115801562001e7f573d6000803e3d6000fd5b505050505050919050565b62001e96828262001ffe565b151562001ea257600080fd5b5050565b62001f27826003836040518082805190602001908083835b60208310151562001ee5578051825260208201915060208101905060208303925062001ebe565b6001836020036101000a03801982511681845116808217855250505050505090500191505090815260200160405180910390206200252190919063ffffffff16565b7fd211483f91fc6eff862467f8de606587a30c8fc9981056f051b897a418df803a8282604051808373ffffffffffffffffffffffffffffffffffffffff1673ffffffffffffffffffffffffffffffffffffffff16815260200180602001828103825283818151815260200191508051906020019080838360005b8381101562001fbe57808201518184015260208101905062001fa1565b50505050905090810190601f16801562001fec5780820380516001836020036101000a031916815260200191505b50935050505060405180910390a15050565b60008260000160008373ffffffffffffffffffffffffffffffffffffffff1673ffffffffffffffffffffffffffffffffffffffff16815260200190815260200160002060009054906101000a900460ff16905092915050565b6000818486856200206762002614565b808563ffffffff1663ffffffff1681526020018473ffffffffffffffffffffffffffffffffffffffff1673ffffffffffffffffffffffffffffffffffffffff1681526020018373ffffffffffffffffffffffffffffffffffffffff1673ffffffffffffffffffffffffffffffffffffffff1681526020018273ffffffffffffffffffffffffffffffffffffffff1673ffffffffffffffffffffffffffffffffffffffff168152602001945050505050604051809103906000f08015801562002133573d6000803e3d6000fd5b50905060078190806001815401808255809150509060018203906000526020600020016000909192909190916101000a81548173ffffffffffffffffffffffffffffffffffffffff021916908373ffffffffffffffffffffffffffffffffffffffff160217905550505050505050565b60008073ffffffffffffffffffffffffffffffffffffffff168473ffffffffffffffffffffffffffffffffffffffff1614151515620021e157600080fd5b6000808473ffffffffffffffffffffffffffffffffffffffff1673ffffffffffffffffffffffffffffffffffffffff1681526020019081526020016000205482111515156200222f57600080fd5b62002282826000808673ffffffffffffffffffffffffffffffffffffffff1673ffffffffffffffffffffffffffffffffffffffff168152602001908152602001600020546200257f90919063ffffffff16565b6000808573ffffffffffffffffffffffffffffffffffffffff1673ffffffffffffffffffffffffffffffffffffffff1681526020019081526020016000208190555062002317826000808773ffffffffffffffffffffffffffffffffffffffff1673ffffffffffffffffffffffffffffffffffffffff168152602001908152602001600020546200259990919063ffffffff16565b6000808673ffffffffffffffffffffffffffffffffffffffff1673ffffffffffffffffffffffffffffffffffffffff168152602001908152602001600020819055508373ffffffffffffffffffffffffffffffffffffffff168373ffffffffffffffffffffffffffffffffffffffff167fddf252ad1be2c89b69c2b068fc378daa952ba7f163c4a11628f55a4df523b3ef846040518082815260200191505060405180910390a3600190509392505050565b6200244a826003836040518082805190602001908083835b602083101515620024085780518252602082019150602081019050602083039250620023e1565b6001836020036101000a0380198251168184511680821785525050505050509050019150509081526020016040518091039020620025b690919063ffffffff16565b7fbfec83d64eaa953f2708271a023ab9ee82057f8f3578d548c1a4ba0b5b7004898282604051808373ffffffffffffffffffffffffffffffffffffffff1673ffffffffffffffffffffffffffffffffffffffff16815260200180602001828103825283818151815260200191508051906020019080838360005b83811015620024e1578082015181840152602081019050620024c4565b50505050905090810190601f1680156200250f5780820380516001836020036101000a031916815260200191505b50935050505060405180910390a15050565b60008260000160008373ffffffffffffffffffffffffffffffffffffffff1673ffffffffffffffffffffffffffffffffffffffff16815260200190815260200160002060006101000a81548160ff0219169083151502179055505050565b60008282111515156200258e57fe5b818303905092915050565b60008183019050828110151515620025ad57fe5b80905092915050565b60018260000160008373ffffffffffffffffffffffffffffffffffffffff1673ffffffffffffffffffffffffffffffffffffffff16815260200190815260200160002060006101000a81548160ff0219169083151502179055505050565b604051610e57806200262683390190560060806040526040805190810160405280601081526020017f4d756c74695369675472616e73666572000000000000000000000000000000008152506001908051906020019061004f92919061024c565b506040805190810160405280600381526020017f4d535400000000000000000000000000000000000000000000000000000000008152506002908051906020019061009b92919061024c565b506000600360006101000a81548160ff0219169083151502179055506000600360016101000a81548160ff0219169083151502179055503480156100de57600080fd5b50604051608080610e5783398101806040528101908080519060200190929190805190602001909291908051906020019092919080519060200190929190505050336000806101000a81548173ffffffffffffffffffffffffffffffffffffffff021916908373ffffffffffffffffffffffffffffffffffffffff16021790555083600360026101000a81548163ffffffff021916908363ffffffff16021790555082600360066101000a81548173ffffffffffffffffffffffffffffffffffffffff021916908373ffffffffffffffffffffffffffffffffffffffff16021790555081600460006101000a81548173ffffffffffffffffffffffffffffffffffffffff021916908373ffffffffffffffffffffffffffffffffffffffff16021790555080600560006101000a81548173ffffffffffffffffffffffffffffffffffffffff021916908373ffffffffffffffffffffffffffffffffffffffff160217905550505050506102f1565b828054600181600116156101000203166002900490600052602060002090601f016020900481019282601f1061028d57805160ff19168380011785556102bb565b828001600101855582156102bb579182015b828111156102ba57825182559160200191906001019061029f565b5b5090506102c891906102cc565b5090565b6102ee91905b808211156102ea5760008160009055506001016102d2565b5090565b90565b610b57806103006000396000f3006080604052600436106100f1576000357c0100000000000000000000000000000000000000000000000000000000900463ffffffff1680630115949c146100f657806306fdde031461012d57806317fc45e2146101bd5780632a8d26e8146101f45780635210eb561461020b578063522e11771461026257806363d1302c146102915780636f338a22146102e8578063794542ad1461033f5780638c180f7a1461036e5780638da5cb5b146103c557806395d89b411461041c5780639b012dec146104ac5780639c30ad7e146104c3578063cae30983146104f2578063d424ee7d14610549578063f2fde38b146105a0575b600080fd5b34801561010257600080fd5b5061010b6105e3565b604051808263ffffffff1663ffffffff16815260200191505060405180910390f35b34801561013957600080fd5b506101426105fd565b6040518080602001828103825283818151815260200191508051906020019080838360005b83811015610182578082015181840152602081019050610167565b50505050905090810190601f1680156101af5780820380516001836020036101000a031916815260200191505b509250505060405180910390f35b3480156101c957600080fd5b506101d261069b565b604051808263ffffffff1663ffffffff16815260200191505060405180910390f35b34801561020057600080fd5b506102096106b1565b005b34801561021757600080fd5b5061022061074b565b604051808273ffffffffffffffffffffffffffffffffffffffff1673ffffffffffffffffffffffffffffffffffffffff16815260200191505060405180910390f35b34801561026e57600080fd5b50610277610771565b604051808215151515815260200191505060405180910390f35b34801561029d57600080fd5b506102a6610784565b604051808273ffffffffffffffffffffffffffffffffffffffff1673ffffffffffffffffffffffffffffffffffffffff16815260200191505060405180910390f35b3480156102f457600080fd5b506102fd6107aa565b604051808273ffffffffffffffffffffffffffffffffffffffff1673ffffffffffffffffffffffffffffffffffffffff16815260200191505060405180910390f35b34801561034b57600080fd5b506103546107d4565b604051808215151515815260200191505060405180910390f35b34801561037a57600080fd5b506103836107e7565b604051808273ffffffffffffffffffffffffffffffffffffffff1673ffffffffffffffffffffffffffffffffffffffff16815260200191505060405180910390f35b3480156103d157600080fd5b506103da610811565b604051808273ffffffffffffffffffffffffffffffffffffffff1673ffffffffffffffffffffffffffffffffffffffff16815260200191505060405180910390f35b34801561042857600080fd5b50610431610836565b6040518080602001828103825283818151815260200191508051906020019080838360005b83811015610471578082015181840152602081019050610456565b50505050905090810190601f16801561049e5780820380516001836020036101000a031916815260200191505b509250505060405180910390f35b3480156104b857600080fd5b506104c16108d4565b005b3480156104cf57600080fd5b506104d861096e565b604051808215151515815260200191505060405180910390f35b3480156104fe57600080fd5b50610507610986565b604051808273ffffffffffffffffffffffffffffffffffffffff1673ffffffffffffffffffffffffffffffffffffffff16815260200191505060405180910390f35b34801561055557600080fd5b5061055e6109b0565b604051808273ffffffffffffffffffffffffffffffffffffffff1673ffffffffffffffffffffffffffffffffffffffff16815260200191505060405180910390f35b3480156105ac57600080fd5b506105e1600480360381019080803573ffffffffffffffffffffffffffffffffffffffff1690602001909291905050506109d6565b005b6000600360029054906101000a900463ffffffff16905090565b60018054600181600116156101000203166002900480601f0160208091040260200160405190810160405280929190818152602001828054600181600116156101000203166002900480156106935780601f1061066857610100808354040283529160200191610693565b820191906000526020600020905b81548152906001019060200180831161067657829003601f168201915b505050505081565b600360029054906101000a900463ffffffff1681565b6000809054906101000a900473ffffffffffffffffffffffffffffffffffffffff1673ffffffffffffffffffffffffffffffffffffffff163373ffffffffffffffffffffffffffffffffffffffff1614151561070c57600080fd5b60001515600360009054906101000a900460ff16151514151561072e57600080fd5b6001600360006101000a81548160ff021916908315150217905550565b600360069054906101000a900473ffffffffffffffffffffffffffffffffffffffff1681565b600360009054906101000a900460ff1681565b600460009054906101000a900473ffffffffffffffffffffffffffffffffffffffff1681565b6000600360069054906101000a900473ffffffffffffffffffffffffffffffffffffffff16905090565b600360019054906101000a900460ff1681565b6000600460009054906101000a900473ffffffffffffffffffffffffffffffffffffffff16905090565b6000809054906101000a900473ffffffffffffffffffffffffffffffffffffffff1681565b60028054600181600116156101000203166002900480601f0160208091040260200160405190810160405280929190818152602001828054600181600116156101000203166002900480156108cc5780601f106108a1576101008083540402835291602001916108cc565b820191906000526020600020905b8154815290600101906020018083116108af57829003601f168201915b505050505081565b6000809054906101000a900473ffffffffffffffffffffffffffffffffffffffff1673ffffffffffffffffffffffffffffffffffffffff163373ffffffffffffffffffffffffffffffffffffffff1614151561092f57600080fd5b60001515600360019054906101000a900460ff16151514151561095157600080fd5b6001600360016101000a81548160ff021916908315150217905550565b6000600360009054906101000a900460ff1615905090565b6000600560009054906101000a900473ffffffffffffffffffffffffffffffffffffffff16905090565b600560009054906101000a900473ffffffffffffffffffffffffffffffffffffffff1681565b6000809054906101000a900473ffffffffffffffffffffffffffffffffffffffff1673ffffffffffffffffffffffffffffffffffffffff163373ffffffffffffffffffffffffffffffffffffffff16141515610a3157600080fd5b600073ffffffffffffffffffffffffffffffffffffffff168173ffffffffffffffffffffffffffffffffffffffff1614151515610a6d57600080fd5b8073ffffffffffffffffffffffffffffffffffffffff166000809054906101000a900473ffffffffffffffffffffffffffffffffffffffff1673ffffffffffffffffffffffffffffffffffffffff167f8be0079c531659141344cd1fd0a4f28419497f9722a3daafe3b4186f6b6457e060405160405180910390a3806000806101000a81548173ffffffffffffffffffffffffffffffffffffffff021916908373ffffffffffffffffffffffffffffffffffffffff160217905550505600a165627a7a723058201639d13239248acda3b02eeacc6bdb48bd1cd6c4c20573d78efb475f682199ec0029a165627a7a723058204bfecec5a960cc2d8b56583f288e4d50c07e7563942fafa59beeb15e777300820029",
  "source": "pragma solidity ^0.4.23;\n\nimport \"zeppelin-solidity/contracts/token/ERC20/StandardToken.sol\";\nimport \"zeppelin-solidity/contracts/ownership/Ownable.sol\";\nimport \"zeppelin-solidity/contracts/ownership/rbac/RBAC.sol\";\nimport \"./MultiSigTransfer.sol\";\n\ncontract KinesisVelocityToken is BasicToken, Ownable, RBAC {\n  string public name = \"KinesisVelocityToken\";\n  string public symbol = \"KVT\";\n  uint8 public decimals = 0;\n  string public constant ADMIN_ROLE = \"admin\";\n\n  address[] public transfers;\n\n\t/* This is 0.1 ETH */\n  uint256 public pricePerTokenInWei = 100000000000000000;\n\n  uint public INITIAL_SUPPLY = 300000;\n  uint public totalSupply = 0;\n\n  bool public isTransferable = false;\n  bool toggleTransferablePending = false;\n  address transferToggleRequester = address(0);\n\n  /*\n    We treat the God address as our trust account.\n    Only whitelisted admins can move funds from this account\n  */\n  address trustAccount = address(0);\n\n  constructor() public {\n    totalSupply = INITIAL_SUPPLY;\n    balances[msg.sender] = INITIAL_SUPPLY;\n    addRole(msg.sender, ADMIN_ROLE);\n  }\n\n\tfunction isOwner() public view returns (bool) {\n\t\treturn owner == msg.sender;\n\t}\n\n  function isAdmin() public view returns (bool) {\n    /* Inherited from Whitelist.sol */\n    return hasRole(msg.sender, ADMIN_ROLE);\n  }\n\n  function setAdmin(address newAdmin) public onlyOwner {\n    return addRole(newAdmin, ADMIN_ROLE);\n  }\n\n  function removeAdmin(address oldAdmin) public onlyOwner {\n    return removeRole(oldAdmin, ADMIN_ROLE);\n  }\n\n  /* Multi-Signature on Transferable state */\n  function getTransferableState() public view returns (bool) {\n    return isTransferable;\n  }\n\n  function isToggleTransferablePending() public view returns (bool) {\n    return toggleTransferablePending;\n  }\n\n  function setTransferable(bool toState) public onlyRole(ADMIN_ROLE) {\n    require(isTransferable != toState);\n    toggleTransferablePending = true;\n    transferToggleRequester = msg.sender;\n  }\n\n  function approveTransferableToggle() public onlyRole(ADMIN_ROLE) {\n    require(toggleTransferablePending == true);\n    require(transferToggleRequester != msg.sender);\n    isTransferable = !isTransferable;\n    toggleTransferablePending = false;\n    transferToggleRequester = address(0);\n  }\n\n  /* Multi-Signature on Price Changes */\n  uint256 pendingPriceChange = 0;\n  address priceChangeRequester = address(0);\n\n  function getPendingPriceChange() public view returns (uint256) {\n    return pendingPriceChange;\n  }\n\n  function requestPriceChange(uint priceChangeInWei) public onlyRole(ADMIN_ROLE) {\n    pendingPriceChange = priceChangeInWei;\n    priceChangeRequester = msg.sender;\n  }\n\n  function approvePriceChange() public onlyRole(ADMIN_ROLE) {\n    require(msg.sender != priceChangeRequester);\n    require(pendingPriceChange != 0);\n    pricePerTokenInWei = pendingPriceChange;\n    pendingPriceChange = 0;\n    priceChangeRequester = address(0);\n  }\n\n  /**\n  * @dev transfer token for a specified address\n  * @param _to The address to transfer to.\n  * @param _value The amount to be transferred.\n  */\n  function _transfer(address _to, address _from, uint256 _value) private returns (bool) {\n    require(_to != address(0));\n    require(_value <= balances[_from]);\n\n    // SafeMath.sub will throw if there is not enough balance.\n    balances[_from] = balances[_from].sub(_value);\n    balances[_to] = balances[_to].add(_value);\n    emit Transfer(_from, _to, _value);\n    return true;\n  }\n\n  function transfer(address _to, uint256 _value) public returns (bool) {\n    if (_to != owner) {\n      require(isTransferable == true);\n    }\n\n    require(!hasRole(msg.sender, ADMIN_ROLE));\n    return _transfer(_to, msg.sender, _value);\n  }\n\n  /* Transfer funds from the Trust 0x00 Address to the desired location */\n  function trustTransfer(address to, uint32 quantity) public onlyRole(ADMIN_ROLE) {\n    newMultiSigTransfer(trustAccount, to, msg.sender, quantity);\n  }\n\n  function adminTransfer(address to, uint32 quantity) public onlyRole(ADMIN_ROLE) {\n    newMultiSigTransfer(owner, to, msg.sender, quantity);\n  }\n\n  function newMultiSigTransfer(address from, address to, address requester, uint32 quantity) internal {\n    address newTransfer = new MultiSigTransfer(quantity, to, from, requester);\n    transfers.push(newTransfer);\n  }\n\n  function approveTransfer(address approvedTransfer) public onlyRole(ADMIN_ROLE) returns (bool) {\n    MultiSigTransfer transferToApprove = MultiSigTransfer(approvedTransfer);\n    uint32 transferQuantity = transferToApprove.getQuantity();\n    address deliveryAddress = transferToApprove.getTargetAddress();\n    address fromAddress = transferToApprove.getFromAddress();\n    address requesterAddress = transferToApprove.getRequesterAddress();\n    require(msg.sender != requesterAddress);\n    transferToApprove.approveTransfer();\n    return _transfer(deliveryAddress, fromAddress, transferQuantity);\n  }\n\n  function denyTransfer(address approvedTransfer) public onlyRole(ADMIN_ROLE) returns (bool) {\n    MultiSigTransfer transferToApprove = MultiSigTransfer(approvedTransfer);\n    transferToApprove.denyTransfer();\n  }\n\n  /* This is a payable copy of the above function that, when the correct eth is provided, moves tokens from\n  the owner, to the buyer */\n  function buyToken(uint256 quantity) public payable returns (bool) {\n    require(!hasRole(msg.sender, ADMIN_ROLE));\n\n    /* Transfer the set wei to abx, then we give the user their token */\n    owner.transfer(quantity * pricePerTokenInWei);\n\n    return _transfer(msg.sender, owner, quantity);\n  }\n\n  /* balanceOf is already implemented. So we just need a getTotalSupply() so we can show users the percentage they own */\n\tfunction getTotalSupply() public view returns (uint256) {\n\t\treturn totalSupply;\n\t}\n\n\tfunction getPrice() public view returns (uint256) {\n\t\treturn pricePerTokenInWei;\n\t}\n\n  function getTransfers() public view returns (address[]) {\n    return transfers;\n  }\n}\n",
  "sourcePath": "/Users/samjeston/Projects/kairos-promo/contracts/KinesisVelocityToken.sol",
  "compiler": {
    "name": "solc",
    "version": "0.4.24+commit.e67f0147.Emscripten.clang"
  },
  "schemaVersion": "2.0.0",
  "updatedAt": "2018-05-30T04:06:16.323Z"
}