{
  "contractName": "KinesisVelocityToken",
  "abi": [
    {
      "constant": true,
      "inputs": [],
      "name": "name",
      "outputs": [
        {
          "name": "",
          "type": "string"
        }
      ],
      "payable": false,
      "stateMutability": "view",
      "type": "function"
    },
    {
      "constant": true,
      "inputs": [
        {
          "name": "addr",
          "type": "address"
        },
        {
          "name": "roleName",
          "type": "string"
        }
      ],
      "name": "checkRole",
      "outputs": [],
      "payable": false,
      "stateMutability": "view",
      "type": "function"
    },
    {
      "constant": true,
      "inputs": [],
      "name": "totalSupply",
      "outputs": [
        {
          "name": "",
          "type": "uint256"
        }
      ],
      "payable": false,
      "stateMutability": "view",
      "type": "function"
    },
    {
      "constant": true,
      "inputs": [],
      "name": "isTransferable",
      "outputs": [
        {
          "name": "",
          "type": "bool"
        }
      ],
      "payable": false,
      "stateMutability": "view",
      "type": "function"
    },
    {
      "constant": true,
      "inputs": [
        {
          "name": "addr",
          "type": "address"
        },
        {
          "name": "roleName",
          "type": "string"
        }
      ],
      "name": "hasRole",
      "outputs": [
        {
          "name": "",
          "type": "bool"
        }
      ],
      "payable": false,
      "stateMutability": "view",
      "type": "function"
    },
    {
      "constant": true,
      "inputs": [],
      "name": "INITIAL_SUPPLY",
      "outputs": [
        {
          "name": "",
          "type": "uint256"
        }
      ],
      "payable": false,
      "stateMutability": "view",
      "type": "function"
    },
    {
      "constant": true,
      "inputs": [],
      "name": "decimals",
      "outputs": [
        {
          "name": "",
          "type": "uint8"
        }
      ],
      "payable": false,
      "stateMutability": "view",
      "type": "function"
    },
    {
      "constant": true,
      "inputs": [
        {
          "name": "_owner",
          "type": "address"
        }
      ],
      "name": "balanceOf",
      "outputs": [
        {
          "name": "",
          "type": "uint256"
        }
      ],
      "payable": false,
      "stateMutability": "view",
      "type": "function"
    },
    {
      "constant": true,
      "inputs": [],
      "name": "ADMIN_ROLE",
      "outputs": [
        {
          "name": "",
          "type": "string"
        }
      ],
      "payable": false,
      "stateMutability": "view",
      "type": "function"
    },
    {
      "constant": true,
      "inputs": [],
      "name": "owner",
      "outputs": [
        {
          "name": "",
          "type": "address"
        }
      ],
      "payable": false,
      "stateMutability": "view",
      "type": "function"
    },
    {
      "constant": true,
      "inputs": [
        {
          "name": "",
          "type": "uint256"
        }
      ],
      "name": "transfers",
      "outputs": [
        {
          "name": "",
          "type": "address"
        }
      ],
      "payable": false,
      "stateMutability": "view",
      "type": "function"
    },
    {
      "constant": true,
      "inputs": [],
      "name": "symbol",
      "outputs": [
        {
          "name": "",
          "type": "string"
        }
      ],
      "payable": false,
      "stateMutability": "view",
      "type": "function"
    },
    {
      "constant": true,
      "inputs": [],
      "name": "pricePerTokenInWei",
      "outputs": [
        {
          "name": "",
          "type": "uint256"
        }
      ],
      "payable": false,
      "stateMutability": "view",
      "type": "function"
    },
    {
      "constant": false,
      "inputs": [
        {
          "name": "newOwner",
          "type": "address"
        }
      ],
      "name": "transferOwnership",
      "outputs": [],
      "payable": false,
      "stateMutability": "nonpayable",
      "type": "function"
    },
    {
      "inputs": [],
      "payable": false,
      "stateMutability": "nonpayable",
      "type": "constructor"
    },
    {
      "anonymous": false,
      "inputs": [
        {
          "indexed": false,
          "name": "addr",
          "type": "address"
        },
        {
          "indexed": false,
          "name": "roleName",
          "type": "string"
        }
      ],
      "name": "RoleAdded",
      "type": "event"
    },
    {
      "anonymous": false,
      "inputs": [
        {
          "indexed": false,
          "name": "addr",
          "type": "address"
        },
        {
          "indexed": false,
          "name": "roleName",
          "type": "string"
        }
      ],
      "name": "RoleRemoved",
      "type": "event"
    },
    {
      "anonymous": false,
      "inputs": [
        {
          "indexed": true,
          "name": "previousOwner",
          "type": "address"
        },
        {
          "indexed": true,
          "name": "newOwner",
          "type": "address"
        }
      ],
      "name": "OwnershipTransferred",
      "type": "event"
    },
    {
      "anonymous": false,
      "inputs": [
        {
          "indexed": true,
          "name": "from",
          "type": "address"
        },
        {
          "indexed": true,
          "name": "to",
          "type": "address"
        },
        {
          "indexed": false,
          "name": "value",
          "type": "uint256"
        }
      ],
      "name": "Transfer",
      "type": "event"
    },
    {
      "constant": true,
      "inputs": [],
      "name": "isOwner",
      "outputs": [
        {
          "name": "",
          "type": "bool"
        }
      ],
      "payable": false,
      "stateMutability": "view",
      "type": "function"
    },
    {
      "constant": true,
      "inputs": [],
      "name": "isAdmin",
      "outputs": [
        {
          "name": "",
          "type": "bool"
        }
      ],
      "payable": false,
      "stateMutability": "view",
      "type": "function"
    },
    {
      "constant": false,
      "inputs": [
        {
          "name": "newAdmin",
          "type": "address"
        }
      ],
      "name": "setAdmin",
      "outputs": [],
      "payable": false,
      "stateMutability": "nonpayable",
      "type": "function"
    },
    {
      "constant": false,
      "inputs": [
        {
          "name": "oldAdmin",
          "type": "address"
        }
      ],
      "name": "removeAdmin",
      "outputs": [],
      "payable": false,
      "stateMutability": "nonpayable",
      "type": "function"
    },
    {
      "constant": true,
      "inputs": [],
      "name": "getTransferableState",
      "outputs": [
        {
          "name": "",
          "type": "bool"
        }
      ],
      "payable": false,
      "stateMutability": "view",
      "type": "function"
    },
    {
      "constant": true,
      "inputs": [],
      "name": "isToggleTransferablePending",
      "outputs": [
        {
          "name": "",
          "type": "bool"
        }
      ],
      "payable": false,
      "stateMutability": "view",
      "type": "function"
    },
    {
      "constant": false,
      "inputs": [
        {
          "name": "toState",
          "type": "bool"
        }
      ],
      "name": "setTransferable",
      "outputs": [],
      "payable": false,
      "stateMutability": "nonpayable",
      "type": "function"
    },
    {
      "constant": false,
      "inputs": [],
      "name": "approveTransferableToggle",
      "outputs": [],
      "payable": false,
      "stateMutability": "nonpayable",
      "type": "function"
    },
    {
      "constant": true,
      "inputs": [],
      "name": "getPendingPriceChange",
      "outputs": [
        {
          "name": "",
          "type": "uint256"
        }
      ],
      "payable": false,
      "stateMutability": "view",
      "type": "function"
    },
    {
      "constant": false,
      "inputs": [
        {
          "name": "priceChangeInWei",
          "type": "uint256"
        }
      ],
      "name": "requestPriceChange",
      "outputs": [],
      "payable": false,
      "stateMutability": "nonpayable",
      "type": "function"
    },
    {
      "constant": false,
      "inputs": [],
      "name": "approvePriceChange",
      "outputs": [],
      "payable": false,
      "stateMutability": "nonpayable",
      "type": "function"
    },
    {
      "constant": false,
      "inputs": [
        {
          "name": "_to",
          "type": "address"
        },
        {
          "name": "_value",
          "type": "uint256"
        }
      ],
      "name": "transfer",
      "outputs": [
        {
          "name": "",
          "type": "bool"
        }
      ],
      "payable": false,
      "stateMutability": "nonpayable",
      "type": "function"
    },
    {
      "constant": false,
      "inputs": [
        {
          "name": "to",
          "type": "address"
        },
        {
          "name": "quantity",
          "type": "uint32"
        }
      ],
      "name": "trustTransfer",
      "outputs": [],
      "payable": false,
      "stateMutability": "nonpayable",
      "type": "function"
    },
    {
      "constant": false,
      "inputs": [
        {
          "name": "to",
          "type": "address"
        },
        {
          "name": "quantity",
          "type": "uint32"
        }
      ],
      "name": "adminTransfer",
      "outputs": [],
      "payable": false,
      "stateMutability": "nonpayable",
      "type": "function"
    },
    {
      "constant": false,
      "inputs": [
        {
          "name": "approvedTransfer",
          "type": "address"
        }
      ],
      "name": "approveTransfer",
      "outputs": [
        {
          "name": "",
          "type": "bool"
        }
      ],
      "payable": false,
      "stateMutability": "nonpayable",
      "type": "function"
    },
    {
      "constant": false,
      "inputs": [
        {
          "name": "approvedTransfer",
          "type": "address"
        }
      ],
      "name": "denyTransfer",
      "outputs": [
        {
          "name": "",
          "type": "bool"
        }
      ],
      "payable": false,
      "stateMutability": "nonpayable",
      "type": "function"
    },
    {
      "constant": false,
      "inputs": [
        {
          "name": "quantity",
          "type": "uint256"
        }
      ],
      "name": "buyToken",
      "outputs": [
        {
          "name": "",
          "type": "bool"
        }
      ],
      "payable": true,
      "stateMutability": "payable",
      "type": "function"
    },
    {
      "constant": true,
      "inputs": [],
      "name": "getTotalSupply",
      "outputs": [
        {
          "name": "",
          "type": "uint256"
        }
      ],
      "payable": false,
      "stateMutability": "view",
      "type": "function"
    },
    {
      "constant": true,
      "inputs": [],
      "name": "getPrice",
      "outputs": [
        {
          "name": "",
          "type": "uint256"
        }
      ],
      "payable": false,
      "stateMutability": "view",
      "type": "function"
    },
    {
      "constant": true,
      "inputs": [],
      "name": "getTransfers",
      "outputs": [
        {
          "name": "",
          "type": "address[]"
        }
      ],
      "payable": false,
      "stateMutability": "view",
      "type": "function"
    },
    {
      "constant": false,
      "inputs": [
        {
          "name": "burnable",
          "type": "uint256"
        }
      ],
      "name": "requestBurn",
      "outputs": [],
      "payable": false,
      "stateMutability": "nonpayable",
      "type": "function"
    },
    {
      "constant": false,
      "inputs": [],
      "name": "cancelBurn",
      "outputs": [],
      "payable": false,
      "stateMutability": "nonpayable",
      "type": "function"
    },
    {
      "constant": true,
      "inputs": [],
      "name": "isBurnPending",
      "outputs": [
        {
          "name": "",
          "type": "bool"
        }
      ],
      "payable": false,
      "stateMutability": "view",
      "type": "function"
    },
    {
      "constant": true,
      "inputs": [],
      "name": "pendingBurnNumber",
      "outputs": [
        {
          "name": "",
          "type": "uint256"
        }
      ],
      "payable": false,
      "stateMutability": "view",
      "type": "function"
    },
    {
      "constant": true,
      "inputs": [],
      "name": "getBurnRequester",
      "outputs": [
        {
          "name": "",
          "type": "address"
        }
      ],
      "payable": false,
      "stateMutability": "view",
      "type": "function"
    },
    {
      "constant": false,
      "inputs": [],
      "name": "approveBurn",
      "outputs": [],
      "payable": false,
      "stateMutability": "nonpayable",
      "type": "function"
    }
  ],
  "bytecode": "0x60806040526040805190810160405280601481526020017f4b696e6573697356656c6f63697479546f6b656e0000000000000000000000008152506004908051906020019062000051929190620004ee565b506040805190810160405280600381526020017f4b56540000000000000000000000000000000000000000000000000000000000815250600590805190602001906200009f929190620004ee565b506000600660006101000a81548160ff021916908360ff16021790555067016345785d8a0000600855620493e06009556000600a556000600b60006101000a81548160ff0219169083151502179055506000600b60016101000a81548160ff0219169083151502179055506000600b60026101000a81548173ffffffffffffffffffffffffffffffffffffffff021916908373ffffffffffffffffffffffffffffffffffffffff1602179055506000600c60006101000a81548173ffffffffffffffffffffffffffffffffffffffff021916908373ffffffffffffffffffffffffffffffffffffffff1602179055506000600d556000600e60006101000a81548173ffffffffffffffffffffffffffffffffffffffff021916908373ffffffffffffffffffffffffffffffffffffffff1602179055506000600e60146101000a81548160ff0219169083151502179055506000600f556000601060006101000a81548173ffffffffffffffffffffffffffffffffffffffff021916908373ffffffffffffffffffffffffffffffffffffffff1602179055503480156200024457600080fd5b5033600260006101000a81548173ffffffffffffffffffffffffffffffffffffffff021916908373ffffffffffffffffffffffffffffffffffffffff160217905550600954600a819055506009546000803373ffffffffffffffffffffffffffffffffffffffff1673ffffffffffffffffffffffffffffffffffffffff1681526020019081526020016000208190555062000324336040805190810160405280600581526020017f61646d696e0000000000000000000000000000000000000000000000000000008152506200032a640100000000026401000000009004565b6200059d565b620003b9826003836040518082805190602001908083835b60208310151562000369578051825260208201915060208101905060208303925062000342565b6001836020036101000a0380198251168184511680821785525050505050509050019150509081526020016040518091039020620004906401000000000262002c3a179091906401000000009004565b7fbfec83d64eaa953f2708271a023ab9ee82057f8f3578d548c1a4ba0b5b7004898282604051808373ffffffffffffffffffffffffffffffffffffffff1673ffffffffffffffffffffffffffffffffffffffff16815260200180602001828103825283818151815260200191508051906020019080838360005b838110156200045057808201518184015260208101905062000433565b50505050905090810190601f1680156200047e5780820380516001836020036101000a031916815260200191505b50935050505060405180910390a15050565b60018260000160008373ffffffffffffffffffffffffffffffffffffffff1673ffffffffffffffffffffffffffffffffffffffff16815260200190815260200160002060006101000a81548160ff0219169083151502179055505050565b828054600181600116156101000203166002900490600052602060002090601f016020900481019282601f106200053157805160ff191683800117855562000562565b8280016001018555821562000562579182015b828111156200056157825182559160200191906001019062000544565b5b50905062000571919062000575565b5090565b6200059a91905b80821115620005965760008160009055506001016200057c565b5090565b90565b613b2c80620005ad6000396000f30060806040526004361062000217576000357c0100000000000000000000000000000000000000000000000000000000900463ffffffff16806306fdde03146200021c5780630988ca8c14620002b25780631785f53c146200033e57806318160ddd14620003845780632121dc7514620003b2578063217fe6c614620003e45780632894d6a814620004885780632ad0695e14620004de5780632b30b6fa14620004f85780632d296bf1146200052a5780632f65142c14620005645780632f8d75e314620005d55780632f8eed9814620006055780632ff2e9dc146200065b57806330fe0faa1462000689578063313ce56714620006bb57806340c3b18e14620006ef5780634355b9d214620007095780635c19ab11146200076757806364e8cbe3146200079557806369a441ce14620007c3578063704b6c0214620007dd57806370a08231146200082357806375b238fc146200087d5780638b03701514620009135780638da5cb5b14620009435780638f32d59b146200099d5780639377d71114620009cf57806395d89b411462000a3f57806398d5fdca1462000ad55780639cd237071462000b03578063a100447d1462000b35578063a8853a841462000b4f578063a9059cbb1462000b81578063b6db75a01462000be9578063c4e41b221462000c1b578063ca01e1331462000c49578063df520efc1462000ca3578063f2fde38b1462000cd1578063f5c4201f1462000d17575b600080fd5b3480156200022957600080fd5b506200023462000d75565b6040518080602001828103825283818151815260200191508051906020019080838360005b838110156200027657808201518184015260208101905062000259565b50505050905090810190601f168015620002a45780820380516001836020036101000a031916815260200191505b509250505060405180910390f35b348015620002bf57600080fd5b506200033c600480360381019080803573ffffffffffffffffffffffffffffffffffffffff169060200190929190803590602001908201803590602001908080601f016020809104026020016040519081016040528093929190818152602001838380828437820191505050505050919291929050505062000e17565b005b3480156200034b57600080fd5b5062000382600480360381019080803573ffffffffffffffffffffffffffffffffffffffff16906020019092919050505062000e9c565b005b3480156200039157600080fd5b506200039c62000f3d565b6040518082815260200191505060405180910390f35b348015620003bf57600080fd5b50620003ca62000f43565b604051808215151515815260200191505060405180910390f35b348015620003f157600080fd5b506200046e600480360381019080803573ffffffffffffffffffffffffffffffffffffffff169060200190929190803590602001908201803590602001908080601f016020809104026020016040519081016040528093929190818152602001838380828437820191505050505050919291929050505062000f56565b604051808215151515815260200191505060405180910390f35b3480156200049557600080fd5b50620004dc600480360381019080803573ffffffffffffffffffffffffffffffffffffffff169060200190929190803563ffffffff16906020019092919050505062000fe1565b005b348015620004eb57600080fd5b50620004f662001058565b005b3480156200050557600080fd5b506200051062001161565b604051808215151515815260200191505060405180910390f35b6200054a6004803603810190808035906020019092919050505062001178565b604051808215151515815260200191505060405180910390f35b3480156200057157600080fd5b506200057c6200126c565b6040518080602001828103825283818151815260200191508051906020019060200280838360005b83811015620005c1578082015181840152602081019050620005a4565b505050509050019250505060405180910390f35b348015620005e257600080fd5b506200060360048036038101908080359060200190929190505050620012fc565b005b3480156200061257600080fd5b5062000659600480360381019080803573ffffffffffffffffffffffffffffffffffffffff169060200190929190803563ffffffff16906020019092919050505062001438565b005b3480156200066857600080fd5b5062000673620014af565b6040518082815260200191505060405180910390f35b3480156200069657600080fd5b50620006a1620014b5565b604051808215151515815260200191505060405180910390f35b348015620006c857600080fd5b50620006d3620014cc565b604051808260ff1660ff16815260200191505060405180910390f35b348015620006fc57600080fd5b5062000707620014df565b005b3480156200071657600080fd5b506200074d600480360381019080803573ffffffffffffffffffffffffffffffffffffffff1690602001909291905050506200162c565b604051808215151515815260200191505060405180910390f35b3480156200077457600080fd5b506200077f620019e4565b6040518082815260200191505060405180910390f35b348015620007a257600080fd5b50620007ad620019ee565b6040518082815260200191505060405180910390f35b348015620007d057600080fd5b50620007db620019f8565b005b348015620007ea57600080fd5b5062000821600480360381019080803573ffffffffffffffffffffffffffffffffffffffff16906020019092919050505062001aa2565b005b3480156200083057600080fd5b5062000867600480360381019080803573ffffffffffffffffffffffffffffffffffffffff16906020019092919050505062001b43565b6040518082815260200191505060405180910390f35b3480156200088a57600080fd5b506200089562001b8b565b6040518080602001828103825283818151815260200191508051906020019080838360005b83811015620008d7578082015181840152602081019050620008ba565b50505050905090810190601f168015620009055780820380516001836020036101000a031916815260200191505b509250505060405180910390f35b3480156200092057600080fd5b50620009416004803603810190808035906020019092919050505062001bc4565b005b3480156200095057600080fd5b506200095b62001c52565b604051808273ffffffffffffffffffffffffffffffffffffffff1673ffffffffffffffffffffffffffffffffffffffff16815260200191505060405180910390f35b348015620009aa57600080fd5b50620009b562001c78565b604051808215151515815260200191505060405180910390f35b348015620009dc57600080fd5b50620009fd6004803603810190808035906020019092919050505062001cd0565b604051808273ffffffffffffffffffffffffffffffffffffffff1673ffffffffffffffffffffffffffffffffffffffff16815260200191505060405180910390f35b34801562000a4c57600080fd5b5062000a5762001d0f565b6040518080602001828103825283818151815260200191508051906020019080838360005b8381101562000a9957808201518184015260208101905062000a7c565b50505050905090810190601f16801562000ac75780820380516001836020036101000a031916815260200191505b509250505060405180910390f35b34801562000ae257600080fd5b5062000aed62001db1565b6040518082815260200191505060405180910390f35b34801562000b1057600080fd5b5062000b3360048036038101908080351515906020019092919050505062001dbb565b005b34801562000b4257600080fd5b5062000b4d62001e80565b005b34801562000b5c57600080fd5b5062000b6762001fc2565b604051808215151515815260200191505060405180910390f35b34801562000b8e57600080fd5b5062000bcf600480360381019080803573ffffffffffffffffffffffffffffffffffffffff1690602001909291908035906020019092919050505062001fd9565b604051808215151515815260200191505060405180910390f35b34801562000bf657600080fd5b5062000c01620020ba565b604051808215151515815260200191505060405180910390f35b34801562000c2857600080fd5b5062000c3362002102565b6040518082815260200191505060405180910390f35b34801562000c5657600080fd5b5062000c616200210c565b604051808273ffffffffffffffffffffffffffffffffffffffff1673ffffffffffffffffffffffffffffffffffffffff16815260200191505060405180910390f35b34801562000cb057600080fd5b5062000cbb62002136565b6040518082815260200191505060405180910390f35b34801562000cde57600080fd5b5062000d15600480360381019080803573ffffffffffffffffffffffffffffffffffffffff1690602001909291905050506200213c565b005b34801562000d2457600080fd5b5062000d5b600480360381019080803573ffffffffffffffffffffffffffffffffffffffff16906020019092919050505062002296565b604051808215151515815260200191505060405180910390f35b60048054600181600116156101000203166002900480601f01602080910402602001604051908101604052809291908181526020018280546001816001161561010002031660029004801562000e0f5780601f1062000de35761010080835404028352916020019162000e0f565b820191906000526020600020905b81548152906001019060200180831162000df157829003601f168201915b505050505081565b62000e98826003836040518082805190602001908083835b60208310151562000e56578051825260208201915060208101905060208303925062000e2f565b6001836020036101000a03801982511681845116808217855250505050505090500191505090815260200160405180910390206200236390919063ffffffff16565b5050565b600260009054906101000a900473ffffffffffffffffffffffffffffffffffffffff1673ffffffffffffffffffffffffffffffffffffffff163373ffffffffffffffffffffffffffffffffffffffff1614151562000ef957600080fd5b62000f3a816040805190810160405280600581526020017f61646d696e0000000000000000000000000000000000000000000000000000008152506200237f565b50565b600a5481565b600b60009054906101000a900460ff1681565b600062000fd9836003846040518082805190602001908083835b60208310151562000f97578051825260208201915060208101905060208303925062000f70565b6001836020036101000a0380198251168184511680821785525050505050509050019150509081526020016040518091039020620024d790919063ffffffff16565b905092915050565b6040805190810160405280600581526020017f61646d696e00000000000000000000000000000000000000000000000000000081525062001023338262000e17565b62001053600c60009054906101000a900473ffffffffffffffffffffffffffffffffffffffff1684338562002530565b505050565b6040805190810160405280600581526020017f61646d696e0000000000000000000000000000000000000000000000000000008152506200109a338262000e17565b600e60009054906101000a900473ffffffffffffffffffffffffffffffffffffffff1673ffffffffffffffffffffffffffffffffffffffff163373ffffffffffffffffffffffffffffffffffffffff1614151515620010f857600080fd5b6000600d54141515156200110b57600080fd5b600d546008819055506000600d819055506000600e60006101000a81548173ffffffffffffffffffffffffffffffffffffffff021916908373ffffffffffffffffffffffffffffffffffffffff16021790555050565b6000600b60019054906101000a900460ff16905090565b6000620011bb336040805190810160405280600581526020017f61646d696e00000000000000000000000000000000000000000000000000000081525062000f56565b151515620011c857600080fd5b600260009054906101000a900473ffffffffffffffffffffffffffffffffffffffff1673ffffffffffffffffffffffffffffffffffffffff166108fc60085484029081150290604051600060405180830381858888f1935050505015801562001235573d6000803e3d6000fd5b506200126533600260009054906101000a900473ffffffffffffffffffffffffffffffffffffffff16846200267c565b9050919050565b60606007805480602002602001604051908101604052809291908181526020018280548015620012f257602002820191906000526020600020905b8160009054906101000a900473ffffffffffffffffffffffffffffffffffffffff1673ffffffffffffffffffffffffffffffffffffffff1681526020019060010190808311620012a7575b5050505050905090565b6040805190810160405280600581526020017f61646d696e0000000000000000000000000000000000000000000000000000008152506200133e338262000e17565b60001515600e60149054906101000a900460ff1615151415156200136157600080fd5b81600080600260009054906101000a900473ffffffffffffffffffffffffffffffffffffffff1673ffffffffffffffffffffffffffffffffffffffff1673ffffffffffffffffffffffffffffffffffffffff1681526020019081526020016000205410151515620013d157600080fd5b6001600e60146101000a81548160ff02191690831515021790555081600f8190555033601060006101000a81548173ffffffffffffffffffffffffffffffffffffffff021916908373ffffffffffffffffffffffffffffffffffffffff1602179055505050565b6040805190810160405280600581526020017f61646d696e0000000000000000000000000000000000000000000000000000008152506200147a338262000e17565b620014aa600260009054906101000a900473ffffffffffffffffffffffffffffffffffffffff1684338562002530565b505050565b60095481565b6000600b60009054906101000a900460ff16905090565b600660009054906101000a900460ff1681565b6040805190810160405280600581526020017f61646d696e00000000000000000000000000000000000000000000000000000081525062001521338262000e17565b60011515600b60019054906101000a900460ff1615151415156200154457600080fd5b3373ffffffffffffffffffffffffffffffffffffffff16600b60029054906101000a900473ffffffffffffffffffffffffffffffffffffffff1673ffffffffffffffffffffffffffffffffffffffff1614151515620015a257600080fd5b600b60009054906101000a900460ff1615600b60006101000a81548160ff0219169083151502179055506000600b60016101000a81548160ff0219169083151502179055506000600b60026101000a81548173ffffffffffffffffffffffffffffffffffffffff021916908373ffffffffffffffffffffffffffffffffffffffff16021790555050565b6000806000806000806040805190810160405280600581526020017f61646d696e00000000000000000000000000000000000000000000000000000081525062001677338262000e17565b8795508573ffffffffffffffffffffffffffffffffffffffff16630115949c6040518163ffffffff167c0100000000000000000000000000000000000000000000000000000000028152600401602060405180830381600087803b158015620016df57600080fd5b505af1158015620016f4573d6000803e3d6000fd5b505050506040513d60208110156200170b57600080fd5b810190808051906020019092919050505094508573ffffffffffffffffffffffffffffffffffffffff16636f338a226040518163ffffffff167c0100000000000000000000000000000000000000000000000000000000028152600401602060405180830381600087803b1580156200178357600080fd5b505af115801562001798573d6000803e3d6000fd5b505050506040513d6020811015620017af57600080fd5b810190808051906020019092919050505093508573ffffffffffffffffffffffffffffffffffffffff16638c180f7a6040518163ffffffff167c0100000000000000000000000000000000000000000000000000000000028152600401602060405180830381600087803b1580156200182757600080fd5b505af11580156200183c573d6000803e3d6000fd5b505050506040513d60208110156200185357600080fd5b810190808051906020019092919050505092508573ffffffffffffffffffffffffffffffffffffffff1663cae309836040518163ffffffff167c0100000000000000000000000000000000000000000000000000000000028152600401602060405180830381600087803b158015620018cb57600080fd5b505af1158015620018e0573d6000803e3d6000fd5b505050506040513d6020811015620018f757600080fd5b810190808051906020019092919050505091508173ffffffffffffffffffffffffffffffffffffffff163373ffffffffffffffffffffffffffffffffffffffff16141515156200194657600080fd5b8573ffffffffffffffffffffffffffffffffffffffff16632a8d26e86040518163ffffffff167c0100000000000000000000000000000000000000000000000000000000028152600401600060405180830381600087803b158015620019ab57600080fd5b505af1158015620019c0573d6000803e3d6000fd5b50505050620019d784848763ffffffff166200267c565b9650505050505050919050565b6000600f54905090565b6000600d54905090565b6040805190810160405280600581526020017f61646d696e00000000000000000000000000000000000000000000000000000081525062001a3a338262000e17565b6000600e60146101000a81548160ff0219169083151502179055506000600f819055506000601060006101000a81548173ffffffffffffffffffffffffffffffffffffffff021916908373ffffffffffffffffffffffffffffffffffffffff16021790555050565b600260009054906101000a900473ffffffffffffffffffffffffffffffffffffffff1673ffffffffffffffffffffffffffffffffffffffff163373ffffffffffffffffffffffffffffffffffffffff1614151562001aff57600080fd5b62001b40816040805190810160405280600581526020017f61646d696e000000000000000000000000000000000000000000000000000000815250620028ec565b50565b60008060008373ffffffffffffffffffffffffffffffffffffffff1673ffffffffffffffffffffffffffffffffffffffff168152602001908152602001600020549050919050565b6040805190810160405280600581526020017f61646d696e00000000000000000000000000000000000000000000000000000081525081565b6040805190810160405280600581526020017f61646d696e00000000000000000000000000000000000000000000000000000081525062001c06338262000e17565b81600d8190555033600e60006101000a81548173ffffffffffffffffffffffffffffffffffffffff021916908373ffffffffffffffffffffffffffffffffffffffff1602179055505050565b600260009054906101000a900473ffffffffffffffffffffffffffffffffffffffff1681565b60003373ffffffffffffffffffffffffffffffffffffffff16600260009054906101000a900473ffffffffffffffffffffffffffffffffffffffff1673ffffffffffffffffffffffffffffffffffffffff1614905090565b60078181548110151562001ce057fe5b906000526020600020016000915054906101000a900473ffffffffffffffffffffffffffffffffffffffff1681565b60058054600181600116156101000203166002900480601f01602080910402602001604051908101604052809291908181526020018280546001816001161561010002031660029004801562001da95780601f1062001d7d5761010080835404028352916020019162001da9565b820191906000526020600020905b81548152906001019060200180831162001d8b57829003601f168201915b505050505081565b6000600854905090565b6040805190810160405280600581526020017f61646d696e00000000000000000000000000000000000000000000000000000081525062001dfd338262000e17565b811515600b60009054906101000a900460ff1615151415151562001e2057600080fd5b6001600b60016101000a81548160ff02191690831515021790555033600b60026101000a81548173ffffffffffffffffffffffffffffffffffffffff021916908373ffffffffffffffffffffffffffffffffffffffff1602179055505050565b6040805190810160405280600581526020017f61646d696e00000000000000000000000000000000000000000000000000000081525062001ec2338262000e17565b601060009054906101000a900473ffffffffffffffffffffffffffffffffffffffff1673ffffffffffffffffffffffffffffffffffffffff163373ffffffffffffffffffffffffffffffffffffffff161415151562001f2057600080fd5b600f54600080600260009054906101000a900473ffffffffffffffffffffffffffffffffffffffff1673ffffffffffffffffffffffffffffffffffffffff1673ffffffffffffffffffffffffffffffffffffffff168152602001908152602001600020541015151562001f9257600080fd5b60011515600e60149054906101000a900460ff16151514151562001fb557600080fd5b62001fbf62002a44565b50565b6000600e60149054906101000a900460ff16905090565b6000600260009054906101000a900473ffffffffffffffffffffffffffffffffffffffff1673ffffffffffffffffffffffffffffffffffffffff168373ffffffffffffffffffffffffffffffffffffffff16141515620020575760011515600b60009054906101000a900460ff1615151415156200205657600080fd5b5b62002098336040805190810160405280600581526020017f61646d696e00000000000000000000000000000000000000000000000000000081525062000f56565b151515620020a557600080fd5b620020b28333846200267c565b905092915050565b6000620020fd336040805190810160405280600581526020017f61646d696e00000000000000000000000000000000000000000000000000000081525062000f56565b905090565b6000600a54905090565b6000601060009054906101000a900473ffffffffffffffffffffffffffffffffffffffff16905090565b60085481565b600260009054906101000a900473ffffffffffffffffffffffffffffffffffffffff1673ffffffffffffffffffffffffffffffffffffffff163373ffffffffffffffffffffffffffffffffffffffff161415156200219957600080fd5b600073ffffffffffffffffffffffffffffffffffffffff168173ffffffffffffffffffffffffffffffffffffffff1614151515620021d657600080fd5b8073ffffffffffffffffffffffffffffffffffffffff16600260009054906101000a900473ffffffffffffffffffffffffffffffffffffffff1673ffffffffffffffffffffffffffffffffffffffff167f8be0079c531659141344cd1fd0a4f28419497f9722a3daafe3b4186f6b6457e060405160405180910390a380600260006101000a81548173ffffffffffffffffffffffffffffffffffffffff021916908373ffffffffffffffffffffffffffffffffffffffff16021790555050565b6000806040805190810160405280600581526020017f61646d696e000000000000000000000000000000000000000000000000000000815250620022db338262000e17565b8391508173ffffffffffffffffffffffffffffffffffffffff16639b012dec6040518163ffffffff167c0100000000000000000000000000000000000000000000000000000000028152600401600060405180830381600087803b1580156200234357600080fd5b505af115801562002358573d6000803e3d6000fd5b505050505050919050565b6200236f8282620024d7565b15156200237b57600080fd5b5050565b62002400826003836040518082805190602001908083835b602083101515620023be578051825260208201915060208101905060208303925062002397565b6001836020036101000a038019825116818451168082178552505050505050905001915050908152602001604051809103902062002ba590919063ffffffff16565b7fd211483f91fc6eff862467f8de606587a30c8fc9981056f051b897a418df803a8282604051808373ffffffffffffffffffffffffffffffffffffffff1673ffffffffffffffffffffffffffffffffffffffff16815260200180602001828103825283818151815260200191508051906020019080838360005b83811015620024975780820151818401526020810190506200247a565b50505050905090810190601f168015620024c55780820380516001836020036101000a031916815260200191505b50935050505060405180910390a15050565b60008260000160008373ffffffffffffffffffffffffffffffffffffffff1673ffffffffffffffffffffffffffffffffffffffff16815260200190815260200160002060009054906101000a900460ff16905092915050565b6000818486856200254062002c98565b808563ffffffff1663ffffffff1681526020018473ffffffffffffffffffffffffffffffffffffffff1673ffffffffffffffffffffffffffffffffffffffff1681526020018373ffffffffffffffffffffffffffffffffffffffff1673ffffffffffffffffffffffffffffffffffffffff1681526020018273ffffffffffffffffffffffffffffffffffffffff1673ffffffffffffffffffffffffffffffffffffffff168152602001945050505050604051809103906000f0801580156200260c573d6000803e3d6000fd5b50905060078190806001815401808255809150509060018203906000526020600020016000909192909190916101000a81548173ffffffffffffffffffffffffffffffffffffffff021916908373ffffffffffffffffffffffffffffffffffffffff160217905550505050505050565b6000620026bf836040805190810160405280600581526020017f61646d696e00000000000000000000000000000000000000000000000000000081525062000f56565b15156200270457600073ffffffffffffffffffffffffffffffffffffffff168473ffffffffffffffffffffffffffffffffffffffff16141515156200270357600080fd5b5b6000808473ffffffffffffffffffffffffffffffffffffffff1673ffffffffffffffffffffffffffffffffffffffff1681526020019081526020016000205482111515156200275257600080fd5b620027a5826000808673ffffffffffffffffffffffffffffffffffffffff1673ffffffffffffffffffffffffffffffffffffffff1681526020019081526020016000205462002c0390919063ffffffff16565b6000808573ffffffffffffffffffffffffffffffffffffffff1673ffffffffffffffffffffffffffffffffffffffff168152602001908152602001600020819055506200283a826000808773ffffffffffffffffffffffffffffffffffffffff1673ffffffffffffffffffffffffffffffffffffffff1681526020019081526020016000205462002c1d90919063ffffffff16565b6000808673ffffffffffffffffffffffffffffffffffffffff1673ffffffffffffffffffffffffffffffffffffffff168152602001908152602001600020819055508373ffffffffffffffffffffffffffffffffffffffff168373ffffffffffffffffffffffffffffffffffffffff167fddf252ad1be2c89b69c2b068fc378daa952ba7f163c4a11628f55a4df523b3ef846040518082815260200191505060405180910390a3600190509392505050565b6200296d826003836040518082805190602001908083835b6020831015156200292b578051825260208201915060208101905060208303925062002904565b6001836020036101000a038019825116818451168082178552505050505050905001915050908152602001604051809103902062002c3a90919063ffffffff16565b7fbfec83d64eaa953f2708271a023ab9ee82057f8f3578d548c1a4ba0b5b7004898282604051808373ffffffffffffffffffffffffffffffffffffffff1673ffffffffffffffffffffffffffffffffffffffff16815260200180602001828103825283818151815260200191508051906020019080838360005b8381101562002a04578082015181840152602081019050620029e7565b50505050905090810190601f16801562002a325780820380516001836020036101000a031916815260200191505b50935050505060405180910390a15050565b62002abb600f54600080600260009054906101000a900473ffffffffffffffffffffffffffffffffffffffff1673ffffffffffffffffffffffffffffffffffffffff1673ffffffffffffffffffffffffffffffffffffffff1681526020019081526020016000205462002c0390919063ffffffff16565b600080600260009054906101000a900473ffffffffffffffffffffffffffffffffffffffff1673ffffffffffffffffffffffffffffffffffffffff1673ffffffffffffffffffffffffffffffffffffffff1681526020019081526020016000208190555062002b38600f54600a5462002c0390919063ffffffff16565b600a819055506000600e60146101000a81548160ff0219169083151502179055506000600f819055506000601060006101000a81548173ffffffffffffffffffffffffffffffffffffffff021916908373ffffffffffffffffffffffffffffffffffffffff160217905550565b60008260000160008373ffffffffffffffffffffffffffffffffffffffff1673ffffffffffffffffffffffffffffffffffffffff16815260200190815260200160002060006101000a81548160ff0219169083151502179055505050565b600082821115151562002c1257fe5b818303905092915050565b6000818301905082811015151562002c3157fe5b80905092915050565b60018260000160008373ffffffffffffffffffffffffffffffffffffffff1673ffffffffffffffffffffffffffffffffffffffff16815260200190815260200160002060006101000a81548160ff0219169083151502179055505050565b604051610e578062002caa83390190560060806040526040805190810160405280601081526020017f4d756c74695369675472616e73666572000000000000000000000000000000008152506001908051906020019061004f92919061024c565b506040805190810160405280600381526020017f4d535400000000000000000000000000000000000000000000000000000000008152506002908051906020019061009b92919061024c565b506000600360006101000a81548160ff0219169083151502179055506000600360016101000a81548160ff0219169083151502179055503480156100de57600080fd5b50604051608080610e5783398101806040528101908080519060200190929190805190602001909291908051906020019092919080519060200190929190505050336000806101000a81548173ffffffffffffffffffffffffffffffffffffffff021916908373ffffffffffffffffffffffffffffffffffffffff16021790555083600360026101000a81548163ffffffff021916908363ffffffff16021790555082600360066101000a81548173ffffffffffffffffffffffffffffffffffffffff021916908373ffffffffffffffffffffffffffffffffffffffff16021790555081600460006101000a81548173ffffffffffffffffffffffffffffffffffffffff021916908373ffffffffffffffffffffffffffffffffffffffff16021790555080600560006101000a81548173ffffffffffffffffffffffffffffffffffffffff021916908373ffffffffffffffffffffffffffffffffffffffff160217905550505050506102f1565b828054600181600116156101000203166002900490600052602060002090601f016020900481019282601f1061028d57805160ff19168380011785556102bb565b828001600101855582156102bb579182015b828111156102ba57825182559160200191906001019061029f565b5b5090506102c891906102cc565b5090565b6102ee91905b808211156102ea5760008160009055506001016102d2565b5090565b90565b610b57806103006000396000f3006080604052600436106100f1576000357c0100000000000000000000000000000000000000000000000000000000900463ffffffff1680630115949c146100f657806306fdde031461012d57806317fc45e2146101bd5780632a8d26e8146101f45780635210eb561461020b578063522e11771461026257806363d1302c146102915780636f338a22146102e8578063794542ad1461033f5780638c180f7a1461036e5780638da5cb5b146103c557806395d89b411461041c5780639b012dec146104ac5780639c30ad7e146104c3578063cae30983146104f2578063d424ee7d14610549578063f2fde38b146105a0575b600080fd5b34801561010257600080fd5b5061010b6105e3565b604051808263ffffffff1663ffffffff16815260200191505060405180910390f35b34801561013957600080fd5b506101426105fd565b6040518080602001828103825283818151815260200191508051906020019080838360005b83811015610182578082015181840152602081019050610167565b50505050905090810190601f1680156101af5780820380516001836020036101000a031916815260200191505b509250505060405180910390f35b3480156101c957600080fd5b506101d261069b565b604051808263ffffffff1663ffffffff16815260200191505060405180910390f35b34801561020057600080fd5b506102096106b1565b005b34801561021757600080fd5b5061022061074b565b604051808273ffffffffffffffffffffffffffffffffffffffff1673ffffffffffffffffffffffffffffffffffffffff16815260200191505060405180910390f35b34801561026e57600080fd5b50610277610771565b604051808215151515815260200191505060405180910390f35b34801561029d57600080fd5b506102a6610784565b604051808273ffffffffffffffffffffffffffffffffffffffff1673ffffffffffffffffffffffffffffffffffffffff16815260200191505060405180910390f35b3480156102f457600080fd5b506102fd6107aa565b604051808273ffffffffffffffffffffffffffffffffffffffff1673ffffffffffffffffffffffffffffffffffffffff16815260200191505060405180910390f35b34801561034b57600080fd5b506103546107d4565b604051808215151515815260200191505060405180910390f35b34801561037a57600080fd5b506103836107e7565b604051808273ffffffffffffffffffffffffffffffffffffffff1673ffffffffffffffffffffffffffffffffffffffff16815260200191505060405180910390f35b3480156103d157600080fd5b506103da610811565b604051808273ffffffffffffffffffffffffffffffffffffffff1673ffffffffffffffffffffffffffffffffffffffff16815260200191505060405180910390f35b34801561042857600080fd5b50610431610836565b6040518080602001828103825283818151815260200191508051906020019080838360005b83811015610471578082015181840152602081019050610456565b50505050905090810190601f16801561049e5780820380516001836020036101000a031916815260200191505b509250505060405180910390f35b3480156104b857600080fd5b506104c16108d4565b005b3480156104cf57600080fd5b506104d861096e565b604051808215151515815260200191505060405180910390f35b3480156104fe57600080fd5b50610507610986565b604051808273ffffffffffffffffffffffffffffffffffffffff1673ffffffffffffffffffffffffffffffffffffffff16815260200191505060405180910390f35b34801561055557600080fd5b5061055e6109b0565b604051808273ffffffffffffffffffffffffffffffffffffffff1673ffffffffffffffffffffffffffffffffffffffff16815260200191505060405180910390f35b3480156105ac57600080fd5b506105e1600480360381019080803573ffffffffffffffffffffffffffffffffffffffff1690602001909291905050506109d6565b005b6000600360029054906101000a900463ffffffff16905090565b60018054600181600116156101000203166002900480601f0160208091040260200160405190810160405280929190818152602001828054600181600116156101000203166002900480156106935780601f1061066857610100808354040283529160200191610693565b820191906000526020600020905b81548152906001019060200180831161067657829003601f168201915b505050505081565b600360029054906101000a900463ffffffff1681565b6000809054906101000a900473ffffffffffffffffffffffffffffffffffffffff1673ffffffffffffffffffffffffffffffffffffffff163373ffffffffffffffffffffffffffffffffffffffff1614151561070c57600080fd5b60001515600360009054906101000a900460ff16151514151561072e57600080fd5b6001600360006101000a81548160ff021916908315150217905550565b600360069054906101000a900473ffffffffffffffffffffffffffffffffffffffff1681565b600360009054906101000a900460ff1681565b600460009054906101000a900473ffffffffffffffffffffffffffffffffffffffff1681565b6000600360069054906101000a900473ffffffffffffffffffffffffffffffffffffffff16905090565b600360019054906101000a900460ff1681565b6000600460009054906101000a900473ffffffffffffffffffffffffffffffffffffffff16905090565b6000809054906101000a900473ffffffffffffffffffffffffffffffffffffffff1681565b60028054600181600116156101000203166002900480601f0160208091040260200160405190810160405280929190818152602001828054600181600116156101000203166002900480156108cc5780601f106108a1576101008083540402835291602001916108cc565b820191906000526020600020905b8154815290600101906020018083116108af57829003601f168201915b505050505081565b6000809054906101000a900473ffffffffffffffffffffffffffffffffffffffff1673ffffffffffffffffffffffffffffffffffffffff163373ffffffffffffffffffffffffffffffffffffffff1614151561092f57600080fd5b60001515600360019054906101000a900460ff16151514151561095157600080fd5b6001600360016101000a81548160ff021916908315150217905550565b6000600360009054906101000a900460ff1615905090565b6000600560009054906101000a900473ffffffffffffffffffffffffffffffffffffffff16905090565b600560009054906101000a900473ffffffffffffffffffffffffffffffffffffffff1681565b6000809054906101000a900473ffffffffffffffffffffffffffffffffffffffff1673ffffffffffffffffffffffffffffffffffffffff163373ffffffffffffffffffffffffffffffffffffffff16141515610a3157600080fd5b600073ffffffffffffffffffffffffffffffffffffffff168173ffffffffffffffffffffffffffffffffffffffff1614151515610a6d57600080fd5b8073ffffffffffffffffffffffffffffffffffffffff166000809054906101000a900473ffffffffffffffffffffffffffffffffffffffff1673ffffffffffffffffffffffffffffffffffffffff167f8be0079c531659141344cd1fd0a4f28419497f9722a3daafe3b4186f6b6457e060405160405180910390a3806000806101000a81548173ffffffffffffffffffffffffffffffffffffffff021916908373ffffffffffffffffffffffffffffffffffffffff160217905550505600a165627a7a723058204338d481a5228aa033731bb96ee94c5c0abfb01b219ecae9d914c6004f10c1500029a165627a7a7230582018e2fe013d8fbf3b6384f9dfd4d0eb26595fa43387fd33dd542b10d8f6c5c09b0029",
  "source": "pragma solidity ^0.4.23;\n\nimport \"zeppelin-solidity/contracts/token/ERC20/StandardToken.sol\";\nimport \"zeppelin-solidity/contracts/ownership/Ownable.sol\";\nimport \"zeppelin-solidity/contracts/ownership/rbac/RBAC.sol\";\nimport \"./MultiSigTransfer.sol\";\n\ncontract KinesisVelocityToken is BasicToken, Ownable, RBAC {\n  string public name = \"KinesisVelocityToken\";\n  string public symbol = \"KVT\";\n  uint8 public decimals = 0;\n  string public constant ADMIN_ROLE = \"admin\";\n\n  address[] public transfers;\n\n\t/* This is 0.1 ETH */\n  uint256 public pricePerTokenInWei = 100000000000000000;\n\n  uint public INITIAL_SUPPLY = 300000;\n  uint public totalSupply = 0;\n\n  bool public isTransferable = false;\n  bool toggleTransferablePending = false;\n  address transferToggleRequester = address(0);\n\n  /*\n    We treat the God address as our trust account.\n    Only whitelisted admins can move funds from this account\n  */\n  address trustAccount = address(0);\n\n  constructor() public {\n    totalSupply = INITIAL_SUPPLY;\n    balances[msg.sender] = INITIAL_SUPPLY;\n    addRole(msg.sender, ADMIN_ROLE);\n  }\n\n\tfunction isOwner() public view returns (bool) {\n\t\treturn owner == msg.sender;\n\t}\n\n  function isAdmin() public view returns (bool) {\n    /* Inherited from Whitelist.sol */\n    return hasRole(msg.sender, ADMIN_ROLE);\n  }\n\n  function setAdmin(address newAdmin) public onlyOwner {\n    return addRole(newAdmin, ADMIN_ROLE);\n  }\n\n  function removeAdmin(address oldAdmin) public onlyOwner {\n    return removeRole(oldAdmin, ADMIN_ROLE);\n  }\n\n  /* Multi-Signature on Transferable state */\n  function getTransferableState() public view returns (bool) {\n    return isTransferable;\n  }\n\n  function isToggleTransferablePending() public view returns (bool) {\n    return toggleTransferablePending;\n  }\n\n  function setTransferable(bool toState) public onlyRole(ADMIN_ROLE) {\n    require(isTransferable != toState);\n    toggleTransferablePending = true;\n    transferToggleRequester = msg.sender;\n  }\n\n  function approveTransferableToggle() public onlyRole(ADMIN_ROLE) {\n    require(toggleTransferablePending == true);\n    require(transferToggleRequester != msg.sender);\n    isTransferable = !isTransferable;\n    toggleTransferablePending = false;\n    transferToggleRequester = address(0);\n  }\n\n  /* Multi-Signature on Price Changes */\n  uint256 pendingPriceChange = 0;\n  address priceChangeRequester = address(0);\n\n  function getPendingPriceChange() public view returns (uint256) {\n    return pendingPriceChange;\n  }\n\n  function requestPriceChange(uint priceChangeInWei) public onlyRole(ADMIN_ROLE) {\n    pendingPriceChange = priceChangeInWei;\n    priceChangeRequester = msg.sender;\n  }\n\n  function approvePriceChange() public onlyRole(ADMIN_ROLE) {\n    require(msg.sender != priceChangeRequester);\n    require(pendingPriceChange != 0);\n    pricePerTokenInWei = pendingPriceChange;\n    pendingPriceChange = 0;\n    priceChangeRequester = address(0);\n  }\n\n  /**\n  * @dev transfer token for a specified address\n  * @param _to The address to transfer to.\n  * @param _value The amount to be transferred.\n  */\n  function _transfer(address _to, address _from, uint256 _value) private returns (bool) {\n    // We allow admins to transfer to the zero address, to reserve the funds\n    if (!hasRole(_from, ADMIN_ROLE)) {\n      require(_to != address(0));\n    }\n\n    require(_value <= balances[_from]);\n\n    // SafeMath.sub will throw if there is not enough balance.\n    balances[_from] = balances[_from].sub(_value);\n    balances[_to] = balances[_to].add(_value);\n    emit Transfer(_from, _to, _value);\n    return true;\n  }\n\n  function transfer(address _to, uint256 _value) public returns (bool) {\n    if (_to != owner) {\n      require(isTransferable == true);\n    }\n\n    require(!hasRole(msg.sender, ADMIN_ROLE));\n    return _transfer(_to, msg.sender, _value);\n  }\n\n  /* Transfer funds from the Trust 0x00 Address to the desired location */\n  function trustTransfer(address to, uint32 quantity) public onlyRole(ADMIN_ROLE) {\n    newMultiSigTransfer(trustAccount, to, msg.sender, quantity);\n  }\n\n  function adminTransfer(address to, uint32 quantity) public onlyRole(ADMIN_ROLE) {\n    newMultiSigTransfer(owner, to, msg.sender, quantity);\n  }\n\n  function newMultiSigTransfer(address from, address to, address requester, uint32 quantity) internal {\n    address newTransfer = new MultiSigTransfer(quantity, to, from, requester);\n    transfers.push(newTransfer);\n  }\n\n  function approveTransfer(address approvedTransfer) public onlyRole(ADMIN_ROLE) returns (bool) {\n    MultiSigTransfer transferToApprove = MultiSigTransfer(approvedTransfer);\n    uint32 transferQuantity = transferToApprove.getQuantity();\n    address deliveryAddress = transferToApprove.getTargetAddress();\n    address fromAddress = transferToApprove.getFromAddress();\n    address requesterAddress = transferToApprove.getRequesterAddress();\n    require(msg.sender != requesterAddress);\n    transferToApprove.approveTransfer();\n    return _transfer(deliveryAddress, fromAddress, transferQuantity);\n  }\n\n  function denyTransfer(address approvedTransfer) public onlyRole(ADMIN_ROLE) returns (bool) {\n    MultiSigTransfer transferToApprove = MultiSigTransfer(approvedTransfer);\n    transferToApprove.denyTransfer();\n  }\n\n  /* This is a payable copy of the above function that, when the correct eth is provided, moves tokens from\n  the owner, to the buyer */\n  function buyToken(uint256 quantity) public payable returns (bool) {\n    require(!hasRole(msg.sender, ADMIN_ROLE));\n\n    /* Transfer the set wei to abx, then we give the user their token */\n    owner.transfer(quantity * pricePerTokenInWei);\n\n    return _transfer(msg.sender, owner, quantity);\n  }\n\n  /* balanceOf is already implemented. So we just need a getTotalSupply() so we can show users the percentage they own */\n\tfunction getTotalSupply() public view returns (uint256) {\n\t\treturn totalSupply;\n\t}\n\n\tfunction getPrice() public view returns (uint256) {\n\t\treturn pricePerTokenInWei;\n\t}\n\n  function getTransfers() public view returns (address[]) {\n    return transfers;\n  } \n  \n  /* Multi sig for burning unsold tokens */\n  bool burnIsPending = false;\n  uint256 numberToBurn = 0;\n  address burnRequester = address(0);\n\n  function burnTokens() internal {\n    balances[owner] = balances[owner].sub(numberToBurn);\n    totalSupply = totalSupply.sub(numberToBurn);\n    burnIsPending = false;\n    numberToBurn = 0;\n    burnRequester = address(0);\n  }\n\n  function requestBurn(uint256 burnable) public onlyRole(ADMIN_ROLE) {\n    require(burnIsPending == false);\n    require(balances[owner] >= burnable);\n    burnIsPending = true;\n    numberToBurn = burnable;\n    burnRequester = msg.sender;\n  }\n\n  function cancelBurn() public onlyRole(ADMIN_ROLE) {\n    burnIsPending = false;\n    numberToBurn = 0;\n    burnRequester = address(0);\n  }\n\n  function isBurnPending() public view returns (bool) {\n    return burnIsPending;\n  }\n\n  function pendingBurnNumber() public view returns (uint256) {\n    return numberToBurn;\n  }\n\n  function getBurnRequester() public view returns (address) {\n    return burnRequester;\n  }\n\n  function approveBurn() public onlyRole(ADMIN_ROLE) {\n    require(msg.sender != burnRequester);\n    require(balances[owner] >= numberToBurn);\n    require(burnIsPending == true);\n    burnTokens();\n  }\n}\n",
  "sourcePath": "/home/cfoster/projects/kinesis-promo/contracts/KinesisVelocityToken.sol",
  "compiler": {
    "name": "solc",
    "version": "0.4.24+commit.e67f0147.Emscripten.clang"
  },
  "schemaVersion": "2.0.0",
  "updatedAt": "2018-06-11T04:47:55.878Z"
}