{
  "contractName": "KinesisVelocityToken",
  "abi": [
    {
      "constant": true,
      "inputs": [],
      "name": "name",
      "outputs": [
        {
          "name": "",
          "type": "string"
        }
      ],
      "payable": false,
      "stateMutability": "view",
      "type": "function"
    },
    {
      "constant": true,
      "inputs": [],
      "name": "approver",
      "outputs": [
        {
          "name": "",
          "type": "address"
        }
      ],
      "payable": false,
      "stateMutability": "view",
      "type": "function"
    },
    {
      "constant": false,
      "inputs": [
        {
          "name": "newTrust",
          "type": "address"
        }
      ],
      "name": "setTrustAccount",
      "outputs": [],
      "payable": false,
      "stateMutability": "nonpayable",
      "type": "function"
    },
    {
      "constant": true,
      "inputs": [],
      "name": "totalSupply",
      "outputs": [
        {
          "name": "",
          "type": "uint256"
        }
      ],
      "payable": false,
      "stateMutability": "view",
      "type": "function"
    },
    {
      "constant": true,
      "inputs": [],
      "name": "isTransferable",
      "outputs": [
        {
          "name": "",
          "type": "bool"
        }
      ],
      "payable": false,
      "stateMutability": "view",
      "type": "function"
    },
    {
      "constant": true,
      "inputs": [],
      "name": "isApprover",
      "outputs": [
        {
          "name": "",
          "type": "bool"
        }
      ],
      "payable": false,
      "stateMutability": "view",
      "type": "function"
    },
    {
      "constant": false,
      "inputs": [
        {
          "name": "to",
          "type": "address"
        },
        {
          "name": "quantity",
          "type": "uint32"
        }
      ],
      "name": "trustTransfer",
      "outputs": [],
      "payable": false,
      "stateMutability": "nonpayable",
      "type": "function"
    },
    {
      "constant": false,
      "inputs": [],
      "name": "approvePriceChange",
      "outputs": [],
      "payable": false,
      "stateMutability": "nonpayable",
      "type": "function"
    },
    {
      "constant": true,
      "inputs": [],
      "name": "isToggleTransferablePending",
      "outputs": [
        {
          "name": "",
          "type": "bool"
        }
      ],
      "payable": false,
      "stateMutability": "view",
      "type": "function"
    },
    {
      "constant": false,
      "inputs": [
        {
          "name": "quantity",
          "type": "uint256"
        }
      ],
      "name": "buyToken",
      "outputs": [
        {
          "name": "",
          "type": "bool"
        }
      ],
      "payable": true,
      "stateMutability": "payable",
      "type": "function"
    },
    {
      "constant": true,
      "inputs": [],
      "name": "getTransfers",
      "outputs": [
        {
          "name": "",
          "type": "address[]"
        }
      ],
      "payable": false,
      "stateMutability": "view",
      "type": "function"
    },
    {
      "constant": false,
      "inputs": [
        {
          "name": "to",
          "type": "address"
        },
        {
          "name": "quantity",
          "type": "uint32"
        }
      ],
      "name": "adminTransfer",
      "outputs": [],
      "payable": false,
      "stateMutability": "nonpayable",
      "type": "function"
    },
    {
      "constant": true,
      "inputs": [],
      "name": "INITIAL_SUPPLY",
      "outputs": [
        {
          "name": "",
          "type": "uint256"
        }
      ],
      "payable": false,
      "stateMutability": "view",
      "type": "function"
    },
    {
      "constant": true,
      "inputs": [],
      "name": "getTransferableState",
      "outputs": [
        {
          "name": "",
          "type": "bool"
        }
      ],
      "payable": false,
      "stateMutability": "view",
      "type": "function"
    },
    {
      "constant": true,
      "inputs": [],
      "name": "decimals",
      "outputs": [
        {
          "name": "",
          "type": "uint8"
        }
      ],
      "payable": false,
      "stateMutability": "view",
      "type": "function"
    },
    {
      "constant": false,
      "inputs": [
        {
          "name": "newApprover",
          "type": "address"
        }
      ],
      "name": "setApprover",
      "outputs": [],
      "payable": false,
      "stateMutability": "nonpayable",
      "type": "function"
    },
    {
      "constant": true,
      "inputs": [],
      "name": "trustAccount",
      "outputs": [
        {
          "name": "",
          "type": "address"
        }
      ],
      "payable": false,
      "stateMutability": "view",
      "type": "function"
    },
    {
      "constant": false,
      "inputs": [],
      "name": "approveTransferableToggle",
      "outputs": [],
      "payable": false,
      "stateMutability": "nonpayable",
      "type": "function"
    },
    {
      "constant": false,
      "inputs": [
        {
          "name": "approvedTransfer",
          "type": "address"
        }
      ],
      "name": "approveTransfer",
      "outputs": [
        {
          "name": "",
          "type": "bool"
        }
      ],
      "payable": false,
      "stateMutability": "nonpayable",
      "type": "function"
    },
    {
      "constant": true,
      "inputs": [],
      "name": "getTrustAccount",
      "outputs": [
        {
          "name": "",
          "type": "address"
        }
      ],
      "payable": false,
      "stateMutability": "view",
      "type": "function"
    },
    {
      "constant": true,
      "inputs": [],
      "name": "getApprover",
      "outputs": [
        {
          "name": "",
          "type": "address"
        }
      ],
      "payable": false,
      "stateMutability": "view",
      "type": "function"
    },
    {
      "constant": true,
      "inputs": [],
      "name": "getPendingPriceChange",
      "outputs": [
        {
          "name": "",
          "type": "uint256"
        }
      ],
      "payable": false,
      "stateMutability": "view",
      "type": "function"
    },
    {
      "constant": false,
      "inputs": [],
      "name": "cancelBurn",
      "outputs": [],
      "payable": false,
      "stateMutability": "nonpayable",
      "type": "function"
    },
    {
      "constant": true,
      "inputs": [
        {
          "name": "_owner",
          "type": "address"
        }
      ],
      "name": "balanceOf",
      "outputs": [
        {
          "name": "balance",
          "type": "uint256"
        }
      ],
      "payable": false,
      "stateMutability": "view",
      "type": "function"
    },
    {
      "constant": false,
      "inputs": [
        {
          "name": "priceChangeInWei",
          "type": "uint256"
        }
      ],
      "name": "requestPriceChange",
      "outputs": [],
      "payable": false,
      "stateMutability": "nonpayable",
      "type": "function"
    },
    {
      "constant": true,
      "inputs": [],
      "name": "owner",
      "outputs": [
        {
          "name": "",
          "type": "address"
        }
      ],
      "payable": false,
      "stateMutability": "view",
      "type": "function"
    },
    {
      "constant": true,
      "inputs": [],
      "name": "isOwner",
      "outputs": [
        {
          "name": "",
          "type": "bool"
        }
      ],
      "payable": false,
      "stateMutability": "view",
      "type": "function"
    },
    {
      "constant": true,
      "inputs": [
        {
          "name": "",
          "type": "uint256"
        }
      ],
      "name": "transfers",
      "outputs": [
        {
          "name": "",
          "type": "address"
        }
      ],
      "payable": false,
      "stateMutability": "view",
      "type": "function"
    },
    {
      "constant": true,
      "inputs": [],
      "name": "symbol",
      "outputs": [
        {
          "name": "",
          "type": "string"
        }
      ],
      "payable": false,
      "stateMutability": "view",
      "type": "function"
    },
    {
      "constant": true,
      "inputs": [],
      "name": "getPrice",
      "outputs": [
        {
          "name": "",
          "type": "uint256"
        }
      ],
      "payable": false,
      "stateMutability": "view",
      "type": "function"
    },
    {
      "constant": false,
      "inputs": [
        {
          "name": "toState",
          "type": "bool"
        }
      ],
      "name": "setTransferable",
      "outputs": [],
      "payable": false,
      "stateMutability": "nonpayable",
      "type": "function"
    },
    {
      "constant": false,
      "inputs": [],
      "name": "approveBurn",
      "outputs": [],
      "payable": false,
      "stateMutability": "nonpayable",
      "type": "function"
    },
    {
      "constant": true,
      "inputs": [],
      "name": "isBurnPending",
      "outputs": [
        {
          "name": "",
          "type": "bool"
        }
      ],
      "payable": false,
      "stateMutability": "view",
      "type": "function"
    },
    {
      "constant": false,
      "inputs": [
        {
          "name": "_to",
          "type": "address"
        },
        {
          "name": "_value",
          "type": "uint256"
        }
      ],
      "name": "transfer",
      "outputs": [
        {
          "name": "",
          "type": "bool"
        }
      ],
      "payable": false,
      "stateMutability": "nonpayable",
      "type": "function"
    },
    {
      "constant": true,
      "inputs": [],
      "name": "isTrustAccount",
      "outputs": [
        {
          "name": "",
          "type": "bool"
        }
      ],
      "payable": false,
      "stateMutability": "view",
      "type": "function"
    },
    {
      "constant": true,
      "inputs": [],
      "name": "getTotalSupply",
      "outputs": [
        {
          "name": "",
          "type": "uint256"
        }
      ],
      "payable": false,
      "stateMutability": "view",
      "type": "function"
    },
    {
      "constant": true,
      "inputs": [],
      "name": "pricePerTokenInWei",
      "outputs": [
        {
          "name": "",
          "type": "uint256"
        }
      ],
      "payable": false,
      "stateMutability": "view",
      "type": "function"
    },
    {
      "constant": false,
      "inputs": [],
      "name": "startBurn",
      "outputs": [],
      "payable": false,
      "stateMutability": "nonpayable",
      "type": "function"
    },
    {
      "constant": false,
      "inputs": [
        {
          "name": "newOwner",
          "type": "address"
        }
      ],
      "name": "transferOwnership",
      "outputs": [],
      "payable": false,
      "stateMutability": "nonpayable",
      "type": "function"
    },
    {
      "inputs": [],
      "payable": false,
      "stateMutability": "nonpayable",
      "type": "constructor"
    },
    {
      "anonymous": false,
      "inputs": [
        {
          "indexed": true,
          "name": "previousOwner",
          "type": "address"
        },
        {
          "indexed": true,
          "name": "newOwner",
          "type": "address"
        }
      ],
      "name": "OwnershipTransferred",
      "type": "event"
    },
    {
      "anonymous": false,
      "inputs": [
        {
          "indexed": true,
          "name": "from",
          "type": "address"
        },
        {
          "indexed": true,
          "name": "to",
          "type": "address"
        },
        {
          "indexed": false,
          "name": "value",
          "type": "uint256"
        }
      ],
      "name": "Transfer",
      "type": "event"
    }
  ],
  "bytecode": "0x60606040526040805190810160405280601381526020017f4b696e65736973526576656e7565546f6b656e0000000000000000000000000081525060039080519060200190620000519291906200024b565b506040805190810160405280600381526020017f4b52540000000000000000000000000000000000000000000000000000000000815250600490805190602001906200009f9291906200024b565b506000600560006101000a81548160ff021916908360ff1602179055506000600560016101000a81548173ffffffffffffffffffffffffffffffffffffffff021916908373ffffffffffffffffffffffffffffffffffffffff1602179055506000600660006101000a81548173ffffffffffffffffffffffffffffffffffffffff021916908373ffffffffffffffffffffffffffffffffffffffff16021790555067016345785d8a0000600855620f42406009556000600a60006101000a81548160ff0219169083151502179055506000600a60016101000a81548160ff0219169083151502179055506000600a60026101000a81548160ff0219169083151502179055506000600b553415620001b557600080fd5b33600260006101000a81548173ffffffffffffffffffffffffffffffffffffffff021916908373ffffffffffffffffffffffffffffffffffffffff160217905550600954600081905550600954600160003373ffffffffffffffffffffffffffffffffffffffff1673ffffffffffffffffffffffffffffffffffffffff16815260200190815260200160002081905550620002fa565b828054600181600116156101000203166002900490600052602060002090601f016020900481019282601f106200028e57805160ff1916838001178555620002bf565b82800160010185558215620002bf579182015b82811115620002be578251825591602001919060010190620002a1565b5b509050620002ce9190620002d2565b5090565b620002f791905b80821115620002f3576000816000905550600101620002d9565b5090565b90565b61316e806200030a6000396000f3006060604052600436106200020b576000357c0100000000000000000000000000000000000000000000000000000000900463ffffffff16806306fdde031462000210578063141a8dd814620002a4578063156843a214620002fc57806318160ddd14620003385780632121dc751462000364578063238b47ec14620003945780632894d6a814620003c45780632ad0695e146200040f5780632b30b6fa14620004275780632d296bf114620004575780632f65142c14620004895780632f8eed9814620004f85780632ff2e9dc146200054357806330fe0faa146200056f578063313ce567146200059f5780633156560e14620005d1578063362e7d65146200060d57806340c3b18e14620006655780634355b9d2146200067d5780634f7f1c4e14620006d1578063583a269b146200072957806364e8cbe3146200078157806369a441ce14620007ad57806370a0823114620007c55780638b03701514620008155780638da5cb5b146200083b5780638f32d59b14620008935780639377d71114620008c357806395d89b41146200092957806398d5fdca14620009bd5780639cd2370714620009e9578063a100447d1462000a11578063a8853a841462000a29578063a9059cbb1462000a59578063b7e57c1f1462000ab6578063c4e41b221462000ae6578063df520efc1462000b12578063e960662b1462000b3e578063f2fde38b1462000b56575b600080fd5b34156200021c57600080fd5b6200022662000b92565b6040518080602001828103825283818151815260200191508051906020019080838360005b83811015620002685780820151818401526020810190506200024b565b50505050905090810190601f168015620002965780820380516001836020036101000a031916815260200191505b509250505060405180910390f35b3415620002b057600080fd5b620002ba62000c34565b604051808273ffffffffffffffffffffffffffffffffffffffff1673ffffffffffffffffffffffffffffffffffffffff16815260200191505060405180910390f35b34156200030857600080fd5b62000336600480803573ffffffffffffffffffffffffffffffffffffffff1690602001909190505062000c5a565b005b34156200034457600080fd5b6200034e62000e15565b6040518082815260200191505060405180910390f35b34156200037057600080fd5b6200037a62000e1b565b604051808215151515815260200191505060405180910390f35b3415620003a057600080fd5b620003aa62000e2e565b604051808215151515815260200191505060405180910390f35b3415620003d057600080fd5b6200040d600480803573ffffffffffffffffffffffffffffffffffffffff1690602001909190803563ffffffff1690602001909190505062000e86565b005b34156200041b57600080fd5b6200042562000f16565b005b34156200043357600080fd5b6200043d62000f99565b604051808215151515815260200191505060405180910390f35b6200046f600480803590602001909190505062000fb0565b604051808215151515815260200191505060405180910390f35b34156200049557600080fd5b6200049f6200110b565b6040518080602001828103825283818151815260200191508051906020019060200280838360005b83811015620004e4578082015181840152602081019050620004c7565b505050509050019250505060405180910390f35b34156200050457600080fd5b62000541600480803573ffffffffffffffffffffffffffffffffffffffff1690602001909190803563ffffffff16906020019091905050620011a3565b005b34156200054f57600080fd5b6200055962001233565b6040518082815260200191505060405180910390f35b34156200057b57600080fd5b6200058562001239565b604051808215151515815260200191505060405180910390f35b3415620005ab57600080fd5b620005b562001250565b604051808260ff1660ff16815260200191505060405180910390f35b3415620005dd57600080fd5b6200060b600480803573ffffffffffffffffffffffffffffffffffffffff1690602001909190505062001263565b005b34156200061957600080fd5b620006236200141e565b604051808273ffffffffffffffffffffffffffffffffffffffff1673ffffffffffffffffffffffffffffffffffffffff16815260200191505060405180910390f35b34156200067157600080fd5b6200067b62001444565b005b34156200068957600080fd5b620006b7600480803573ffffffffffffffffffffffffffffffffffffffff169060200190919050506200150b565b604051808215151515815260200191505060405180910390f35b3415620006dd57600080fd5b620006e7620017ab565b604051808273ffffffffffffffffffffffffffffffffffffffff1673ffffffffffffffffffffffffffffffffffffffff16815260200191505060405180910390f35b34156200073557600080fd5b6200073f620017d5565b604051808273ffffffffffffffffffffffffffffffffffffffff1673ffffffffffffffffffffffffffffffffffffffff16815260200191505060405180910390f35b34156200078d57600080fd5b62000797620017ff565b6040518082815260200191505060405180910390f35b3415620007b957600080fd5b620007c362001809565b005b3415620007d157600080fd5b620007ff600480803573ffffffffffffffffffffffffffffffffffffffff16906020019091905050620018dc565b6040518082815260200191505060405180910390f35b34156200082157600080fd5b62000839600480803590602001909190505062001925565b005b34156200084757600080fd5b620008516200198c565b604051808273ffffffffffffffffffffffffffffffffffffffff1673ffffffffffffffffffffffffffffffffffffffff16815260200191505060405180910390f35b34156200089f57600080fd5b620008a9620019b2565b604051808215151515815260200191505060405180910390f35b3415620008cf57600080fd5b620008e7600480803590602001909190505062001a0a565b604051808273ffffffffffffffffffffffffffffffffffffffff1673ffffffffffffffffffffffffffffffffffffffff16815260200191505060405180910390f35b34156200093557600080fd5b6200093f62001a4a565b6040518080602001828103825283818151815260200191508051906020019080838360005b838110156200098157808201518184015260208101905062000964565b50505050905090810190601f168015620009af5780820380516001836020036101000a031916815260200191505b509250505060405180910390f35b3415620009c957600080fd5b620009d362001aec565b6040518082815260200191505060405180910390f35b3415620009f557600080fd5b62000a0f6004808035151590602001909190505062001af6565b005b341562000a1d57600080fd5b62000a2762001b94565b005b341562000a3557600080fd5b62000a3f62001c92565b604051808215151515815260200191505060405180910390f35b341562000a6557600080fd5b62000a9c600480803573ffffffffffffffffffffffffffffffffffffffff1690602001909190803590602001909190505062001ca9565b604051808215151515815260200191505060405180910390f35b341562000ac257600080fd5b62000acc62001df5565b604051808215151515815260200191505060405180910390f35b341562000af257600080fd5b62000afc62001e4d565b6040518082815260200191505060405180910390f35b341562000b1e57600080fd5b62000b2862001e56565b6040518082815260200191505060405180910390f35b341562000b4a57600080fd5b62000b5462001e5c565b005b341562000b6257600080fd5b62000b90600480803573ffffffffffffffffffffffffffffffffffffffff1690602001909190505062001ed6565b005b60038054600181600116156101000203166002900480601f01602080910402602001604051908101604052809291908181526020018280546001816001161561010002031660029004801562000c2c5780601f1062000c005761010080835404028352916020019162000c2c565b820191906000526020600020905b81548152906001019060200180831162000c0e57829003601f168201915b505050505081565b600560019054906101000a900473ffffffffffffffffffffffffffffffffffffffff1681565b600260009054906101000a900473ffffffffffffffffffffffffffffffffffffffff1673ffffffffffffffffffffffffffffffffffffffff163373ffffffffffffffffffffffffffffffffffffffff1614151562000cb757600080fd5b600073ffffffffffffffffffffffffffffffffffffffff16600660009054906101000a900473ffffffffffffffffffffffffffffffffffffffff1673ffffffffffffffffffffffffffffffffffffffff1614151562000d1557600080fd5b600260009054906101000a900473ffffffffffffffffffffffffffffffffffffffff1673ffffffffffffffffffffffffffffffffffffffff168173ffffffffffffffffffffffffffffffffffffffff161415151562000d7357600080fd5b600560019054906101000a900473ffffffffffffffffffffffffffffffffffffffff1673ffffffffffffffffffffffffffffffffffffffff168173ffffffffffffffffffffffffffffffffffffffff161415151562000dd157600080fd5b80600660006101000a81548173ffffffffffffffffffffffffffffffffffffffff021916908373ffffffffffffffffffffffffffffffffffffffff16021790555050565b60005481565b600a60009054906101000a900460ff1681565b60003373ffffffffffffffffffffffffffffffffffffffff16600560019054906101000a900473ffffffffffffffffffffffffffffffffffffffff1673ffffffffffffffffffffffffffffffffffffffff1614905090565b600660009054906101000a900473ffffffffffffffffffffffffffffffffffffffff1673ffffffffffffffffffffffffffffffffffffffff163373ffffffffffffffffffffffffffffffffffffffff1614151562000ee357600080fd5b62000f12600660009054906101000a900473ffffffffffffffffffffffffffffffffffffffff16838362002030565b5050565b600560019054906101000a900473ffffffffffffffffffffffffffffffffffffffff1673ffffffffffffffffffffffffffffffffffffffff163373ffffffffffffffffffffffffffffffffffffffff1614151562000f7357600080fd5b6000600b541415151562000f8657600080fd5b600b546008819055506000600b81905550565b6000600a60029054906101000a900460ff16905090565b6000600260009054906101000a900473ffffffffffffffffffffffffffffffffffffffff1673ffffffffffffffffffffffffffffffffffffffff163373ffffffffffffffffffffffffffffffffffffffff16141515156200101057600080fd5b600560019054906101000a900473ffffffffffffffffffffffffffffffffffffffff1673ffffffffffffffffffffffffffffffffffffffff163373ffffffffffffffffffffffffffffffffffffffff16141515156200106e57600080fd5b600260009054906101000a900473ffffffffffffffffffffffffffffffffffffffff1673ffffffffffffffffffffffffffffffffffffffff166108fc60085484029081150290604051600060405180830381858888f193505050501515620010d557600080fd5b6200110433600260009054906101000a900473ffffffffffffffffffffffffffffffffffffffff16846200213f565b9050919050565b620011156200251f565b60078054806020026020016040519081016040528092919081815260200182805480156200119957602002820191906000526020600020905b8160009054906101000a900473ffffffffffffffffffffffffffffffffffffffff1673ffffffffffffffffffffffffffffffffffffffff16815260200190600101908083116200114e575b5050505050905090565b600260009054906101000a900473ffffffffffffffffffffffffffffffffffffffff1673ffffffffffffffffffffffffffffffffffffffff163373ffffffffffffffffffffffffffffffffffffffff161415156200120057600080fd5b6200122f600260009054906101000a900473ffffffffffffffffffffffffffffffffffffffff16838362002030565b5050565b60095481565b6000600a60009054906101000a900460ff16905090565b600560009054906101000a900460ff1681565b600260009054906101000a900473ffffffffffffffffffffffffffffffffffffffff1673ffffffffffffffffffffffffffffffffffffffff163373ffffffffffffffffffffffffffffffffffffffff16141515620012c057600080fd5b600073ffffffffffffffffffffffffffffffffffffffff16600560019054906101000a900473ffffffffffffffffffffffffffffffffffffffff1673ffffffffffffffffffffffffffffffffffffffff161415156200131e57600080fd5b600260009054906101000a900473ffffffffffffffffffffffffffffffffffffffff1673ffffffffffffffffffffffffffffffffffffffff168173ffffffffffffffffffffffffffffffffffffffff16141515156200137c57600080fd5b600660009054906101000a900473ffffffffffffffffffffffffffffffffffffffff1673ffffffffffffffffffffffffffffffffffffffff168173ffffffffffffffffffffffffffffffffffffffff1614151515620013da57600080fd5b80600560016101000a81548173ffffffffffffffffffffffffffffffffffffffff021916908373ffffffffffffffffffffffffffffffffffffffff16021790555050565b600660009054906101000a900473ffffffffffffffffffffffffffffffffffffffff1681565b600560019054906101000a900473ffffffffffffffffffffffffffffffffffffffff1673ffffffffffffffffffffffffffffffffffffffff163373ffffffffffffffffffffffffffffffffffffffff16141515620014a157600080fd5b60011515600a60029054906101000a900460ff161515141515620014c457600080fd5b600a60009054906101000a900460ff1615600a60006101000a81548160ff0219169083151502179055506000600a60026101000a81548160ff021916908315150217905550565b6000806000806000600560019054906101000a900473ffffffffffffffffffffffffffffffffffffffff1673ffffffffffffffffffffffffffffffffffffffff163373ffffffffffffffffffffffffffffffffffffffff161415156200157057600080fd5b8593508373ffffffffffffffffffffffffffffffffffffffff16630115949c6000604051602001526040518163ffffffff167c0100000000000000000000000000000000000000000000000000000000028152600401602060405180830381600087803b1515620015e057600080fd5b6102c65a03f11515620015f257600080fd5b5050506040518051905092508373ffffffffffffffffffffffffffffffffffffffff16636f338a226000604051602001526040518163ffffffff167c0100000000000000000000000000000000000000000000000000000000028152600401602060405180830381600087803b15156200166b57600080fd5b6102c65a03f115156200167d57600080fd5b5050506040518051905091508373ffffffffffffffffffffffffffffffffffffffff16638c180f7a6000604051602001526040518163ffffffff167c0100000000000000000000000000000000000000000000000000000000028152600401602060405180830381600087803b1515620016f657600080fd5b6102c65a03f115156200170857600080fd5b5050506040518051905090508373ffffffffffffffffffffffffffffffffffffffff16632a8d26e86040518163ffffffff167c0100000000000000000000000000000000000000000000000000000000028152600401600060405180830381600087803b15156200177857600080fd5b6102c65a03f115156200178a57600080fd5b505050620017a082828563ffffffff166200213f565b945050505050919050565b6000600660009054906101000a900473ffffffffffffffffffffffffffffffffffffffff16905090565b6000600560019054906101000a900473ffffffffffffffffffffffffffffffffffffffff16905090565b6000600b54905090565b600260009054906101000a900473ffffffffffffffffffffffffffffffffffffffff1673ffffffffffffffffffffffffffffffffffffffff163373ffffffffffffffffffffffffffffffffffffffff161480620018b35750600560019054906101000a900473ffffffffffffffffffffffffffffffffffffffff1673ffffffffffffffffffffffffffffffffffffffff163373ffffffffffffffffffffffffffffffffffffffff16145b1515620018bf57600080fd5b6000600a60016101000a81548160ff021916908315150217905550565b6000600160008373ffffffffffffffffffffffffffffffffffffffff1673ffffffffffffffffffffffffffffffffffffffff168152602001908152602001600020549050919050565b600260009054906101000a900473ffffffffffffffffffffffffffffffffffffffff1673ffffffffffffffffffffffffffffffffffffffff163373ffffffffffffffffffffffffffffffffffffffff161415156200198257600080fd5b80600b8190555050565b600260009054906101000a900473ffffffffffffffffffffffffffffffffffffffff1681565b60003373ffffffffffffffffffffffffffffffffffffffff16600260009054906101000a900473ffffffffffffffffffffffffffffffffffffffff1673ffffffffffffffffffffffffffffffffffffffff1614905090565b60078181548110151562001a1a57fe5b90600052602060002090016000915054906101000a900473ffffffffffffffffffffffffffffffffffffffff1681565b60048054600181600116156101000203166002900480601f01602080910402602001604051908101604052809291908181526020018280546001816001161561010002031660029004801562001ae45780601f1062001ab85761010080835404028352916020019162001ae4565b820191906000526020600020905b81548152906001019060200180831162001ac657829003601f168201915b505050505081565b6000600854905090565b600260009054906101000a900473ffffffffffffffffffffffffffffffffffffffff1673ffffffffffffffffffffffffffffffffffffffff163373ffffffffffffffffffffffffffffffffffffffff1614151562001b5357600080fd5b801515600a60009054906101000a900460ff1615151415151562001b7657600080fd5b6001600a60026101000a81548160ff02191690831515021790555050565b600560019054906101000a900473ffffffffffffffffffffffffffffffffffffffff1673ffffffffffffffffffffffffffffffffffffffff163373ffffffffffffffffffffffffffffffffffffffff1614151562001bf157600080fd5b600060016000600260009054906101000a900473ffffffffffffffffffffffffffffffffffffffff1673ffffffffffffffffffffffffffffffffffffffff1673ffffffffffffffffffffffffffffffffffffffff168152602001908152602001600020541415151562001c6357600080fd5b60011515600a60019054906101000a900460ff16151514151562001c8657600080fd5b62001c906200236a565b565b6000600a60019054906101000a900460ff16905090565b6000600260009054906101000a900473ffffffffffffffffffffffffffffffffffffffff1673ffffffffffffffffffffffffffffffffffffffff168373ffffffffffffffffffffffffffffffffffffffff1614151562001d275760011515600a60009054906101000a900460ff16151514151562001d2657600080fd5b5b600260009054906101000a900473ffffffffffffffffffffffffffffffffffffffff1673ffffffffffffffffffffffffffffffffffffffff163373ffffffffffffffffffffffffffffffffffffffff161415801562001dd45750600660009054906101000a900473ffffffffffffffffffffffffffffffffffffffff1673ffffffffffffffffffffffffffffffffffffffff163373ffffffffffffffffffffffffffffffffffffffff1614155b151562001de057600080fd5b62001ded8333846200213f565b905092915050565b60003373ffffffffffffffffffffffffffffffffffffffff16600660009054906101000a900473ffffffffffffffffffffffffffffffffffffffff1673ffffffffffffffffffffffffffffffffffffffff1614905090565b60008054905090565b60085481565b600260009054906101000a900473ffffffffffffffffffffffffffffffffffffffff1673ffffffffffffffffffffffffffffffffffffffff163373ffffffffffffffffffffffffffffffffffffffff1614151562001eb957600080fd5b6001600a60016101000a81548160ff021916908315150217905550565b600260009054906101000a900473ffffffffffffffffffffffffffffffffffffffff1673ffffffffffffffffffffffffffffffffffffffff163373ffffffffffffffffffffffffffffffffffffffff1614151562001f3357600080fd5b600073ffffffffffffffffffffffffffffffffffffffff168173ffffffffffffffffffffffffffffffffffffffff161415151562001f7057600080fd5b8073ffffffffffffffffffffffffffffffffffffffff16600260009054906101000a900473ffffffffffffffffffffffffffffffffffffffff1673ffffffffffffffffffffffffffffffffffffffff167f8be0079c531659141344cd1fd0a4f28419497f9722a3daafe3b4186f6b6457e060405160405180910390a380600260006101000a81548173ffffffffffffffffffffffffffffffffffffffff021916908373ffffffffffffffffffffffffffffffffffffffff16021790555050565b60008183856200203f62002533565b808463ffffffff1663ffffffff1681526020018373ffffffffffffffffffffffffffffffffffffffff1673ffffffffffffffffffffffffffffffffffffffff1681526020018273ffffffffffffffffffffffffffffffffffffffff1673ffffffffffffffffffffffffffffffffffffffff1681526020019350505050604051809103906000f0801515620020d257600080fd5b905060078054806001018281620020ea919062002544565b9160005260206000209001600083909190916101000a81548173ffffffffffffffffffffffffffffffffffffffff021916908373ffffffffffffffffffffffffffffffffffffffff1602179055505050505050565b60008073ffffffffffffffffffffffffffffffffffffffff168473ffffffffffffffffffffffffffffffffffffffff16141515156200217d57600080fd5b600160008473ffffffffffffffffffffffffffffffffffffffff1673ffffffffffffffffffffffffffffffffffffffff168152602001908152602001600020548211151515620021cc57600080fd5b6200222082600160008673ffffffffffffffffffffffffffffffffffffffff1673ffffffffffffffffffffffffffffffffffffffff16815260200190815260200160002054620024e690919063ffffffff16565b600160008573ffffffffffffffffffffffffffffffffffffffff1673ffffffffffffffffffffffffffffffffffffffff16815260200190815260200160002081905550620022b782600160008773ffffffffffffffffffffffffffffffffffffffff1673ffffffffffffffffffffffffffffffffffffffff168152602001908152602001600020546200250090919063ffffffff16565b600160008673ffffffffffffffffffffffffffffffffffffffff1673ffffffffffffffffffffffffffffffffffffffff168152602001908152602001600020819055508373ffffffffffffffffffffffffffffffffffffffff168373ffffffffffffffffffffffffffffffffffffffff167fddf252ad1be2c89b69c2b068fc378daa952ba7f163c4a11628f55a4df523b3ef846040518082815260200191505060405180910390a3600190509392505050565b600060016000600260009054906101000a900473ffffffffffffffffffffffffffffffffffffffff1673ffffffffffffffffffffffffffffffffffffffff1673ffffffffffffffffffffffffffffffffffffffff168152602001908152602001600020549050620024468160016000600260009054906101000a900473ffffffffffffffffffffffffffffffffffffffff1673ffffffffffffffffffffffffffffffffffffffff1673ffffffffffffffffffffffffffffffffffffffff16815260200190815260200160002054620024e690919063ffffffff16565b60016000600260009054906101000a900473ffffffffffffffffffffffffffffffffffffffff1673ffffffffffffffffffffffffffffffffffffffff1673ffffffffffffffffffffffffffffffffffffffff16815260200190815260200160002081905550620024c281600054620024e690919063ffffffff16565b6000819055506000600a60016101000a81548160ff02191690831515021790555050565b6000828211151515620024f557fe5b818303905092915050565b60008082840190508381101515156200251557fe5b8091505092915050565b602060405190810160405280600081525090565b604051610ba7806200259c83390190565b8154818355818115116200256e578183600052602060002091820191016200256d919062002573565b5b505050565b6200259891905b80821115620025945760008160009055506001016200257a565b5090565b90560060606040526040805190810160405280601081526020017f4d756c74695369675472616e73666572000000000000000000000000000000008152506001908051906020019061004f9291906101db565b506040805190810160405280600381526020017f4d535400000000000000000000000000000000000000000000000000000000008152506002908051906020019061009b9291906101db565b506000600360006101000a81548160ff02191690831515021790555034156100c257600080fd5b604051606080610ba783398101604052808051906020019091908051906020019091908051906020019091905050336000806101000a81548173ffffffffffffffffffffffffffffffffffffffff021916908373ffffffffffffffffffffffffffffffffffffffff16021790555082600360016101000a81548163ffffffff021916908363ffffffff16021790555081600360056101000a81548173ffffffffffffffffffffffffffffffffffffffff021916908373ffffffffffffffffffffffffffffffffffffffff16021790555080600460006101000a81548173ffffffffffffffffffffffffffffffffffffffff021916908373ffffffffffffffffffffffffffffffffffffffff160217905550505050610280565b828054600181600116156101000203166002900490600052602060002090601f016020900481019282601f1061021c57805160ff191683800117855561024a565b8280016001018555821561024a579182015b8281111561024957825182559160200191906001019061022e565b5b509050610257919061025b565b5090565b61027d91905b80821115610279576000816000905550600101610261565b5090565b90565b6109188061028f6000396000f3006060604052600436106100c5576000357c0100000000000000000000000000000000000000000000000000000000900463ffffffff1680630115949c146100ca57806306fdde03146100ff57806317fc45e21461018d5780632a8d26e8146101c25780635210eb56146101d7578063522e11771461022c57806363d1302c146102595780636f338a22146102ae5780638c180f7a146103035780638da5cb5b1461035857806395d89b41146103ad5780639c30ad7e1461043b578063f2fde38b14610468575b600080fd5b34156100d557600080fd5b6100dd6104a1565b604051808263ffffffff1663ffffffff16815260200191505060405180910390f35b341561010a57600080fd5b6101126104bb565b6040518080602001828103825283818151815260200191508051906020019080838360005b83811015610152578082015181840152602081019050610137565b50505050905090810190601f16801561017f5780820380516001836020036101000a031916815260200191505b509250505060405180910390f35b341561019857600080fd5b6101a0610559565b604051808263ffffffff1663ffffffff16815260200191505060405180910390f35b34156101cd57600080fd5b6101d561056f565b005b34156101e257600080fd5b6101ea610609565b604051808273ffffffffffffffffffffffffffffffffffffffff1673ffffffffffffffffffffffffffffffffffffffff16815260200191505060405180910390f35b341561023757600080fd5b61023f61062f565b604051808215151515815260200191505060405180910390f35b341561026457600080fd5b61026c610642565b604051808273ffffffffffffffffffffffffffffffffffffffff1673ffffffffffffffffffffffffffffffffffffffff16815260200191505060405180910390f35b34156102b957600080fd5b6102c1610668565b604051808273ffffffffffffffffffffffffffffffffffffffff1673ffffffffffffffffffffffffffffffffffffffff16815260200191505060405180910390f35b341561030e57600080fd5b610316610692565b604051808273ffffffffffffffffffffffffffffffffffffffff1673ffffffffffffffffffffffffffffffffffffffff16815260200191505060405180910390f35b341561036357600080fd5b61036b6106bc565b604051808273ffffffffffffffffffffffffffffffffffffffff1673ffffffffffffffffffffffffffffffffffffffff16815260200191505060405180910390f35b34156103b857600080fd5b6103c06106e1565b6040518080602001828103825283818151815260200191508051906020019080838360005b838110156104005780820151818401526020810190506103e5565b50505050905090810190601f16801561042d5780820380516001836020036101000a031916815260200191505b509250505060405180910390f35b341561044657600080fd5b61044e61077f565b604051808215151515815260200191505060405180910390f35b341561047357600080fd5b61049f600480803573ffffffffffffffffffffffffffffffffffffffff16906020019091905050610797565b005b6000600360019054906101000a900463ffffffff16905090565b60018054600181600116156101000203166002900480601f0160208091040260200160405190810160405280929190818152602001828054600181600116156101000203166002900480156105515780601f1061052657610100808354040283529160200191610551565b820191906000526020600020905b81548152906001019060200180831161053457829003601f168201915b505050505081565b600360019054906101000a900463ffffffff1681565b6000809054906101000a900473ffffffffffffffffffffffffffffffffffffffff1673ffffffffffffffffffffffffffffffffffffffff163373ffffffffffffffffffffffffffffffffffffffff161415156105ca57600080fd5b60001515600360009054906101000a900460ff1615151415156105ec57600080fd5b6001600360006101000a81548160ff021916908315150217905550565b600360059054906101000a900473ffffffffffffffffffffffffffffffffffffffff1681565b600360009054906101000a900460ff1681565b600460009054906101000a900473ffffffffffffffffffffffffffffffffffffffff1681565b6000600360059054906101000a900473ffffffffffffffffffffffffffffffffffffffff16905090565b6000600460009054906101000a900473ffffffffffffffffffffffffffffffffffffffff16905090565b6000809054906101000a900473ffffffffffffffffffffffffffffffffffffffff1681565b60028054600181600116156101000203166002900480601f0160208091040260200160405190810160405280929190818152602001828054600181600116156101000203166002900480156107775780601f1061074c57610100808354040283529160200191610777565b820191906000526020600020905b81548152906001019060200180831161075a57829003601f168201915b505050505081565b6000600360009054906101000a900460ff1615905090565b6000809054906101000a900473ffffffffffffffffffffffffffffffffffffffff1673ffffffffffffffffffffffffffffffffffffffff163373ffffffffffffffffffffffffffffffffffffffff161415156107f257600080fd5b600073ffffffffffffffffffffffffffffffffffffffff168173ffffffffffffffffffffffffffffffffffffffff161415151561082e57600080fd5b8073ffffffffffffffffffffffffffffffffffffffff166000809054906101000a900473ffffffffffffffffffffffffffffffffffffffff1673ffffffffffffffffffffffffffffffffffffffff167f8be0079c531659141344cd1fd0a4f28419497f9722a3daafe3b4186f6b6457e060405160405180910390a3806000806101000a81548173ffffffffffffffffffffffffffffffffffffffff021916908373ffffffffffffffffffffffffffffffffffffffff160217905550505600a165627a7a72305820c3bfb8745e003e4b3541326f96bb8675b9081988f228898020c414969cbddcb70029a165627a7a7230582067eadcb825feb39353f323cef4293c44f9cbb42af26738e21c4a9a418f81345e0029",
  "source": "pragma solidity ^0.4.17;\n\nimport \"zeppelin-solidity/contracts/token/StandardToken.sol\";\nimport \"zeppelin-solidity/contracts/ownership/Ownable.sol\";\nimport \"./MultiSigTransfer.sol\";\n\ncontract KinesisVelocityToken is BasicToken, Ownable {\n  string public name = \"KinesisVelocityToken\";\n  string public symbol = \"KVT\";\n  uint8 public decimals = 0;\n  address public approver = address(0);\n  address public trustAccount = address(0);\n\n  address[] public transfers;\n\n\t/* This is 0.1 ETH */\n  uint256 public pricePerTokenInWei = 100000000000000000;\n\n  uint public INITIAL_SUPPLY = 1000000;\n  bool public isTransferable = false;\n\n  bool burnIsPending = false;\n  bool toggleTransferablePending = false;\n\n  function KinesisVelocityToken() public {\n    totalSupply = INITIAL_SUPPLY;\n    balances[msg.sender] = INITIAL_SUPPLY;\n  }\n  /* We will use this check to determine if the person viewing the page is the owner of the smart contract */\n\tfunction isOwner() public view returns (bool) {\n\t\treturn owner == msg.sender;\n\t}\n\n  function isApprover() public view returns (bool) {\n    return approver == msg.sender;\n  }\n\n  function isTrustAccount() public view returns (bool) {\n    return trustAccount == msg.sender;\n  }\n\n  function setApprover(address newApprover) public onlyOwner {\n    require(approver == address(0));\n    require(newApprover != owner);\n    require(newApprover != trustAccount);\n    approver = newApprover;\n  }\n\n  function getApprover() public view returns (address) {\n    return approver;\n  }\n\n  function setTrustAccount(address newTrust) public onlyOwner {\n    require(trustAccount == address(0));\n    require(newTrust != owner);\n    require(newTrust != approver);\n    trustAccount = newTrust;\n  }\n\n  function getTrustAccount() public view returns (address) {\n    return trustAccount;\n  }\n\n  /* Multi-Signature on Transferable state */\n  function getTransferableState() public view returns (bool) {\n    return isTransferable;\n  }\n\n  function isToggleTransferablePending() public view returns (bool) {\n    return toggleTransferablePending;\n  }\n\n  function setTransferable(bool toState) public onlyOwner {\n    require(isTransferable != toState);\n    toggleTransferablePending = true;\n  }\n\n  function approveTransferableToggle() public {\n    require(msg.sender == approver);\n    require(toggleTransferablePending == true);\n    isTransferable = !isTransferable;\n    toggleTransferablePending = false;\n  }\n\n  /* Multi-Signature on Price Changes */\n  uint256 pendingPriceChange = 0;\n\n  function getPendingPriceChange() public view returns (uint256) {\n    return pendingPriceChange;\n  }\n\n  function requestPriceChange(uint priceChangeInWei) public onlyOwner {\n    pendingPriceChange = priceChangeInWei;\n  }\n\n  function approvePriceChange() public {\n    require(msg.sender == approver);\n    require(pendingPriceChange != 0);\n    pricePerTokenInWei = pendingPriceChange;\n    pendingPriceChange = 0;\n  }\n\n  /**\n  * @dev transfer token for a specified address\n  * @param _to The address to transfer to.\n  * @param _value The amount to be transferred.\n  */\n  function _transfer(address _to, address _from, uint256 _value) private returns (bool) {\n    require(_to != address(0));\n    require(_value <= balances[_from]);\n\n    // SafeMath.sub will throw if there is not enough balance.\n    balances[_from] = balances[_from].sub(_value);\n    balances[_to] = balances[_to].add(_value);\n    Transfer(_from, _to, _value);\n    return true;\n  }\n\n  function transfer(address _to, uint256 _value) public returns (bool) {\n    if (_to != owner) {\n      require(isTransferable == true);\n    }\n    require(msg.sender != owner && msg.sender != trustAccount);\n    return _transfer(_to, msg.sender, _value);\n  }\n\n  function trustTransfer(address to, uint32 quantity) public {\n    require(msg.sender == trustAccount);\n    newMultiSigTransfer(trustAccount, to, quantity);\n  }\n\n  function adminTransfer(address to, uint32 quantity) public onlyOwner {\n    newMultiSigTransfer(owner, to, quantity);\n  }\n\n  function newMultiSigTransfer(address from, address to, uint32 quantity) internal {\n    address newTransfer = new MultiSigTransfer(quantity, to, from);\n    transfers.push(newTransfer);\n  }\n\n  function approveTransfer(address approvedTransfer) public returns (bool) {\n    require(msg.sender == approver);\n    MultiSigTransfer transferToApprove = MultiSigTransfer(approvedTransfer);\n    uint32 transferQuantity = transferToApprove.getQuantity();\n    address deliveryAddress = transferToApprove.getTargetAddress();\n    address fromAddress = transferToApprove.getFromAddress();\n    transferToApprove.approveTransfer();\n    return _transfer(deliveryAddress, fromAddress, transferQuantity);\n  }\n\n  /* This is a payable copy of the above function that, when the correct eth is provided, moves tokens from\n  the owner, to the buyer */\n  function buyToken(uint256 quantity) public payable returns (bool) {\n    require(msg.sender != owner);\n    require(msg.sender != approver);\n\n    /* Transfer the set wei to abx, then we give the user their token */\n    owner.transfer(quantity * pricePerTokenInWei);\n\n    return _transfer(msg.sender, owner, quantity);\n  }\n\n  /* Multi sig for burning unsold tokens */\n  function burnUnsoldTokens() internal {\n    uint256 unsoldTokens = balances[owner];\n    balances[owner] = balances[owner].sub(unsoldTokens);\n    totalSupply = totalSupply.sub(unsoldTokens);\n    burnIsPending = false;\n  }\n\n  function startBurn() public onlyOwner {\n    burnIsPending = true;\n  }\n\n  function cancelBurn() public {\n    require(msg.sender == owner || msg.sender == approver);\n    burnIsPending = false;\n  }\n\n  function isBurnPending() public view returns (bool) {\n    return burnIsPending;\n  }\n\n  function approveBurn() public {\n    require(msg.sender == approver);\n    require(balances[owner] != 0);\n    require(burnIsPending == true);\n    burnUnsoldTokens();\n  }\n\n  /* balanceOf is already implemented. So we just need a getTotalSupply() so we can show users the percentage they own */\n\tfunction getTotalSupply() public view returns (uint256) {\n\t\treturn totalSupply;\n\t}\n\n\tfunction getPrice() public view returns (uint256) {\n\t\treturn pricePerTokenInWei;\n\t}\n\n\n  function getTransfers() public view returns (address[]) {\n    return transfers;\n  }\n}\n",
  "sourcePath": "/home/joel/code/kinesis-promo/contracts/KinesisVelocityToken.sol",
  "compiler": {
    "name": "solc",
    "version": "0.4.18+commit.9cf6e910.Emscripten.clang"
  },
  "schemaVersion": "1.0.1",
  "updatedAt": "2018-02-08T05:46:00.032Z"
}