{
  "contractName": "MultiSigTransfer",
  "abi": [
    {
      "constant": true,
      "inputs": [],
      "name": "name",
      "outputs": [
        {
          "name": "",
          "type": "string"
        }
      ],
      "payable": false,
      "stateMutability": "view",
      "type": "function"
    },
    {
      "constant": true,
      "inputs": [],
      "name": "quantity",
      "outputs": [
        {
          "name": "",
          "type": "uint32"
        }
      ],
      "payable": false,
      "stateMutability": "view",
      "type": "function"
    },
    {
      "constant": true,
      "inputs": [],
      "name": "targetAddress",
      "outputs": [
        {
          "name": "",
          "type": "address"
        }
      ],
      "payable": false,
      "stateMutability": "view",
      "type": "function"
    },
    {
      "constant": true,
      "inputs": [],
      "name": "complete",
      "outputs": [
        {
          "name": "",
          "type": "bool"
        }
      ],
      "payable": false,
      "stateMutability": "view",
      "type": "function"
    },
    {
      "constant": true,
      "inputs": [],
      "name": "fromAddress",
      "outputs": [
        {
          "name": "",
          "type": "address"
        }
      ],
      "payable": false,
      "stateMutability": "view",
      "type": "function"
    },
    {
      "constant": true,
      "inputs": [],
      "name": "denied",
      "outputs": [
        {
          "name": "",
          "type": "bool"
        }
      ],
      "payable": false,
      "stateMutability": "view",
      "type": "function"
    },
    {
      "constant": true,
      "inputs": [],
      "name": "owner",
      "outputs": [
        {
          "name": "",
          "type": "address"
        }
      ],
      "payable": false,
      "stateMutability": "view",
      "type": "function"
    },
    {
      "constant": true,
      "inputs": [],
      "name": "symbol",
      "outputs": [
        {
          "name": "",
          "type": "string"
        }
      ],
      "payable": false,
      "stateMutability": "view",
      "type": "function"
    },
    {
      "constant": true,
      "inputs": [],
      "name": "requesterAddress",
      "outputs": [
        {
          "name": "",
          "type": "address"
        }
      ],
      "payable": false,
      "stateMutability": "view",
      "type": "function"
    },
    {
      "constant": false,
      "inputs": [
        {
          "name": "newOwner",
          "type": "address"
        }
      ],
      "name": "transferOwnership",
      "outputs": [],
      "payable": false,
      "stateMutability": "nonpayable",
      "type": "function"
    },
    {
      "inputs": [
        {
          "name": "quantityIn",
          "type": "uint32"
        },
        {
          "name": "targetAddressIn",
          "type": "address"
        },
        {
          "name": "fromAddressIn",
          "type": "address"
        },
        {
          "name": "requesterAddressIn",
          "type": "address"
        }
      ],
      "payable": false,
      "stateMutability": "nonpayable",
      "type": "constructor"
    },
    {
      "anonymous": false,
      "inputs": [
        {
          "indexed": true,
          "name": "previousOwner",
          "type": "address"
        },
        {
          "indexed": true,
          "name": "newOwner",
          "type": "address"
        }
      ],
      "name": "OwnershipTransferred",
      "type": "event"
    },
    {
      "constant": false,
      "inputs": [],
      "name": "approveTransfer",
      "outputs": [],
      "payable": false,
      "stateMutability": "nonpayable",
      "type": "function"
    },
    {
      "constant": false,
      "inputs": [],
      "name": "denyTransfer",
      "outputs": [],
      "payable": false,
      "stateMutability": "nonpayable",
      "type": "function"
    },
    {
      "constant": true,
      "inputs": [],
      "name": "getQuantity",
      "outputs": [
        {
          "name": "",
          "type": "uint32"
        }
      ],
      "payable": false,
      "stateMutability": "view",
      "type": "function"
    },
    {
      "constant": true,
      "inputs": [],
      "name": "getTargetAddress",
      "outputs": [
        {
          "name": "",
          "type": "address"
        }
      ],
      "payable": false,
      "stateMutability": "view",
      "type": "function"
    },
    {
      "constant": true,
      "inputs": [],
      "name": "getFromAddress",
      "outputs": [
        {
          "name": "",
          "type": "address"
        }
      ],
      "payable": false,
      "stateMutability": "view",
      "type": "function"
    },
    {
      "constant": true,
      "inputs": [],
      "name": "getRequesterAddress",
      "outputs": [
        {
          "name": "",
          "type": "address"
        }
      ],
      "payable": false,
      "stateMutability": "view",
      "type": "function"
    },
    {
      "constant": true,
      "inputs": [],
      "name": "isPending",
      "outputs": [
        {
          "name": "",
          "type": "bool"
        }
      ],
      "payable": false,
      "stateMutability": "view",
      "type": "function"
    }
  ],
  "bytecode": "0x60806040526040805190810160405280601081526020017f4d756c74695369675472616e73666572000000000000000000000000000000008152506001908051906020019061004f92919061024c565b506040805190810160405280600381526020017f4d535400000000000000000000000000000000000000000000000000000000008152506002908051906020019061009b92919061024c565b506000600360006101000a81548160ff0219169083151502179055506000600360016101000a81548160ff0219169083151502179055503480156100de57600080fd5b50604051608080610e5783398101806040528101908080519060200190929190805190602001909291908051906020019092919080519060200190929190505050336000806101000a81548173ffffffffffffffffffffffffffffffffffffffff021916908373ffffffffffffffffffffffffffffffffffffffff16021790555083600360026101000a81548163ffffffff021916908363ffffffff16021790555082600360066101000a81548173ffffffffffffffffffffffffffffffffffffffff021916908373ffffffffffffffffffffffffffffffffffffffff16021790555081600460006101000a81548173ffffffffffffffffffffffffffffffffffffffff021916908373ffffffffffffffffffffffffffffffffffffffff16021790555080600560006101000a81548173ffffffffffffffffffffffffffffffffffffffff021916908373ffffffffffffffffffffffffffffffffffffffff160217905550505050506102f1565b828054600181600116156101000203166002900490600052602060002090601f016020900481019282601f1061028d57805160ff19168380011785556102bb565b828001600101855582156102bb579182015b828111156102ba57825182559160200191906001019061029f565b5b5090506102c891906102cc565b5090565b6102ee91905b808211156102ea5760008160009055506001016102d2565b5090565b90565b610b57806103006000396000f3006080604052600436106100f1576000357c0100000000000000000000000000000000000000000000000000000000900463ffffffff1680630115949c146100f657806306fdde031461012d57806317fc45e2146101bd5780632a8d26e8146101f45780635210eb561461020b578063522e11771461026257806363d1302c146102915780636f338a22146102e8578063794542ad1461033f5780638c180f7a1461036e5780638da5cb5b146103c557806395d89b411461041c5780639b012dec146104ac5780639c30ad7e146104c3578063cae30983146104f2578063d424ee7d14610549578063f2fde38b146105a0575b600080fd5b34801561010257600080fd5b5061010b6105e3565b604051808263ffffffff1663ffffffff16815260200191505060405180910390f35b34801561013957600080fd5b506101426105fd565b6040518080602001828103825283818151815260200191508051906020019080838360005b83811015610182578082015181840152602081019050610167565b50505050905090810190601f1680156101af5780820380516001836020036101000a031916815260200191505b509250505060405180910390f35b3480156101c957600080fd5b506101d261069b565b604051808263ffffffff1663ffffffff16815260200191505060405180910390f35b34801561020057600080fd5b506102096106b1565b005b34801561021757600080fd5b5061022061074b565b604051808273ffffffffffffffffffffffffffffffffffffffff1673ffffffffffffffffffffffffffffffffffffffff16815260200191505060405180910390f35b34801561026e57600080fd5b50610277610771565b604051808215151515815260200191505060405180910390f35b34801561029d57600080fd5b506102a6610784565b604051808273ffffffffffffffffffffffffffffffffffffffff1673ffffffffffffffffffffffffffffffffffffffff16815260200191505060405180910390f35b3480156102f457600080fd5b506102fd6107aa565b604051808273ffffffffffffffffffffffffffffffffffffffff1673ffffffffffffffffffffffffffffffffffffffff16815260200191505060405180910390f35b34801561034b57600080fd5b506103546107d4565b604051808215151515815260200191505060405180910390f35b34801561037a57600080fd5b506103836107e7565b604051808273ffffffffffffffffffffffffffffffffffffffff1673ffffffffffffffffffffffffffffffffffffffff16815260200191505060405180910390f35b3480156103d157600080fd5b506103da610811565b604051808273ffffffffffffffffffffffffffffffffffffffff1673ffffffffffffffffffffffffffffffffffffffff16815260200191505060405180910390f35b34801561042857600080fd5b50610431610836565b6040518080602001828103825283818151815260200191508051906020019080838360005b83811015610471578082015181840152602081019050610456565b50505050905090810190601f16801561049e5780820380516001836020036101000a031916815260200191505b509250505060405180910390f35b3480156104b857600080fd5b506104c16108d4565b005b3480156104cf57600080fd5b506104d861096e565b604051808215151515815260200191505060405180910390f35b3480156104fe57600080fd5b50610507610986565b604051808273ffffffffffffffffffffffffffffffffffffffff1673ffffffffffffffffffffffffffffffffffffffff16815260200191505060405180910390f35b34801561055557600080fd5b5061055e6109b0565b604051808273ffffffffffffffffffffffffffffffffffffffff1673ffffffffffffffffffffffffffffffffffffffff16815260200191505060405180910390f35b3480156105ac57600080fd5b506105e1600480360381019080803573ffffffffffffffffffffffffffffffffffffffff1690602001909291905050506109d6565b005b6000600360029054906101000a900463ffffffff16905090565b60018054600181600116156101000203166002900480601f0160208091040260200160405190810160405280929190818152602001828054600181600116156101000203166002900480156106935780601f1061066857610100808354040283529160200191610693565b820191906000526020600020905b81548152906001019060200180831161067657829003601f168201915b505050505081565b600360029054906101000a900463ffffffff1681565b6000809054906101000a900473ffffffffffffffffffffffffffffffffffffffff1673ffffffffffffffffffffffffffffffffffffffff163373ffffffffffffffffffffffffffffffffffffffff1614151561070c57600080fd5b60001515600360009054906101000a900460ff16151514151561072e57600080fd5b6001600360006101000a81548160ff021916908315150217905550565b600360069054906101000a900473ffffffffffffffffffffffffffffffffffffffff1681565b600360009054906101000a900460ff1681565b600460009054906101000a900473ffffffffffffffffffffffffffffffffffffffff1681565b6000600360069054906101000a900473ffffffffffffffffffffffffffffffffffffffff16905090565b600360019054906101000a900460ff1681565b6000600460009054906101000a900473ffffffffffffffffffffffffffffffffffffffff16905090565b6000809054906101000a900473ffffffffffffffffffffffffffffffffffffffff1681565b60028054600181600116156101000203166002900480601f0160208091040260200160405190810160405280929190818152602001828054600181600116156101000203166002900480156108cc5780601f106108a1576101008083540402835291602001916108cc565b820191906000526020600020905b8154815290600101906020018083116108af57829003601f168201915b505050505081565b6000809054906101000a900473ffffffffffffffffffffffffffffffffffffffff1673ffffffffffffffffffffffffffffffffffffffff163373ffffffffffffffffffffffffffffffffffffffff1614151561092f57600080fd5b60001515600360019054906101000a900460ff16151514151561095157600080fd5b6001600360016101000a81548160ff021916908315150217905550565b6000600360009054906101000a900460ff1615905090565b6000600560009054906101000a900473ffffffffffffffffffffffffffffffffffffffff16905090565b600560009054906101000a900473ffffffffffffffffffffffffffffffffffffffff1681565b6000809054906101000a900473ffffffffffffffffffffffffffffffffffffffff1673ffffffffffffffffffffffffffffffffffffffff163373ffffffffffffffffffffffffffffffffffffffff16141515610a3157600080fd5b600073ffffffffffffffffffffffffffffffffffffffff168173ffffffffffffffffffffffffffffffffffffffff1614151515610a6d57600080fd5b8073ffffffffffffffffffffffffffffffffffffffff166000809054906101000a900473ffffffffffffffffffffffffffffffffffffffff1673ffffffffffffffffffffffffffffffffffffffff167f8be0079c531659141344cd1fd0a4f28419497f9722a3daafe3b4186f6b6457e060405160405180910390a3806000806101000a81548173ffffffffffffffffffffffffffffffffffffffff021916908373ffffffffffffffffffffffffffffffffffffffff160217905550505600a165627a7a72305820ee202349db2ccf95d001d255dab02e6ce23682dacd91a00a224b594222e7ac5e0029",
  "source": "pragma solidity ^0.4.17;\n\nimport \"zeppelin-solidity/contracts/ownership/Ownable.sol\";\n\ncontract MultiSigTransfer is Ownable {\n  string public name = \"MultiSigTransfer\";\n  string public symbol = \"MST\";\n  bool public complete = false;\n  bool public denied = false;\n  uint32 public quantity;\n  address public targetAddress;\n  address public fromAddress;\n  address public requesterAddress;\n\n  constructor(\n    uint32 quantityIn,\n    address targetAddressIn,\n    address fromAddressIn,\n    address requesterAddressIn\n  ) public {\n    quantity = quantityIn;\n    targetAddress = targetAddressIn;\n    fromAddress = fromAddressIn;\n    requesterAddress = requesterAddressIn;\n  }\n\n  function approveTransfer() public onlyOwner {\n    require(complete == false);\n    complete = true;\n  }\n\n  function denyTransfer() public onlyOwner {\n    require(denied == false);\n    denied = true;\n  }\n\n  function getQuantity() public view returns (uint32) {\n    return quantity;\n  }\n\n  function getTargetAddress() public view returns (address) {\n    return targetAddress;\n  }\n\n  function getFromAddress() public view returns (address) {\n    return fromAddress;\n  }\n\n  function getRequesterAddress() public view returns (address) {\n    return requesterAddress;\n  }\n\n  function isPending() public view returns (bool) {\n    return !complete;\n  }\n}\n",
  "sourcePath": "/home/cfoster/projects/kvt/contracts/MultiSigTransfer.sol",
  "compiler": {
    "name": "solc",
    "version": "0.4.24+commit.e67f0147.Emscripten.clang"
  },
  "schemaVersion": "2.0.0",
  "updatedAt": "2018-07-17T07:32:28.705Z"
}